:0400000080312B28F8
:100008007E14803120007F08FB008E313F2680312E
:10001800003A03191228403022008C068D314E25F3
:100028008031003A031924288D31822580318F319F
:10003800CC2780318F31272780318D31FA258031C7
:100048008D311A257B082000FF007E1009008031C1
:100058002D28C83084008E308500BF3086000030DF
:1000680087001E308D312C25803185308400873003
:10007800850020308600013087003C308D312C25EA
:100088008031F001F101F201F301F401F50165306D
:100098008400003085000B308D3126258031A0305A
:1000A8008400003085001F308D3126257E10200009
:1000B8008331B72B48302000D0005008DC002000E6
:1000C8004708D1004608D000C60A0319C70A5008D5
:1000D8008400510885000008D2005208E00060083A
:1000E800031908002530600603197F2860088D3140
:1000F8003B25803163282000DE01DF01DD018928EE
:100108005D150130C6070030C73D46088400470822
:1001180085000008303A031984289228460884008C
:100128004708850000088D3173258031031CD228CB
:100138002000DE01DF010A302000A0000030A1000D
:100148005F08A3005E08A2008E31AC268031200033
:100158002108DF002008DE004608840047088500E3
:100168000008D03ED000FF3003180030D1005008FE
:10017800DE075108DF3D0130C6070030C73D46089D
:1001880084004708850000088D3173258031031CE1
:10019800D2289F285D16D2285D17F028200047082E
:1001A800D1004608D000C60A0319C70A50088400BF
:1001B800510885000008E000003A0319252A643A2E
:1001C8000319F0280D3A0319F028053A0319CE2827
:1001D800193A0319D02863285D1B27295D1E0129B8
:1001E8005C0886008701403FD800413FD900423F64
:1001F800DA00433FDB00043012295C0886008701DF
:10020800403FD000413FD1005008D8005108D900E4
:10021800890D893B8909DA00DB000230D0005008DB
:10022800DC07DB1F47290330D0005008DD04D8095C
:10023800D909DA09DB09D80A0319D90A0319DA0A2C
:100248000319DB0A47295D1E36295C0886008701E9
:10025800403FD800413FD900423FDA00433FDB002E
:10026800043044295C0886008701403FD000413FA4
:10027800D1005008D8005108D900DA01DB0102305A
:10028800D0005008DC07E001E00A0A3060060319D4
:100298007A296008D000D101D035D10DD035D10DE3
:1002A8002630500784008230513D8500003FD2003F
:1002B800013FD300023FD400033FD50055085B023D
:1002C800031D702954085A02031D70295308590246
:1002D800031D702952085802031C7A290130D000E6
:1002E8005008E0070A306006031D4D295E085F04C8
:1002F800031986295D08033903198629FF30DE07AB
:10030800FF30DF3D6008D000D101D01BD103510878
:10031800803AD2005F08803A5202031D95295E0890
:1003280050020318A22920006008D000D101D01B78
:10033800D1035008DE025108DF3BA5292000DE0169
:10034800DF015D1DBE295D0803390319AF292D3072
:100358008D313B25803120005E085F040319D729C1
:1003680030308D313B258031FF302000DE07FF30F3
:10037800DF3DB0295E085F040319CF2920308D3195
:100388003B258031FF302000DE07FF30DF3D5E086F
:100398005F04031DC2295D0803390319D7292D30CD
:1003A8008D313B25803120006008D600D701D61B4F
:1003B800D703FF302000D607FF30D73D560A031970
:1003C800570A031963280030BD000030BC00003014
:1003D800BB000A30BA0057088500560884008435E7
:1003E800850D8435850D263084078230853D003F94
:1003F800AC00013FAD00023FAE00033FAF005B0819
:10040800B3005A08B2005908B1005808B000853145
:10041800ED25803120002F08C1002E08C0002D08CE
:10042800BF002C08BE008631C826803120003A085B
:10043800303ED0005008E00060088D313B25803107
:10044800DD29080001340034003400340A34003453
:10045800003400346434003400340034E8340334A5
:10046800003400341034273400340034A034863487
:1004780001340034403442340F340034803496342C
:10048800983400340034E134F53405340034CA3487
:100498009A343B3499340134C2340134EB34013496
:1004A800143402343D340234663402348F34023456
:1004B800B8340234E13402340A34033433340334B4
:1004C8005B34033484340334AD340334D634033416
:1004D8002034203420342034253430343234643409
:1004E8003A342534303432346434003453344534A7
:1004F8004C34453443345434463455344E34433400
:10050800003450344D34543444344534563449342A
:10051800433445340034253437346C34753420344E
:10052800253437346C347534003432343734373446
:1005380034343534363432340034313439343434A4
:10054800303436343734333400343134333433349C
:1005580036343034303436340034413444344A3458
:100568004734413449344E3400343634303430342E
:100578003034303430340034373430343034383474
:100588003934303400343934363438343434373448
:100598003234003431343034383438343434333449
:1005A800003432343434323433343634343400346E
:1005B800333435343134313432343734003432342E
:1005C8003434373436343434373400343134353411
:1005D8003334323432343834003433343834393400
:1005E80039343834383400343134363434343134EE
:1005F80033343934003439343034333438343934DA
:1006080039340034343439343934393439343934B8
:100618000034333430343034303430340034373408
:1006280030343534303430340034353433343534C0
:1006380035343334003431343634313432343534AB
:1006480000343234373432343334383400343434C8
:100658003434343437343834003439343234303480
:100668003834383400343134363430343934393469
:10067800003431342E343034353456340034313487
:100688002E34313435345634003430342E34353445
:1006980035345634003430342E3436343534563408
:1006A800003430342E343734353456340034303452
:1006B8002E34383435345634003430342E3439340A
:1006C800353456340034313432343534303400342F
:1006D8003234353438343034003439343134383401
:1006E8003234003433343934353437340034313427
:1006F80037343734373400343434393439343834CF
:1007080000343834323431343934003431342E340E
:1007180030345634003431342E34313456340034C5
:1007280031342E3432345634003430342E343534A7
:100738005634003430342E343634563400343034A1
:100748002E3437345634003430342E34383456345A
:10075800003430342E3439345634003425343634A9
:100768006C34753400348D31B225833122000C1776
:100778008F314C27833185312A2583318F310627E4
:1007880083318D31232583318D31E72583318D31B7
:10079800D42583318E31E62683314E308400823071
:1007A8008500003F2000B000013FB1008731C1271C
:1007B80083318731FB2783312000EE015A308400D2
:1007C80082308500003FB000013FB1008731C1276A
:1007D80083310230863140268331003A0319FE2BDB
:1007E800033020006E020318FE2B0130E10061087F
:1007F800EE070B2C0130863140268331003A03196D
:100808000B2C20006E0803190B2C0130EE028D31E1
:1008180092258331822C8F302000C6008230C70099
:100828008F317427833120004108CB004008CA006B
:100838003F08C9003E08C8008D31C3258331200018
:100848002308CF002208CE002108CD002008CC00C4
:1008580080315E2083312000A301A30A00308E314D
:100868000F268331B2302000C6008330C70087319D
:100878000B27833120003D08CB003C08CA003B0809
:10088800C9003A08C80080315E2083316C302000EE
:10089800C6008230C7008D311D2583312000E1005C
:1008A800E2016108C8006208C9008D312025833142
:1008B8002000E300E4016308CA006408CB0080312B
:1008C8005E208331ED2B7A302000C6008230C700CD
:1008D80080315E208331ED2BB1302000C60082309C
:1008E800C70080315E208331ED2B85302000C600A3
:1008F8008230C70080315E208331ED2B20006E08E6
:10090800003A03190F2C013A0319672C033A03190B
:10091800702C013A0319792CED2BED2B2000A40043
:10092800A7011E2D053024001C052000A20024006C
:100938001E081F3920002204031D962C24001E14B3
:10094800053024001C052000A20024001E081F39C1
:1009580020002204031DA42C2435240099001C190E
:10096800B32C00301E1B01302000A7002708031DF0
:10097800EA2CA501C32C0130A2002208A5072108F2
:1009880025020318EA2C053024001C052000A200CB
:1009980024001E081F3920002204031DC72C250827
:1009A8002007A20022088600870101082400990078
:1009B8001C19DC2C00301E1B01302000A700270862
:1009C8000319BF2C0230A2002208A700053024001A
:1009D8001C052000A20024001E081F392000220444
:1009E800031DEA2C24001E15272D24009C1D1C1E07
:1009F8001B2D2000A601210826020318162D260803
:100A08002007A2002208860087010108A300260803
:100A1800AA3E86008701230881000130A20022082F
:100A2800A607FF2C2108A2002208A700272D2000D6
:100A3800A701272D21003C08003A0319962C013AFA
:100A48000319F92C272D20002708080022008C11F3
:100A58000C1202302000A5003830A400AD30890BFC
:100A6800332DA40B332DA50B332D033020008D001F
:100A780022000C16003200320032003222000C1222
:100A8800003200320032003234302000A400F1304D
:100A9800890B4C2DA40B4C2D003222000C16003271
:100AA80000320032003222000C12003200320032D2
:100AB800003205302000A4002630890B612DA40BDC
:100AC800612D000022000C16003200320032003284
:100AD80022000C12003200320032003205302000B1
:100AE800A4002630890B762DA40B762D0000023049
:100AF80020008D0022000C16003200320032003235
:100B080022000C12003200320032003228308731C5
:100B1800482785310C308731482785318D31A2250A
:100B2800853106308731482708002000141CE52D40
:100B38002100141CE52D24009C1EBC2D1C1DAF2D6E
:100B48001E1BE32D1C080139F6001D0E0139760421
:100B5800031DA62DCF2D1908F60021003B0886009D
:100B68008701760881000130F6007608BB07E12D81
:100B78009C1AE32D19081C1DDC2DAA30F6007608F6
:100B88002100BA0024001C080139F6001D0E0139A5
:100B98007604031DC62D21003A0886008701010846
:100BA800240099000130F60076082100BA07E12DEB
:100BB800B230F60076082100BB0024001D16200084
:100BC80014102100941C08002000941C08009410A4
:100BD800080000302000B8000030B7000030B60030
:100BE8000030B5002F082E042D042C040319372ECD
:100BF800B901B90AAF1B0C2E0130AC35AD0DAE0DE5
:100C0800AF0D890B012E0130B4003408B907FE2D51
:100C18000130B535B60DB70DB80D890B0D2E2F085F
:100C28003302031D212E2E083202031D212E2D080A
:100C38003102031D212E2C083002031C2C2E2C08F7
:100C4800B0022D08B13B2E08B23B2F08B33B351438
:100C58000130AF36AE0CAD0CAC0C890B2D2E01302B
:100C6800B902031D0C2E3808AF003708AE0036084D
:100C7800AD003508AC0008002000A70003302702AB
:100C8800031C482E003008002708A43E8600870170
:100C98000108A200A301A209A309A20A0319A30A31
:100CA8002708A73E8600870101082207A400230819
:100CB8000318230AA5002508803AA60080302602DA
:100CC800031D682EC9302402031C822E2000270829
:100CD800703E860087010108031D822E6430A20041
:100CE8002708703E86008701220881006430A00032
:100CF8000030A1008D314425013008000030080083
:100D08002000A4008D315925863120002108A30038
:100D180023082100BC00B82E24009D1520002208BD
:100D2800031D9A2E24009C174F30A42E2000220366
:100D3800031DA52E7F30A300230824009C05133033
:100D48009A002400B62E24009C0106302000A3003F
:100D5800230824009D041E142000243524009A0032
:100D6800FE309B009D16C12E20002108003A031971
:100D7800902E013A0319A72EC12E210014149414A1
:100D8800200014109410080020003D083C043B0487
:100D98003A040319022FC301C30ABD1BDF2E013019
:100DA800BA35BB0DBC0DBD0D890BD42E0130C20068
:100DB8004208C307D12E3D084102031DED2E3C0811
:100DC8004002031DED2E3B083F02031DED2E3A089D
:100DD8003E02031CF72E3A08BE023B08BF3B3C0804
:100DE800C03B3D08C13B0130BD36BC0CBB0CBA0C46
:100DF800890BF82E0130C302031DDF2E4108BD0008
:100E08004008BC003F08BB003E08BA00080002309A
:100E1800653E86008701403F2000AC00413FAD00A1
:100E2800423FAE00433FAF00210023082000A3004B
:100E3800210022082000A200210021082000A10092
:100E4800210020082000A0000030A7000030A600E4
:100E58000330A500E830A4008F319C27873120009B
:100E68002308B3002208B2002108B1002008B0000E
:100E78008531ED2520002F08BD002E08BC002D0867
:100E8800BB002C08BA0008002000A200D530890B4E
:100E98004B2F000020002208A00004300310A01BE4
:100EA8000314A00C890B522F03302005A100220E39
:100EB8000F398919F0380C39090721048D002200EF
:100EC8000C16003200320032003222000C120032BE
:100ED800003200320032033020002205A000220830
:100EE8000C39090720048D0022000C16003200324C
:100EF8000032003222000C1200320032003200327E
:100F08000800673483346C34833480348334713418
:100F180083341F348334253483342B34833413349B
:100F28008334CE348234F8348234D5348234DC3499
:100F3800823406348334C0348234C73482347B34F8
:100F480083347634833485348334373483340D34AE
:100F580083341934833431348334EA348234E334C7
:100F68008234F1348234B9348234FF348234A9347F
:100F78008234A1348234993482343F302100BD0553
:100F880020006F0C0339B200B20E21003D0820008A
:100F98003206CF3932062100BD0020003108B300E7
:100FA8003008B2003308B200B3010F303205B40084
:100FB80021003D0820003406F03934062100BD0028
:100FC80020003008B20032082100BE006030200046
:100FD800B2003208A800BD30B3003308A9000230BF
:100FE800B4003408AA0001308E31592608008E3129
:080FF8009026200018140800E7
:101A34008531992508002000660808002000650803
:101A44000800200018100800640080010131890B8F
:101A5400272D0034FE0012001E00FE0B2D2D003435
:101A640073087404031D08007708F4007608F30073
:101A740008002000A30022008C15200023088731D1
:101A84004827080073087404031D08002000210877
:101A9400F4002008F30008002100931D572D2000B6
:101AA400931D572D93110130080000300800243095
:101AB4002000A000200821008D04DB302000A000BD
:101AC400200823008D05080007302000A00020080E
:101AD40021008C0407302000A000200823008C047F
:101AE40008002000A100A0013A3021020318802D33
:101AF40030302102031C802DA001A00A200C080014
:101B040070080319872D0130F002710803198C2D18
:101B14000130F1027208031908000130F2020800D2
:101B240022008C110230873148278D311530200076
:101B3400A300C630890B9C2DA30B9C2D000008002C
:101B440022008C110130873148278D311530200057
:101B5400A300C630890BAC2DA30BAC2D00000800EC
:101B6400F030210099008C0123008C0121008D01AB
:101B740023008D0122009D019E0120008C018D0116
:101B84000800210023082000A300210022082000CF
:101B9400A200210021082000A1002100200820002B
:101BA400A00008007D3028009D009C010330200027
:101BB400A000200828009E041E081E152000931172
:101BC400210093150B178B1708008D316625210012
:101BD400150895159516200095011E140C30A100CA
:101BE40021089E047F30A10021089E059F01080062
:101BF400730874040319092E0130F3020030F43B16
:101C0400FF30F6000130F7008E31742608000030F2
:101C1400F600F7008E31742608002000A50022008B
:101C24008C1120002308A4000530A435FF3E031DB9
:101C3400172E243525048038873148278E316A30A1
:101C4400890B222E003208002000AA00362E260816
:101C5400A8002808A1002708A9002908A20025082F
:101C6400863184268E313C2E20002A08013A03193D
:101C7400292E3C2E0B178B1708002000111C572E01
:101C84002100111C572E0A30A0070030A13D00305E
:101C9400A23D0030A33D20001810FF309700F6301D
:101CA40096001814111001300800003008002000BC
:101CB400AE006D2E2908AB002B08A0002A08AC004A
:101CC4002C08A1002808843192248E312000AD0014
:101CD4002D08AF00722E2E08013A03195C2E722EC5
:101CE4002F08080025001A08CF39F8007808FA00F0
:101CF4007708F9007608F800F936F80CF936F80C8C
:101D04007808980076080339F8000330F835FF3E68
:101D1400031D882E78357A049A00080020001810D4
:101D2400FF309700F6309600181400302100A3000D
:101D34000030A2000030A1000030A00000302000DC
:101D4400EA000030E9000030E8000030E700E50177
:101D5400E60108002000A401A501201CB52E2208DC
:101D6400A4072308A53D0130A235A30D890BB62E87
:101D74000130A136A00C890BBB2E20082104031DC1
:101D8400AF2E2508A1002408A0000800993483344C
:101D9400493483349E3483344F348334A3348334BA
:101DA40055348334A83483345B348334AD3483347E
:101DB400613483348A3483343D3483348F348334BC
:101DC40043348334943483342000A501A601A7014D
:101DD40001308E3126268E3120006F081F3980385D
:101DE400EF006F10F930EF05E730EF056030B00019
:101DF4003008A8006F30B1003108A900AA01AA0A6E
:101E040001308E315926080021000D17BF30200003
:101E1400A000200823008D0524000D1720001815AC
:101E2400F730A00020089805180898179901181091
:101E3400FF309700F6309600181411102100111489
:101E44000B178B172000181008007508A43E860095
:101E540087010108F6007508A73E86008701760809
:101E640081007F30F600760820009E051508F600F4
:101E74007508A43E860087017608810095019E17A7
:101E84007508F50AF600033076020318F5017508A3
:101E94009F0008007F302000A000200821008C054E
:101EA4007F302000A000200823008C0522009D150F
:101EB40020001C089C141C159A01FF309B003F3025
:101EC400A000200825009A050C302000A00020085E
:101ED40025009A04F3302000A000200825009E0568
:101EE4009801080087310B278F3120003D08C50079
:101EF4003C08C4003B08C3003A08C2004508A300DC
:101F04004408A2004308A1004208A0000030A70032
:101F14000030A6000030A5003C30A4008F319C277F
:101F240020002308C1002208C0002108BF002008A7
:101F3400BE00080000302000AB000030AA000030D2
:101F4400A9000030A800201CAF2F2408A8072508EA
:101F5400A93D2608AA3D2708AB3D0130A435A50DAF
:101F6400A60DA70D890BB02F0130A336A20CA10C2E
:101F7400A00C890BB72F2308220421042004031D7D
:101F8400A52F2B08A3002A08A2002908A1002808CD
:101F9400A000080001302000E7070030E83D0030D1
:101FA400E93D0030EA3D0130EB070030EC3D033001
:101FB4006C02E93003196B02031C08000130F800BD
:101FC4007808E50739306502031CEC2F2C30F60045
:101FD4000130F92F3C3020006502031CFC2FE50181
:101FE4000130F8007808E6075830F6000230F700B0
:0C1FF4008D3132252000EB01EC010800CB
:020000040001F9
:04000E00C4CFFFDD7F
:00000001FF
