:08000000803102288731F22F44
:100E3600FE0012001E00FE0B1C2F0034003401348D
:100E460002340334043405340634073408340934D0
:100E5600F3302100990007308C00073023008C0006
:100E6600403021008D0023008D01083022009D00B6
:100E76009E0120008C018D010800F3006400230010
:100E86009518412F7308F000F10170089100710860
:100E960092003F30F20072089505151403101518DC
:100EA60003140030093D13080800F30023009518C9
:100EB600592F7308F100F20171089100720892002F
:100EC600700893003F30F10071089505200003106B
:100ED6008B1B03148B132300151555309600AA306F
:100EE6009600951415112000031C08008B170800A6
:100EF60087312B2787313430860000308700203039
:100F06008400003085000A30FB0016001A00FB0B37
:100F1600882F0A30FB007B08F400F501203087316A
:100F2600C82787310A30FB007B08F400F5012A3018
:100F360087319F2787318C2FF900FA0174087A02CE
:100F46000318080075087A07F600F701F70D770809
:100F5600803AF80081307802031DB32F0030760204
:100F66000318080075087A07873140278731F6008D
:100F76007A087907F70077088600870176088100E6
:100F86000130F6007608FA07A12FF900FA01740875
:100F96007A020318080075087A07F600F701F70DBC
:100FA6007708803AF80081307802031DDC2F003084
:100FB6007602031808007A087907F6007608860094
:100FC60087010108F7007708F00075087A0787316E
:100FD600582787310130F6007608FA07CA2F2130E4
:100FE60084008730850034308600003087000A3060
:0A0FF60087311B27200087317B2F75
:020000040001F9
:04000E00DCCFFFDD67
:00000001FF
