:08000000803102288731F82F3E
:100DBE0020000C1201308731552786311530F30093
:100DCE00C630890BE82EF30BE82E00320800F03007
:100DDE002100990007308C00073023008C00403032
:100DEE0021008D0023008D01083022009D009E0100
:100DFE0020008C018D0108008631EE268731873167
:100E0E0033278731FF30F0000130F100873118278A
:100E1E00873187318F2787310030F8000030F90095
:100E2E00172F25001A08F2007208F4007108F3005B
:100E3E007008F200F336F20CF336F20C72089800DA
:100E4E0070080339F2000330F235FF3E031D2B2FDD
:100E5E00723574049A0008007F30F000700821008B
:100E6E008C057F30F000700823008C0522009D1544
:100E7E0020001C089C141C159A01FF309B003F306B
:100E8E00F000700825009A050C30F00070089A04E6
:100E9E00F330F00070089E0598010800F200D5307E
:100EAE00890B572F00007208F00004300310F01B5E
:100EBE000314F00C890B5D2F03307005F100720ED8
:100ECE000F398919F0380C390907710420008D008B
:100EDE008C15003200320032003220008C110032AC
:100EEE0000320032003203307205F00072080C3905
:100EFE000907700420008D008C150032003200327C
:100F0E00003220008C110032003200320032080014
:100F1E0020000C128C110230F5003830F400AD3088
:100F2E00890B972FF40B972FF50B972F000003309B
:100F3E0020008D008C15003200320032003220006D
:100F4E008C1100320032003200323430F400F230B4
:100F5E00890BAF2FF40BAF2F20008C15003200320F
:100F6E000032003220008C1100320032003200328A
:100F7E000530F4002630890BC22FF40BC22F00323D
:100F8E0020008C15003200320032003220008C110D
:100F9E0000320032003200320530F4002630890B68
:100FAE00D62FF40BD62F0032023020008D008C1578
:100FBE00003200320032003220008C11003200323A
:100FCE000032003228308731552787310C30873177
:100FDE00552787318631DF268731063087315527F1
:100FEE000800F601F701F801F901FA012000873136
:100FFE00032F2534303438346C34583420340034D4
:10100E0020342534303438344C34583400342034C1
:10101E0025343034323458340034203425343034CE
:0A102E003434583400340D3400341B
:020000040001F9
:04000E00C4CFFFDD7F
:00000001FF
