:0400000080312D28F6
:100008007E14803120007F08F1008F31C0278031B5
:10001800003A031923288631FA268031013020005E
:10002800E8070030E93D03306902E9300319680246
:10003800031C2328E801E901220040308C068F3197
:10004800B72780318F31A52771082000FF007E1067
:10005800090080312F28FA01FB0163308400003049
:1000680085000C308F31B1278031A03084000030FA
:1000780085002C308F31B1277E10200082316E2A06
:10008800200026088400270885000008A900290800
:10009800D5000130A6070030A73D55080319080010
:1000A8002530550603195D28550886314D268031BF
:1000B80044282000D001D1012608840027088500A3
:1000C8000008A9002908D5000130A6070030A73D7F
:1000D80030305506031D7228013077282D3055061B
:1000E800031D86280230D0000030D1002608840085
:1000F800270885000008A9002908D5000130A607AF
:100108000030A73DC801C901B0285508A900AA01B7
:100118004908F3004808F2000A30F4000030F500FE
:10012800873160278031200029087207AB002A0830
:10013800733DAC002B08D03EC800FF302C3DC900F1
:1001480026088400270885000008A9002908D5008A
:100158000130A6070030A73D30305502031CB828EF
:100168003A305502031C89286C3055060319C028FB
:100178004C305506031DCD28501526088400270845
:1001880085000008A9002908D5000130A60700301D
:10019800A73D5508031908005508A9002908D400E7
:1001A80061305402031C43292030D4024329280813
:1001B80086008701403F84008501810A0008A90064
:1001C8002908C500CA01CB014A084507A900290822
:1001D8008600870101080319FA280130CA07003090
:1001E800CB3DE828203086314D2680312000D018BC
:1001F8000C294B08AA004A08A900CA0A0319CB0A05
:1002080049082A02031D0A2948082902031CF6285E
:1002180045088731BE27803120004B08AA004A08CC
:10022800A900CA0A0319CB0A49082A02031D1E2974
:100238004808290203184428203086314D26803189
:1002480010292808860087010108840085010230EA
:100258008107000886314D2680314428023020006D
:100268003A2908303A290A303A291030C6000030B5
:10027800C7005B29550886314D2680314428200067
:100288005408423A03193229013A03192529073A31
:10029800031937290B3A031935291C3A0319DB28A6
:1002A800063A031937290D3A031939293E2920003E
:1002B80050199329443054060319752928088600D3
:1002C800870101088400850102308107003FA900E9
:1002D800013FAA002908BD002A08BE00BF01C001CD
:1002E8008A292808860087010108840085010230D0
:1002F8008107003FA900013FAA002908BD002A087C
:10030800BE00890D893B8909BF00C0004008CF00A5
:100318003F08CE003E08CD003D08CC00A3292808A0
:100328008600870101088400850104308107003FA9
:10033800CC00013FCD00023FCE00033FCF00443048
:1003480054060319CF1FB429CC09CD09CE09CF090A
:10035800CC0A0319CD0A0319CE0A0319CF0AD015FE
:10036800D201D3014608F2004708F300F401F50171
:100378004F08F9004E08F8004D08F7004C08F60041
:1003880085315E25803172082000A9002908D40033
:100398004608F2004708F300F401F5014F08F90098
:1003A8004E08F8004D08F7004C08F60085310B257B
:1003B800803175082000CF007408CE007308CD0086
:1003C8007208CC000A305402031CF829783055060C
:1003D8000319F0290730F1292730C1000030C20085
:1003E8004108A9002908D4075408303EA90052083A
:1003F8002D3E86008701290881000130D207003090
:10040800D33D4F084E044D044C040319122A003002
:100418005302103003195202031CB629D01D202A9A
:100428002D30A90052082D3E860087012908810039
:100438000130D2070030D33D5308CB005208CA0020
:100448005018282A2030292A3030C3000030C40030
:100458004308A9002908D400352A540886314D26B6
:1004680080312000D018472A4B08AA004A08A90062
:10047800CA0A0319CB0A49082A02031D452A480853
:100488002902031C312A0130D2020030D33B520822
:100498002D3E86008701010886314D2680312000D7
:1004A8005208530403195D2A472A203086314D2605
:1004B800803120004B08AA004A08A900CA0A03197B
:1004C800CB0A49082A02031D6B2A48082902031887
:1004D8004428592A8731A927823122000C178331F1
:1004E800F8238231AB302000EA000F30EB0087316F
:1004F8007B278231200018148731D1278231873138
:10050800E427823187311F278231873141278231A1
:100518009A2A94302000D6008630962A99302000F6
:10052800D6008630D7008F31F0278231F5010030B0
:1005380087319427823120006308DE00DF01DE095D
:10054800DF09DE0A0319DF0A2100230820005E07FD
:10055800E0005F0803185F0AE1006108803AE200E2
:1005680080306202031DBA2A9730600203188D2A70
:1005780020006408DE00DF01DE09DF09DE0A031956
:10058800DF0A2100240820005E07E0005F08031846
:100598005F0AE1006108803AE20080306202031DD0
:1005A800D72A973060020318922A20006508DE00D7
:1005B800DF01DE09DF09DE0A0319DF0A2100250849
:1005C80020005E07E0005F0803185F0AE100610889
:1005D800803AE20080306202031DF42A97306002FC
:1005E800031C9A2A9E302000D6008630962AF600F0
:1005F800F9016F2B053024001C05F4001E081F3973
:100608007404031DFE2A1E1405301C05F4001E0880
:100618001F397404031D082B763599001C19122BF9
:1006280000301E1B0130F9007908031D422BF70129
:10063800212B0130F4007408F707730877020318B8
:10064800422B05301C05F4001E081F397404031DD5
:10065800252B77087207F4007408860087010108C3
:1006680099001C19352B00301E1B0130F900790840
:1006780003191D2B0230F4007408F90005301C051D
:10068800F4001E081F397404031D422B1E15782B15
:1006980024009C1D1C1E6D2BF8017308780203189A
:1006A800682B78087207F40074088600870101082F
:1006B800F5007808A63E860087017508810001309C
:1006C800F4007408F807512B7308F4007408F90053
:1006D800782BF901782B21003808003A0319FE2AF3
:1006E800013A03194C2B782B79080800F600ED2BFA
:1006F800053024001405F40016081F397404031D7E
:100708007C2B161405301405F40016081F397404E0
:10071800031D862B763591001419902B0030161B7B
:100728000130F9007908031DC02BF7019F2B013018
:10073800F4007408F707730877020318C02B053014
:100748001405F40016081F397404031DA32B770839
:100758007207F400740886008701010891001419D3
:10076800B32B0030161B0130F900790803199B2BB5
:100778000230F4007408F90005301405F400160876
:100788001F397404031DC02B1615F62B2400941D65
:10079800141EEB2BF801730878020318E62B78086F
:1007A8007207F4007408860087010108F5007808CC
:1007B800B93E86008701750881000130F40074088D
:1007C800F807CF2B7308F4007408F900F62BF90129
:1007D800F62B21004B08003A03197C2B013A031928
:1007E800CA2BF62B7908080022008C110C12023053
:1007F800F7003830F600AD30890B002CF60B002CD2
:10080800F70B002C0000033020008D0022000C168E
:10081800003200320032003222000C120032003264
:10082800003200323430F600F230890B192CF60B06
:10083800192C22000C16003200320032003222003D
:100848000C1200320032003200320530F600263039
:10085800890B2C2CF60B2C2C003222000C160032A3
:1008680000320032003222000C1200320032003214
:1008780000320530F6002630890B402CF60B402C50
:100888000032023020008D0022000C1600320032A7
:100898000032003222000C120032003200320032E4
:1008A80028308531A12583310C308531A12583314C
:1008B8008F31E127833106308531A12508002000DA
:1008C800141CAF2C2100141CAF2C24009C1E862C59
:1008D8001C1D792C1E1BAD2C1C080139F0001D0EA7
:1008E80001397004031D702C992C1908F00021009F
:1008F800370886008701700881000130F000700811
:10090800B707AB2C9C1AAD2C19081C1DA62CA630B9
:10091800F00070082100B60024001C080139F0001E
:100928001D0E01397004031D902C21003608860025
:1009380087010108240099000130F00070082100A7
:10094800B607AB2CAE30F00070082100B7002400C9
:100958001D16200014102100941C08002000941C6F
:100968000800941008002000911D032D2100911DFE
:10097800032D2400941EDA2C141DCD2C161B012DDA
:1009880014080139F000150E01397004031DC42C38
:10099800ED2C1108F00021004A0886008701700834
:1009A80081000130F0007008CA07FF2C941A012D4D
:1009B8001108141DFA2CB930F00070082100C90084
:1009C800240014080139F000150E01397004031DC4
:1009D800E42C2100490886008701010824009100C1
:1009E8000130F00070082100C907FF2CC130F00069
:1009F80070082100CA00240015162000911121005A
:100A0800921D08002000921D080092110800003075
:100A18002000A4000030A3000030A2000030A10094
:100A280075087404730472040319552DA501A50AE9
:100A3800F51B2A2D0130F235F30DF40DF50D890B58
:100A48001F2D0130A0002008A5071C2D0130A1355D
:100A5800A20DA30DA40D890B2B2D75087902031D7A
:100A68003F2D74087802031D3F2D73087702031D7C
:100A78003F2D72087602031C4A2D7208F60273088D
:100A8800F73B7408F83B7508F93B21140130F5363B
:100A9800F40CF30CF20C890B4B2D0130A502031D4D
:100AA8002A2D2408F5002308F4002208F300210861
:100AB800F200080075087404730472040319982D71
:100AC8002000A101A10AF51B752D0130F235F30DA7
:100AD800F40DF50D890B6A2D0130A0002008A1073F
:100AE800672D75087902031D832D74087802031D8C
:100AF800832D73087702031D832D72087602031C69
:100B08008D2D7208F6027308F73B7408F83B7508D8
:100B1800F93B0130F536F40CF30CF20C890B8E2DF1
:100B28000130A102031D752D7908F5007808F4003D
:100B38007708F3007608F2000800F400D530890B36
:100B4800A32D00007408F20004300310F21B0314F4
:100B5800F20C890BA92D03307205F300740E0F39BE
:100B68008919F0380C390907730420008D00220018
:100B78000C16003200320032003222000C12003211
:100B880000320032003203307405F20074080C3968
:100B98000907720420008D0022000C160032003272
:100BA8000032003222000C120032003200320032D1
:100BB8000800F6008F31D62785317308F5007508CF
:100BC8002100B800062E24009D157408031DEF2D82
:100BD8009C174F30F72D7403031D042E7F30F5004A
:100BE80075089C0513309A00042E24009C010630D9
:100BF800F50075089D041E1476359A00FE309B009A
:100C08009D160E2E7308003A0319E72D013A0319B1
:100C1800F92D0E2E21001414941420001410941091
:100C28000800F6008F31CB2786317308F500750868
:100C38002100CB003E2E240095157408031D272E95
:100C480094174F302F2E7403031D3C2E7F30F50070
:100C580075089405133092003C2E24009401063048
:100C6800F50075089504161476359200FE30930049
:100C78009516462E7308003A03191F2E013A0319D8
:100C8800312E462E210091159215200091119211B6
:100C98000800F7000A307706031D5C2EA330F60023
:100CA8007608F50020006B088A006A080A00863179
:100CB8007B0803196B2E7708F6007B0886008701EE
:100CC800760881000130F6007608FB07080020004E
:100CD8006A086B04031908007708F6007608F5001F
:100CE8006B088A006A080A00863108002534303407
:100CF80038346C34583420340034203425343034BB
:100D080038344C34583400342034253430343234B8
:100D180058340034203425343034343458340034D2
:100D2800433450345334313400344334503453341E
:100D380032340034433450345334333400340D34B3
:100D480000342000A600C62E2108A3002308F200C4
:100D58002208A4002408F300200883317A2386316E
:100D6800C12E2108A3002308F2002208A4002408A9
:100D7800F30020088231FB2286312000A5002508D7
:100D8800A700CE2E2608003A0319A82E013A031907
:100D9800B52ECE2E270808002000A200EE2E7808D7
:100DA800A0002008F3007908A1002108F4007708C2
:100DB800863115268631F72E78082000A0002008F5
:100DC800F3007908A1002108F40077088531DD25B2
:100DD8008631F72E20002208003A0319D32E013A53
:100DE8000319E02EF72E0B178B1708007A08633EBD
:100DF800860087010108F0007A08A33E8600870173
:100E0800700881007F30F000700820009E051508EA
:100E1800F0007A08633E860087017008810095011A
:100E28009E177A08FA0AF000033070020318FA01D4
:100E38007A089F0008007F30F200720821008C05B4
:100E48007F30F200720823008C0522009D152000D7
:100E58001C089C141C159A01FF309B003F30F200BF
:100E6800720825009A050C30F20072089A04F330D3
:100E7800F20072089E0598010800F701F801F901CF
:100E880001308631D026873120006E081F3980381E
:100E9800EE006E10F930EE05E730EE056030A80080
:100EA8002808A0006E30A9002908A100A201A20A02
:100EB80001308631A5260800F601F701721C682F5B
:100EC8007408F6077508F73D0130F435F50D890B00
:100ED800692F0130F336F20C890B6E2F72087304F8
:100EE800031D622F7708F3007608F200080021003E
:100EF8000D17BF30F200720823008D052000181569
:100F0800F730F200720898051808981799019601A9
:100F1800970121001114200011100B178B170800DE
:100F2800F70022008C117508F6000530F635FF3EF3
:100F3800031D9A2F7635770480388531A1258731AE
:100F48006A30890BA52F00320800F0302100990083
:100F580007308C00073023008C00403021008D00C2
:100F680023008D01083022009D009E0120008C0185
:100F78008D010800F9007908860087010108031926
:100F88000800790886008701010886314D268731D7
:100F98000130F8007808F907BF2F8731F5272100BD
:100FA800150895159516200095011E140C30F300B0
:100FB80073089E047F30F30073089E059F010800A4
:100FC8007D302800960095010330F20072089704DE
:100FD8001708171520009310210093140B178B176F
:100FE80008000730F200720821008C040730F20074
:080FF800720823008C040800BC
:101F4A008431B7248F3184316324080022008C1530
:101F5A0075088531A1250800640080010131890BCB
:101F6A00B22F00342000111C08002100111C0800A7
:101F7A002000111008002100931CC92F2000931C77
:101F8A00C92F931001300800003008001230F20007
:101F9A00720821008D04ED30F200720823008D05CD
:101FAA0008002430F200720821008D04DB30F200B0
:101FBA00720823008D05080022008C11013085313A
:101FCA00A1258F311530F500C630890BEA2FF50BA4
:101FDA00EA2F0032080058302000DC005C08DD00DF
:101FEA005708A7005608A6005D30DC005C08A80068
:061FFA00803144200800C4
:020000040001F9
:04000E00C4CFFFDD7F
:00000001FF
