:08000000803102288731F82F3E
:1007A80020000C16730884319724080020000C12CE
:1007B80001308431972483311530F300C630890B1A
:1007C800E32BF30BE32B0032080052302000D60055
:1007D8005608D7005108A1005008A0005730D6008D
:1007E8005608A2008531CE250800F7007708860054
:1007F80087010108031908007708860087010108A6
:1008080084316A2483310130F6007608F707FA2B21
:10081800F3302100990007308C00073023008C004A
:10082800403021008D0023008D01083022009D00FA
:100838009E0120008C018D010800F50020000C129B
:100848007308F4000530F435FF3E031D272C74357A
:10085800750480388431972484316A30890B322CAE
:100868000032080084310C248431853165258431B7
:10087800D4302000DA000330DB00F301003084318B
:100888002124843100302000D0008830D100833109
:10089800E92380310228F401F501701C572C7208F5
:1008A800F4077308F53D0130F235F30D890B582C28
:1008B8000130F136F00C890B5D2C70087104031DB2
:1008C800512C7508F1007408F0000800F5000A3092
:1008D8007506031D792C2730F4007408F3002000F6
:1008E8005B088A005A080A00843120005C08031952
:1008F800892C7508F4005C0886008701740881005B
:100908000130F4007408DC0708005A085B04031976
:1009180008007508F4007408F3005B088A005A0898
:100928000A0084310800F200D530890B992C0000A8
:100938007208F00004300310F01B0314F00C890B4C
:100948009F2C03307005F100720E0F398919F038A9
:100958000C390907710420008D008C150032003213
:100968000032003220008C11003200320032003296
:1009780003307205F00072080C3909077004200072
:100988008D008C15003200320032003220008C11AC
:100998000032003200320032080073087204710419
:1009A800700403190A2DF901F90AF31BE72C013029
:1009B800F035F10DF20DF30D890BDC2C0130F80048
:1009C8007808F907D92C73087702031DF52C7208EB
:1009D8007602031DF52C71087502031DF52C7008AD
:1009E8007402031CFF2C7008F4027108F53B7208AE
:1009F800F63B7308F73B0130F336F20CF10CF00CC0
:100A0800890B002D0130F902031DE72C7708F3004C
:100A18007608F2007508F1007408F000080000304C
:100A2800FC000030FB000030FA000030F9007308C9
:100A380072047104700403195C2DFD01FD0AF31B97
:100A4800312D0130F035F10DF20DF30D890B262D06
:100A58000130F8007808FD07232D0130F935FA0D2B
:100A6800FB0DFC0D890B322D73087702031D462DF3
:100A780072087602031D462D71087502031D462D66
:100A880070087402031C512D7008F4027108F53BBC
:100A98007208F63B7308F73B79140130F336F20C11
:100AA800F10CF00C890B522D0130FD02031D312D84
:100AB8007C08F3007B08F2007A08F1007908F0005E
:100AC800080020000C128C110230F5003830F400B8
:100AD800AD30890B6D2DF40B6D2DF50B6D2D0000D0
:100AE800033020008D008C150032003200320032B5
:100AF80020008C1100320032003200323430F40011
:100B0800F230890B852DF40B852D20008C150032D1
:100B180000320032003220008C11003200320032E4
:100B280000320530F4002630890B982DF40B982DEF
:100B3800003220008C1500320032003200322000D2
:100B48008C1100320032003200320530F4002630B9
:100B5800890BAC2DF40BAC2D0032023020008D0037
:100B68008C15003200320032003220008C11003225
:100B780000320032003228308431972485310C301D
:100B88008431972485318331DA23853106308431E5
:100B98009724080020002008840021088500000808
:100BA800A3002308CF000130A0070030A13D4F0863
:100BB8000319080025304F060319E72D4F08843123
:100BC8006A248531CE2D2000CA01CB01200884007B
:100BD800210885000008A3002308CF000130A007E2
:100BE8000030A13D30304F06031DFC2D0130012E91
:100BF8002D304F06031D102E0230CA000030CB00E6
:100C080020088400210885000008A3002308CF00DD
:100C18000130A0070030A13DC201C3013A2E4F08A0
:100C2800A300A4014308F1004208F0000A30F200D2
:100C38000030F30084314F248531200023087007E9
:100C4800A5002408713DA6002508D03EC200FF304B
:100C5800263DC30020088400210885000008A30061
:100C68002308CF000130A0070030A13D30304F02EB
:100C7800031C422E3A304F02031C132E6C304F06D1
:100C880003194A2E4C304F06031D572E4A152008CB
:100C98008400210885000008A3002308CF00013044
:100CA800A0070030A13D4F08031908004F08A30012
:100CB8002308CE0061304E02031CCD2E2030CE0218
:100CC800CD2E220886008701403F84008501810AD5
:100CD8000008A3002308BF00C401C50144083F075A
:100CE800A30023088600870101080319842E013018
:100CF800C4070030C53D722E203084316A24853106
:100D08002000CA18962E4508A4004408A300C40A67
:100D18000319C50A43082402031D942E420823021E
:100D2800031C802E3F088331F923853120004508B4
:100D3800A4004408A300C40A0319C50A43082402EE
:100D4800031DA82E420823020318CE2D203084311B
:100D58006A2485319A2E22088600870101088400BA
:100D6800850102308107000884316A248531CE2D3F
:100D780002302000C42E0830C42E0A30C42E103091
:100D8800C0000030C100E52E4F0884316A24853147
:100D9800CE2D20004E08423A0319BC2E013A031901
:100DA800AF2E073A0319C12E0B3A0319BF2E1C3A6E
:100DB8000319652E063A0319C12E0D3A0319C32EDD
:100DC800C82E20004A191D2F44304E060319FF2E45
:100DD8002208860087010108840085010230810706
:100DE800003FA300013FA4002308B7002408B8006F
:100DF800B901BA01142F220886008701010884006E
:100E0800850102308107003FA300013FA4002308A9
:100E1800B7002408B800890D893B8909B900BA00D0
:100E28003A08C9003908C8003808C7003708C6009A
:100E38002D2F2208860087010108840085010430CF
:100E48008107003FC600013FC700023FC800033FBB
:100E5800C90044304E060319C91F3E2FC609C709E9
:100E6800C809C909C60A0319C70A0319C80A031910
:100E7800C90ACA15CC01CD014008F0004108F100AB
:100E8800F201F3014908F7004808F6004708F500A1
:100E98004608F4008431D124853170082000A3006D
:100EA8002308CE004008F0004108F100F201F301E8
:100EB8004908F7004808F6004708F5004608F40016
:100EC80085311325853173082000C9007208C800D0
:100ED8007108C7007008C6000A304E02031C822F32
:100EE80078304F0603197A2F07307B2F2730BB0045
:100EF8000030BC003B08A3002308CE074E08303E54
:100F0800A3004C08273E8600870123088100013092
:100F1800CC070030CD3D490848044704460403196E
:100F28009C2F00304D02103003194C02031C402F37
:100F3800CA1DAA2F2D30A3004C08273E8600870122
:100F4800230881000130CC070030CD3D4D08C50095
:100F58004C08C4004A18B22F2030B32F3030BD00DF
:100F68000030BE003D08A3002308CE00BF2F4E0866
:100F780084316A2485312000CA18D12F4508A4007D
:100F88004408A300C40A0319C50A43082402031D20
:100F9800CF2F42082302031CBB2F0130CC020030A4
:100FA800CD3B4C08273E86008701010884316A241E
:100FB800853120004C084D040319E72FD12F20302C
:100FC80084316A24853120004508A4004408A30020
:100FD800C40A0319C50A43082402031DF52F420851
:100FE80023020318CE2DE32FD801D901DA01DB0142
:100FF800DC0120008431362C483465346C346C3480
:101008006F347734203457346F3472346C3464342A
:1010180000342534303438346C34583420340034B7
:1010280020342534303438344C34583400342034A7
:1010380025343034323458340034203425343034B4
:0A1048003434583400340D34003401
:020000040001F9
:04000E00DCCFFFDD67
:00000001FF
