:0400000080313128F2
:100008007E14803120007F08C7008F31332780316C
:10001800003A031912288F31152780318131F421D4
:100028008031003A03191B28403022008C068731A2
:10003800F4278031003A03192A288F31A22780310A
:100048008731562780318F31EA2780318E31FA2661
:1000580020004708FF007E10090080313328203037
:1000680084000030850027308F3106278031A0308A
:1000780084000030850026308F3106277E1020004E
:100088008331232B58302000DE005E08E300200077
:100098005708DF005608DE00D60A0319D70A5E089B
:1000A80084005F0885000008E0006008E90069082E
:1000B80003190800253069060319672869088F3174
:1000C8000C2780314B282000E701E801E20156089F
:1000D80084005708850000088F3173278031031C7E
:1000E800AD282000E701E8010A302000C8000030F0
:1000F800C9006808CB006708CA008731BC2780316F
:1001080020004908E8004808E70056088400570816
:1001180085000008D03EDE00FF3003180030DF0005
:100128005E08E7075F08E83D0130D6070030D73D95
:10013800560884005708850000088F3173278031DE
:10014800031CAD287828C0302000DE005E08E204D9
:10015800C22820005708DF005608DE00D60A031917
:10016800D70A5E0884005F0885000008E900003AA5
:1001780003195B29753A0319A7284B2863088600D9
:100188008701403FE400413FE5000230DE005E08A1
:10019800E307E901E90A053069060319F228690845
:1001A800DE00DF01DE35DF0D53305E078400863068
:1001B8005F3D8500003FE000013FE1006108650206
:1001C800031DE82860086402031CF2280130DE00E1
:1001D8005E08E90705306906031DD3286908DE00B3
:1001E800DF01DE1BDF035F08803AE0006808803A21
:1001F8006002031D012967085E0203180E2920000A
:100208006908DE00DF01DE1BDF035E08E7025F0826
:10021800E83B11292000E701E80167086804031991
:10022800222920308F310C278031FF302000E7074A
:10023800FF30E83D67086804031D15296908DE00DA
:100248005E08E600FF302000DE005E08E607660A6A
:1002580003194B280A30D0000030D1006608DE00B0
:10026800DF01DE35DF0D53305E07840086305F3DE9
:100278008500003FC800013FC9006508CB0064083D
:10028800CA0086311E26803120004908D30048085C
:10029800D20086318426803120005008303EE000AC
:1002A8006008E90069088F310C2780312629080089
:1002B8002000CC00CF01E829053024001C052000CF
:1002C800CA0024001E081F3920004A04031D6029A3
:1002D80024001E14053024001C052000CA00240038
:1002E8001E081F3920004A04031D6E294C352400BE
:1002F80099001C197D2900301E1B01302000CF00F9
:100308004F08031DB429CD018D290130CA004A08C0
:10031800CD0749084D020318B429053024001C05EF
:100328002000CA0024001E081F3920004A04031DAB
:1003380091294D084807CA004A0886008701010824
:10034800240099001C19A62900301E1B013020002A
:10035800CF004F08031989290230CA004A08CF0084
:10036800053024001C052000CA0024001E081F397F
:1003780020004A04031DB42924001E15F129240075
:100388009C1D1C1EE5292000CE0149084E020318B9
:10039800E0294E084807CA004A0886008701010874
:1003A800CB004E08A03E860087014B088100013033
:1003B800CA004A08CE07C9294908CA004A08CF0016
:1003C800F1292000CF01F12921003208003A031950
:1003D8006029013A0319C329F12920004F080800B0
:1003E80020003108031D012A3008031D012A51305D
:1003F8002E02C3302F3B031C112A40081706031D89
:10040800072A3F081606031D112A0030A7000030EE
:10041800A6000030A5000030A4001708C000160888
:10042800BF000130B2070030B33D133033028930CA
:1004380003193202031C482A2D082C042B042A0411
:100448000319482AB201B3010A30203E8600870109
:10045800403FF000413FF100423FF200433FF300CC
:100468000430203E86008701403FF400413FF500FC
:10047800423FF600433FF7008431C32481317108BD
:100488002000A9007008A800111C8A2A2100111C4C
:100498008A2A0A302000A0070030A13D0030A23D82
:1004A8000030A33D3108F3003008F2002F08F100B6
:1004B8002E08F0000030F7000130F600D430F500C7
:1004C800C030F4008431C32470082000A4077108E8
:1004D800A53D7208A63D7308A73D0130AA07003064
:1004E800AB3D0030AC3D0030AD3D0030B1000030D8
:1004F800B0000030AF000030AE001810FF30970099
:10050800F53096001814111001300800003008006A
:100518002000CC00172B0530240014052000CA0049
:10052800240016081F3920004A04031D8F2A2400BE
:1005380016140530240014052000CA0024001608EB
:100548001F3920004A04031D9D2A4C3524009100C0
:100558001419AC2A0030161B01302000CF004F08B8
:10056800031DE32ACD01BC2A0130CA004A08CD0781
:1005780049084D020318E32A053024001405200019
:10058800CA00240016081F3920004A04031DC02A87
:100598004D084807CA004A08860087010108240058
:1005A80091001419D52A0030161B01302000CF0005
:1005B8004F080319B82A0230CA004A08CF0005308C
:1005C800240014052000CA00240016081F39200042
:1005D8004A04031DE32A24001615202B2400941D29
:1005E800141E142B2000CE0149084E0203180F2BAD
:1005F8004E084807CA004A08860087010108CB0050
:100608004E08B33E860087014B0881000130CA00BE
:100618004A08CE07F82A4908CA004A08CF00202B02
:100628002000CF01202B21004508003A03198F2A0A
:10063800013A0319F22A202B20004F0808008F31B5
:10064800B327833122000C1787312E27833183315A
:10065800AC23833187317B2783318F31D72783318F
:100668008F31652783318F31C427833187319C27A8
:1006780083318E31F52683312000BE010230853169
:1006880015258331003A0319532B033020003E020D
:100698000318532B0130EA006A08BE07602B0130AB
:1006A800853115258331003A0319602B20003E0857
:1006B8000319602B0130BE028F31822783319C2BB6
:1006C80072302000D6008630D7008F310027833162
:1006D80020004908D9004808D8008F311F278331E6
:1006E80020004B08DD004A08DC004908DB00480808
:1006F800DA00803146208331422B5D302000D6005D
:100708008630D700803146208331422B7C30200050
:10071800D6008630D700803146208331422B68309E
:100728002000D6008630D700803146208331422B06
:1007380020003E08003A0319642B013A0319812B63
:10074800033A03198A2B013A0319932B422B422BA4
:1007580022008C110C1202302000CD003830CC0061
:10076800AD30890BB52BCC0BB52BCD0BB52B03308E
:1007780020008D0022000C160032003200320032B8
:1007880022000C12003200320032003234302000D5
:10079800CC00F130890BCE2BCC0BCE2B00322200B3
:1007A8000C16003200320032003222000C120032E5
:1007B80000320032003205302000CC002630890B90
:1007C800E32BCC0BE32B000022000C160032003286
:1007D8000032003222000C120032003200320032A5
:1007E80005302000CC002630890BF82BCC0BF82BD9
:1007F8000000023020008D0022000C16003200326A
:100808000032003222000C12003200320032003274
:1008180028308531E12583310C308531E12583315C
:100828008F319227833106308531E1250800200079
:10083800141C672C2100141C672C24009C1E3E2CC1
:100848001C1D312C1E1B652C1C080139F0001D0EC7
:1008580001397004031D282C512C1908F0002100BF
:10086800310886008701700881000130F0007008A7
:10087800B107632C9C1A652C19081C1D5E2CA0302E
:10088800F00070082100B00024001C080139F000B5
:100898001D0E01397004031D482C21003008860004
:1008A80087010108240099000130F0007008210038
:1008B800B007632CA830F00070082100B1002400B4
:1008C8001D16200014102100941C08002000941C00
:1008D8000800941008002000911DBB2C2100911DD8
:1008E800BB2C2400941E922C141D852C161BB92C8D
:1008F80014080139F000150E01397004031D7C2C11
:10090800A52C1108F0002100440886008701700812
:1009180081000130F0007008C407B72C941AB92C74
:100928001108141DB22CB330F00070082100C30068
:10093800240014080139F000150E01397004031D54
:100948009C2C21004308860087010108240091009F
:100958000130F00070082100C307B72CBB30F0004D
:1009680070082100C40024001516200091112100F0
:10097800921D08002000921D080092110800003006
:10098800FC000030FB000030FA000030F90073086A
:1009980072047104700403190C2DFD01FD0AF31B88
:1009A800E12C0130F035F10DF20DF30D890BD62C49
:1009B8000130F8007808FD07D32C0130F935FA0D1D
:1009C800FB0DFC0D890BE22C73087702031DF62C36
:1009D80072087602031DF62C71087502031DF62CA9
:1009E80070087402031C012D7008F4027108F53BAD
:1009F8007208F63B7308F73B79140130F336F20CB2
:100A0800F10CF00C890B022D0130FD02031DE12CC5
:100A18007C08F3007B08F2007A08F1007908F000FE
:100A280008002000CF0003304F02031C1D2D0030AA
:100A380008004F08373E860087010108CA00CB012D
:100A4800CA09CB09CA0A0319CB0A4F083A3E8600DD
:100A5800870101084A07CC004B0803184B0ACD0050
:100A68004D08803ACE0080304E02031D3D2DC9301E
:100A78004C02031C572D20004F08343E8600870186
:100A88000108031D572D6430CA004F08343E860004
:100A980087014A0881006430C8000030C9008F31DE
:100AA800292701300800003008002000CC008F31D1
:100AB8004B27853120004908CB004B082100B200A4
:100AC8008D2D24009D1520004A08031D6F2D24003C
:100AD8009C174F30792D20004A03031D7A2D7F3053
:100AE800CB004B0824009C0513309A0024008B2D62
:100AF80024009C0106302000CB004B0824009D04F4
:100B08001E1420004C3524009A00FE309B009D16D0
:100B1800962D20004908003A0319652D013A03195A
:100B28007C2D962D21001414941420001410941078
:100B380008002000CC008F313E278531200049086D
:100B4800CB004B082100C500D12D240095152000AD
:100B58004A08031DB32D240094174F30BD2D2000E3
:100B68004A03031DBE2D7F30CB004B08240094059B
:100B7800133092002400CF2D240094010630200069
:100B8800CB004B0824009504161420004C35240093
:100B98009200FE3093009516DA2D20004908003A9D
:100BA8000319A92D013A0319C02DDA2D2100911539
:100BB800921520009111921108002000CA00D5302A
:100BC800890BE42D000020004A08C80004300310F7
:100BD800C81B0314C80C890BEB2D03304805C9004A
:100BE8004A0E0F398919F0380C39090749048D0064
:100BF80022000C16003200320032003222000C12A1
:100C08000032003200320032033020004A05C800AA
:100C18004A080C39090748048D0022000C160032D6
:100C280000320032003222000C1200320032003250
:100C3800003208002000CD01CE01480849040319FC
:100C48004E2ECF01CF0AC91B332E0130C835C90D2E
:100C5800890B2A2E0130CC004C08CF07272E0130F3
:100C6800CD35CE0D890B342E49084B02031D3E2E7F
:100C780048084A02031C452E4808CA024908CB3BCB
:100C88004D140130C936C80C890B462E0130CF02ED
:100C9800031D332E4E08C9004D08C8000800013452
:100CA80000340A34003464340034E8340334103433
:100CB8002734533445344C3445344334543446345F
:100CC80055344E344334003450344D345434443461
:100CD80045345634493443344534003425343534A6
:100CE80075346C3420342534373475346C3400341E
:100CF800413444344A344734413449344E3400345E
:100D08002000500851040319AC2ED501D50AD11B77
:100D1800972E0130D035D10D890B8E2E0130D4009D
:100D28005408D5078B2E51085302031D9D2E5008D9
:100D38005202031CA32E5008D2025108D33B0130A3
:100D4800D136D00C890BA42E0130D502031D972E65
:100D58005308D1005208D00008002000D600D22E37
:100D68005108D3005308C8005208D4005408C900D9
:100D7800500882318C228631CD2E5108D300530879
:100D8800C8005208D4005408C900500881315C21B9
:100D980086312000D5005508D700DA2E5608003ACB
:100DA8000319B42E013A0319C12EDA2E5708080088
:100DB8002000D200FA2E4E08D0005008C9004F0873
:100DC800D1005108CA004D0885319D258631032F71
:100DD80020004E08D0005008C9004F08D100510823
:100DE800CA004D08853159258631032F2000520845
:100DF800003A0319DF2E013A0319EC2E032F0B17C3
:100E08008B17080020001810FF309700F530960067
:100E180018140030A3000030A2000030A1000030F8
:100E2800A0000030A7000030A6000030A500003068
:100E3800A4000030AD000030AC000030AB00003042
:100E4800AA000030B1000030B0000030AF00003020
:100E5800AE0008007F302000C800480821008C053B
:100E68007F302000C800480823008C0522009D150B
:100E780020001C089C141C159A01FF309B003F3071
:100E8800C800480825009A050C302000C80048080A
:100E980025009A04F3302000C800480825009E0564
:100EA8009801080020004308373E860087010108A2
:100EB800F00043083A3E86008701700881007F30C1
:100EC800F00070089E051508F0004308373E8600BC
:100ED80087017008810095019E174308C30AF00036
:100EE800033070020318C30143089F000800210063
:100EF8000D17BF302000C800480823008D052400C6
:100F08000D1720001815F730C8004808980518086C
:100F1800981799011810FF309700F53096001814AB
:100F28001110210011140B178B172000181008003E
:100F38002000CD01CE01CF0101308631DC2687317A
:100F4800200046081F398038C6004610F930C6050B
:100F5800E730C6056030D8005808D0004630D900C0
:100F68005908D100D201D20A01308631B1260800D1
:100F78002000CC01CD01481CC52F4A08CC074B08DE
:100F8800CD3D0130CA35CB0D890BC62F0130C9368E
:100F9800C80C890BCB2F48084904031DBF2F4D08E7
:100FA800C9004C08C800080025001A08CF39F2000B
:100FB8007208F4007108F3007008F200F336F20CBE
:100FC800F336F20C7208980070080339F200033007
:100FD800F235FF3E031DEC2F723574049A000800A9
:100FE8002100931DFD2F2000931DFD2F931101302B
:060FF800080000300800B3
:101DEA008731062720001814080084316F248E31A9
:101DFA0084311B24080020002908C9002808C800CB
:101E0A000800640080010131890B072F003420008B
:101E1A00CB0022008C1520004B088531E1250800F3
:101E2A0001302000AE070030AF3D0030B03D003039
:101E3A00B13D080020002308CB002208CA0021086F
:101E4A00C9002008C8000800200041084204031DF8
:101E5A0008004908C2004808C10008002100931C74
:101E6A003C2F2000931C3C2F9310013008000030B7
:101E7A00080012302000C800480821008D04ED3007
:101E8A002000C800480823008D05080024302000DF
:101E9A00C800480821008D04DB302000C80048082B
:101EAA0023008D05080007302000C80048082100DB
:101EBA008C0407302000C800480823008C0408005E
:101ECA00643028009600950197141708171520000A
:101EDA009310210093140B178B1708002000C900D8
:101EEA00C8013A3049020318802F30304902031CD6
:101EFA00802FC801C80A480C080022008C11023041
:101F0A008531E1258F3115302000CB00C630890B91
:101F1A008C2FCB0B8C2F0000080022008C11013073
:101F2A008531E1258F3115302000CB00C630890B71
:101F3A009C2FCB0B9C2F00000800200034080319AB
:101F4A00A82F0130B40235080319AD2F0130B502AC
:101F5A003608031908000130B6020800F0302100E3
:101F6A0099008C0123008C0121008D0123008D0131
:101F7A0022009D019E0120008C018D0108007D3008
:101F8A0028009D009C0103302000C8004808280052
:101F9A009E041E081E1520009311210093150B178D
:101FAA008B1708008F3158272100150895159516AB
:101FBA00200095011E140C30C90049089E047F3088
:101FCA00C90049089E059F010800200041084204F3
:101FDA000319FA2F0130C1020030C23BFF30F00072
:101FEA000130F1008731D82708000030F000F100F5
:061FFA008731D827080022
:020000040001F9
:04000E00C4CFFFDD7F
:00000001FF
