:040000008031132810
:100008007E14803120007F08F10087315627803127
:1000180087316B2771082000FF007E1009008031AE
:100028001528FB015D308400003085000A308731D7
:100038005F278031A030840000308500263087316A
:100048005F277E10200086314B2E20002508840073
:10005800260885000008A8002808D4000130A50754
:100068000030A63D5408031908002530540603192A
:10007800422854088531A125803129282000CF0144
:10008800D00125088400260885000008A800280853
:10009800D4000130A5070030A63D30305406031DBA
:1000A800572801305C282D305406031D6B28023078
:1000B800CF000030D00025088400260885000008FD
:1000C800A8002808D4000130A5070030A63DC701C4
:1000D800C80195285408A800A9014808F300470852
:1000E800F2000A30F4000030F5008631B026803185
:1000F800200028087207AA002908733DAB002A08C7
:10010800D03EC700FF302B3DC800250884002608D4
:1001180085000008A8002808D4000130A507003091
:10012800A63D30305402031C9D283A305402031C6B
:100138006E286C3054060319A5284C305406031D4C
:10014800B2284F1525088400260885000008A80055
:100158002808D4000130A5070030A63D540803192B
:1001680008005408A8002808D30061305302031C73
:1001780028292030D3022829270886008701403FF4
:1001880084008501810A0008A8002808C400C90164
:10019800CA0149084407A800280886008701010801
:1001A8000319DF280130C9070030CA3DCD282030A7
:1001B8008531A12580312000CF18F1284A08A900EF
:1001C8004908A800C90A0319CA0A48082902031DD0
:1001D800EF2847082802031CDB28440887310E272C
:1001E800803120004A08A9004908A800C90A031953
:1001F800CA0A48082902031D0329470828020318C8
:10020800292820308531A1258031F5282708860046
:1002180087010108840085010230810700088531C3
:10022800A12580312928023020001F2908301F29E4
:100238000A301F291030C5000030C6004029540874
:100248008531A1258031292820005308423A031915
:100258001729013A03190A29073A03191C290B3AE5
:1002680003191A291C3A0319C028063A03191C292C
:100278000D3A03191E29232920004F1978294430E3
:10028800530603195A2927088600870101088400A4
:10029800850102308107003FA800013FA900280816
:1002A800BC002908BD00BE01BF016F2927088600D0
:1002B800870101088400850102308107003FA800FA
:1002C800013FA9002808BC002908BD00890D893B09
:1002D8008909BE00BF003F08CE003E08CD003D089A
:1002E800CC003C08CB008829270886008701010834
:1002F8008400850104308107003FCB00013FCC001A
:10030800023FCD00033FCE00443053060319CE1FF1
:100318009929CB09CC09CD09CE09CB0A0319CC0AF6
:100328000319CD0A0319CE0ACF15D101D201450808
:10033800F2004608F300F401F5014E08F9004D08F3
:10034800F8004C08F7004B08F6008431B4248031DB
:1003580072082000A8002808D3004508F2004608C3
:10036800F300F401F5014E08F9004D08F8004C08B7
:10037800F7004B08F60084316124803175082000AD
:10038800CE007408CD007308CC007208CB000A3088
:100398005302031CDD29783054060319D529073088
:1003A800D6292730C0000030C1004008A80028081E
:1003B800D3075308303EA80051082C3E8600870119
:1003C800280881000130D1070030D23D4E084D0485
:1003D8004C044B040319F72900305202103003195A
:1003E8005102031C9B29CF1D052A2D30A800510856
:1003F8002C3E86008701280881000130D107003093
:10040800D23D5208CA005108C9004F180D2A2030A1
:100418000E2A3030C2000030C3004208A800280865
:10042800D3001A2A53088531A12580312000CF181E
:100438002C2A4A08A9004908A800C90A0319CA0AA7
:1004480048082902031D2A2A47082802031C162ADD
:100458000130D1020030D23B51082C3E8600870182
:1004680001088531A1258031200051085204031963
:10047800422A2C2A20308531A125803120004A08C3
:10048800A9004908A800C90A0319CA0A4808290284
:10049800031D502A47082802031829283E2AF60077
:1004A800F901C72A053024001C05F4001E081F396D
:1004B8007404031D562A1E1405301C05F4001E087A
:1004C8001F397404031D602A763599001C196A2A9D
:1004D80000301E1B0130F9007908031D9A2AF70124
:1004E800792A0130F4007408F707730877020318B3
:1004F8009A2A05301C05F4001E081F397404031DD0
:100508007D2A77087207F4007408860087010108BD
:1005180099001C198D2A00301E1B0130F90079083A
:100528000319752A0230F4007408F90005301C0517
:10053800F4001E081F397404031D9A2A1E15D02AB8
:1005480024009C1D1C1EC52AF80173087802031894
:10055800C02A78087207F400740886008701010829
:10056800F5007808A03E86008701750881000130F3
:10057800F4007408F807A92A7308F4007408F9004D
:10058800D02AF901D02A21003208003A0319562A44
:10059800013A0319A42AD02A79080800F600452B45
:1005A800053024001405F40016081F397404031DCF
:1005B800D42A161405301405F40016081F397404DB
:1005C800031DDE2A763591001419E82A0030161B1F
:1005D8000130F9007908031D182BF701F72A0130BB
:1005E800F4007408F707730877020318182B05300E
:1005F8001405F40016081F397404031DFB2A770834
:100608007207F40074088600870101089100141924
:100618000B2B0030161B0130F90079080319F32A57
:100628000230F4007408F90005301405F4001608C7
:100638001F397404031D182B16154E2B2400941D06
:10064800141E432BF8017308780203183E2B780810
:100658007207F4007408860087010108F50078081D
:10066800B33E86008701750881000130F4007408E4
:10067800F807272B7308F4007408F9004E2BF901CA
:100688004E2B21004508003A0319D42A013A0319D0
:10069800222B4E2B7908080020000C128C110230F6
:1006A800F7003830F600AD30890B582BF60B582B75
:1006B800F70B582B0000033020008D008C150032FA
:1006C80000320032003220008C1100320032003239
:1006D80000323430F600F230890B702BF60B702B99
:1006E80020008C15003200320032003220008C11BC
:1006F80000320032003200320530F6002630890B15
:10070800832BF60B832B003220008C15003200322D
:100718000032003220008C110032003200320032E8
:100728000530F6002630890B972BF60B972B0032F5
:10073800023020008D008C15003200320032003269
:1007480020008C110032003200320032283084310F
:10075800F72483310C308431F724833187313127F2
:10076800833106308431F72408002000141C052C3E
:100778002100141C052C24009C1EDC2B1C1DCF2BD7
:100788001E1B032C1C080139F0001D0E01397004D2
:10079800031DC62BEF2B1908F00021003108860035
:1007A8008701700881000130F0007008B107012C42
:1007B8009C1A032C19081C1DFC2BA030F000700893
:1007C8002100B00024001C080139F0001D0E013979
:1007D8007004031DE62B21003008860087010108FC
:1007E800240099000130F00070082100B007012CA6
:1007F800A830F00070082100B10024001D16200068
:1008080014102100941C08002000941C0800941067
:1008180008002000911D592C2100911D592C2400FD
:10082800941E302C141D232C161B572C1408013928
:10083800F000150E01397004031D1A2C432C110801
:10084800F00021004408860087017008810001300B
:10085800F0007008C407552C941A572C1108141D61
:10086800502CB330F00070082100C3002400140895
:100878000139F000150E01397004031D3A2C2100CE
:100888004308860087010108240091000130F00028
:1008980070082100C307552CBB30F00070082100F8
:1008A800C40024001516200091112100921D080093
:1008B8002000921D08009211080000302000A300BB
:1008C8000030A2000030A1000030A00075087404B8
:1008D800730472040319AB2CA401A40AF51B802C21
:1008E8000130F235F30DF40DF50D890B752C01303F
:1008F800FA007A08A407722C0130A035A10DA20DC8
:10090800A30D890B812C75087902031D952C740899
:100918007802031D952C73087702031D952C720825
:100928007602031CA02C7208F6027308F73B7408C1
:10093800F83B7508F93B20140130F536F40CF30C3C
:10094800F20C890BA12C0130A402031D802C230872
:10095800F5002208F4002108F3002008F20008003E
:1009680075087404730472040319EE2C2000A001A6
:10097800A00AF51BCB2C0130F235F30DF40DF50D63
:10098800890BC02C0130FA007A08A007BD2C750825
:100998007902031DD92C74087802031DD92C730819
:1009A8007702031DD92C72087602031CE32C720807
:1009B800F6027308F73B7408F83B7508F93B0130F9
:1009C800F536F40CF30CF20C890BE42C0130A00280
:1009D800031DCB2C7908F5007808F4007708F3009C
:1009E8007608F2000800F400D530890BF92C0000D5
:1009F8007408F20004300310F21B0314F20C890B84
:100A0800FF2C03307205F300740E0F398919F03882
:100A18000C390907730420008D008C150032003250
:100A28000032003220008C110032003200320032D5
:100A380003307405F20074080C39090772042000A9
:100A48008D008C15003200320032003220008C11EB
:100A580000320032003200320800F60087314027A9
:100A680085317308F50075082100B2005A2D24005D
:100A78009D157408031D432D9C174F304B2D74038F
:100A8800031D582D7F30F50075089C0513309A001A
:100A9800582D24009C010630F50075089D041E148D
:100AA80076359A00FE309B009D16622D7308003A39
:100AB80003193B2D013A03194D2D622D2100141401
:100AC80094142000141094100800F60087314B2766
:100AD80085317308F50075082100C500922D2400A2
:100AE80095157408031D7B2D94174F30832D7403BF
:100AF800031D902D7F30F500750894051330920082
:100B0800902D240094010630F500750895041614FC
:100B180076359200FE30930095169A2D7308003AA8
:100B28000319732D013A0319852D9A2D210091156A
:100B380092152000911192110800F7000A307706EB
:100B4800031DB02D2030F6007608F500200063085C
:100B58008A0062080A0085317B080319BF2D7708CF
:100B6800F6007B0886008701760881000130F600D0
:100B78007608FB07080020006208630403190800D0
:100B88007708F6007608F50063088A0062080A000C
:100B9800853108002000A600EF2D2108A3002308B6
:100BA800F2002208A4002408F30020088231D2228F
:100BB8008531EA2D2108A3002308F2002208A400A9
:100BC8002408F30020088231532285312000A50033
:100BD8002508A700F72D2608003A0319D12D013A58
:100BE8000319DE2DF72D27080800483465346C34C6
:100BF8006C346F347734203457346F3472346C3437
:100C0800643400342534303438346C345834203467
:100C1800003420342534303438344C3458340034DB
:100C280020342534303432345834003420342534D8
:100C380030343434583400340D340034FA00402E43
:100C480078082000A0002008F3007908A1002108F6
:100C5800F4007708853169258631482E7808200008
:100C6800A0002008F3007908A1002108F400770803
:100C7800853131258631482E7A08003A0319242E09
:100C8800013A0319322E482E0B178B1708008631AC
:100C9800F926863183315023863165302000E20001
:100CA8000730E3008631CB268631200018148631C0
:100CB8006F268631863191268631F50100308631DE
:100CC800E4268631F9302000D5008530D6008731FA
:100CD80021278631612E7F30F200720821008C05B1
:100CE8007F30F200720823008C0522009D15200039
:100CF8001C089C141C159A01FF309B003F30F20021
:100D0800720825009A050C30F20072089A04F33034
:100D1800F20072089E0598010800F701F801F90130
:100D28000130863122268631200066081F39803836
:100D3800E6006610F930E605E730E6056030A80001
:100D48002808A0006630A9002908A100A201A20A6B
:100D580001308531CE250800F601F701721CB82E46
:100D68007408F6077508F73D0130F435F50D890B61
:100D7800B92E0130F336F20C890BBE2E72087304BB
:100D8800031DB22E7708F3007608F2000800210050
:100D98000D17BF30F200720823008D0520001815CA
:100DA800F730F2007208980518089817990196010B
:100DB800970121001114200011100B178B17080040
:100DC800F70020000C127508F6000530F635FF3ED6
:100DD800031DEA2E7635770480388431F72486316E
:100DE8006A30890BF52E00320800F0302100990096
:100DF80007308C00073023008C00403021008D0024
:100E080023008D01083022009D009E0120008C01E6
:100E18008D010800F9007908860087010108031987
:100E2800080079088600870101088531A1258731E6
:100E38000130F8007808F9070F2F57302000DB0041
:100E48005B08DC005608A6005508A5005C30DB00EE
:100E58005B08A70080312920080020000C1201300F
:100E68008431F72487311530F500C630890B3A2FC5
:100E7800F50B3A2F003208002430F20072082100E6
:100E88008D04DB30F200720823008D050800123053
:100E9800F200720821008D04ED30F2007208230080
:100EA8008D0508002000111C08002100111C0800F5
:100EB800200011100800640080010131890B602FA7
:100EC800003420000C1675088431F724080084319A
:0A0ED8000D2487318331B92308008F
:020000040001F9
:04000E00C4CFFFDD7F
:00000001FF
