:08000000803102288731FD2F39
:100DD800F30020008C15730887315A27080020007B
:100DE8008C11013087315A2786311530F300C6300F
:100DF800890BFC2EF30BFC2E0032080087311527D7
:100E08008731873194278731F301003087312A27CA
:100E180087310030F4008830F50087313F2787316B
:100E2800082FF0302100990007308C00073023008C
:100E38008C00403021008D0023008D0108302200F5
:100E48009D009E0120008C018D010800F500200006
:100E58008C117308F4000530F435FF3E031D302F64
:100E680074357504803887315A2787316A30890B81
:100E78003B2F003208007630F6007608F900750836
:100E8800F7007408F600F40A0319F50A76088400D6
:100E9800770885000008F8007808FA007A0803192E
:100EA80008007A088631EC268731432FF200D530C6
:100EB800890B5C2F00007208F00004300310F01B4F
:100EC8000314F00C890B622F03307005F100720EC9
:100ED8000F398919F0380C390907710420008D0081
:100EE8000C16003200320032003220000C120032A0
:100EF80000320032003203307205F00072080C39FB
:100F08000907700420008D000C16003200320032F0
:100F1800003220000C120032003200320032080089
:100F280020008C110C120230F5003830F400AD307E
:100F3800890B9C2FF40B9C2FF50B9C2F0000033082
:100F480020008D000C1600320032003200322000E2
:100F58000C1200320032003200323430F400F23029
:100F6800890BB42FF40BB42F20000C16003200327A
:100F78000032003220000C120032003200320032FF
:100F88000530F4002630890BC72FF40BC72F003229
:100F980020000C16003200320032003220000C1201
:100FA80000320032003200320530F4002630890B5E
:100FB800DB2FF40BDB2F0032023020008D000C16E3
:100FC800003200320032003220000C1200320032AF
:100FD80000320032283087315A2787310C30873168
:100FE8005A2787318631F3268731063087315A27C9
:100FF800080020008731022F483465346C346C3483
:101008006F347734203457346F3472346C3464342A
:021018000034A2
:020000040001F9
:04000E00C4CFFFDD7F
:00000001FF
