:0400000080310D2816
:100008007E14803120007F08F0007008FF007E1009
:10001800090080310F28FC01DC01DD01DE01DF0170
:10002800E001E101E201E301E401E501E601E701A4
:100038007E1020008331AF2B20002508840026087D
:1000480085000008A8002808D4000130A507003062
:10005800A63D540803190800253054060319392809
:10006800540883318223803120282000CF01D00119
:1000780025088400260885000008A8002808D40060
:100088000130A5070030A63D30305406031D4E2828
:10009800013053282D305406031D62280230CF004A
:1000A8000030D00025088400260885000008A80034
:1000B8002808D4000130A5070030A63DC701C801B3
:1000C8008C285408A800A9014808F2004708F10044
:1000D8000A30F3000030F40084310D248031200010
:1000E80028087107AA002908723DAB002A08D03EEB
:1000F800C700FF302B3DC80025088400260885006E
:100108000008A8002808D4000130A5070030A63D43
:1001180030305402031C94283A305402031C6528DA
:100128006C30540603199C284C305406031DA9282A
:100138004F1525088400260885000008A80028080F
:10014800D4000130A5070030A63D54080319080063
:100158005408A8002808D30061305302031C1F2943
:100168002030D3021F29270886008701403F8400DA
:100178008501810A0008A8002808C400C901CA012D
:1001880049084407A80028088600870101080319C0
:10019800D6280130C9070030CA3DC4282030833131
:1001A800822380312000CF18E8284A08A90049088E
:1001B800A800C90A0319CA0A48082902031DE62823
:1001C80047082802031CD22844088431522480316D
:1001D80020004A08A9004908A800C90A0319CA0A40
:1001E80048082902031DFA2847082802031820286E
:1001F8002030833182238031EC282708860087014C
:1002080001088400850102308107000883318223B8
:1002180080312028023020001629083016290A309B
:1002280016291030C5000030C6003729540883311C
:1002380082238031202820005308423A03190E29CE
:10024800013A03190129073A031913290B3A03192B
:1002580011291C3A0319B728063A031913290D3A2C
:10026800031915291A2920004F196F2944305306FC
:100278000319512927088600870101088400850190
:1002880002308107003FA800013FA9002808BC00F0
:100298002908BD00BE01BF0166292708860087011D
:1002A80001088400850102308107003FA800013F52
:1002B800A9002808BC002908BD00890D893B8909C7
:1002C800BE00BF003F08CE003E08CD003D08CC0070
:1002D8003C08CB007F292708860087010108840095
:1002E800850104308107003FCB00013FCC00023F6D
:1002F800CD00033FCE00443053060319CE1F90298A
:10030800CB09CC09CD09CE09CB0A0319CC0A0319AC
:10031800CD0A0319CE0ACF15D101D2014508F10043
:100328004608F200F301F4014E08F8004D08F70002
:100338004C08F6004B08F50083310623803171081C
:100348002000A8002808D3004508F1004608F2005C
:10035800F301F4014E08F8004D08F7004C08F600C8
:100368004B08F5008231B322803174082000CE009A
:100378007308CD007208CC007108CB000A30530214
:10038800031CD429783054060319CC290730CD2909
:100398002730C0000030C1004008A8002808D30753
:1003A8005308303EA80051082C3E860087012808D3
:1003B80081000130D1070030D23D4E084D044C0475
:1003C8004B040319EE290030520210300319510270
:1003D800031C9229CF1DFC292D30A80051082C3E62
:1003E80086008701280881000130D1070030D23DFE
:1003F8005208CA005108C9004F18042A2030052A9B
:100408003030C2000030C3004208A8002808D300DA
:10041800112A53088331822380312000CF18232AE0
:100428004A08A9004908A800C90A0319CA0A4808BD
:100438002902031D212A47082802031C0D2A01301E
:10044800D1020030D23B51082C3E860087010108BA
:100458008331822380312000510852040319392A3C
:10046800232A203083318223803120004A08A900C2
:100478004908A800C90A0319CA0A48082902031D1D
:10048800472A4708280203182028352A20008C11FB
:100498000C120230F6003830F500AD30890B522AC4
:1004A800F50B522AF60B522A0000033020008D006B
:1004B8000C16003200320032003220000C120032DA
:1004C8000032003200323430F500F230890B6A2AEB
:1004D800F50B6A2A20000C16003200320032003276
:1004E80020000C1200320032003200320530F500D4
:1004F8002630890B7D2AF50B7D2A003220000C1648
:10050800003200320032003220000C120032003279
:10051800003200320530F5002630890B912AF50BA0
:10052800912A0032023020008D000C160032003271
:100538000032003220000C12003200320032003249
:1005480028308331482382310C308331482382316B
:100558008431752482310630833148230800003005
:100568002000A3000030A2000030A1000030A0004D
:1005780074087304720471040319FD2AA401A40AFF
:10058800F41BD22A0130F135F20DF30DF40D890B6D
:10059800C72A0130F9007908A407C42A0130A03518
:1005A800A10DA20DA30D890BD32A74087802031D8F
:1005B800E72A73087702031DE72A72087602031DEB
:1005C800E72A71087502031CF22A7108F5027208FD
:1005D800F63B7308F73B7408F83B20140130F436F7
:1005E800F30CF20CF10C890BF32A0130A402031D61
:1005F800D22A2308F4002208F3002108F200200878
:10060800F1000800740873047204710403193F2B85
:10061800FA01FA0AF41B1C2B0130F135F20DF30D27
:10062800F40D890B112B0130F9007908FA070E2B0C
:1006380074087802031D2A2B73087702031D2A2BDE
:1006480072087602031D2A2B71087502031C342BCD
:100658007108F5027208F63B7308F73B7408F83B1B
:100668000130F436F30CF20CF10C890B352B013008
:10067800FA02031D1C2B7808F4007708F3007608AB
:10068800F2007508F1000800F300D530890B4A2BF9
:1006980000007308F10004300310F11B0314F10C7F
:1006A800890B502B03307105F200730E0F3989192D
:1006B800F0380C390907720420008D000C1600323E
:1006C80000320032003220000C12003200320032B8
:1006D800003203307305F10073080C3909077104FF
:1006E80020008D000C16003200320032003220004B
:1006F8000C1200320032003200320800F6000A30D4
:100708007606031D912BEF30F5007508F4002000E4
:1007180063088A0062080A0083317C080319A02B49
:100728007608F5007C08860087017508810001308D
:10073800F5007508FC070800200062086304031927
:1007480008007608F5007508F40063088A00620856
:100758000A008331080084313D2483318331F12339
:1007680083312000181482314A22833184302000DA
:10077800E2000430E300F40100308431282483319E
:10078800EB302000D5008330D6001708D8001608B3
:10079800D700843165248331BF2B25343034383475
:1007A8006C34583420340034203425343034383410
:1007B8004C345834003420342534303432345834EE
:1007C800003420342534303434345834003425345B
:1007D8005534203400340D34003421000D17BF3057
:1007E800F100710823008D0520001815F730F1007D
:1007F80071089805180898179901FF3097009B30E1
:100808009600E601E7011110210011140B178B1750
:100818000800F501F601711C152C7308F50774081A
:10082800F63D0130F335F40D890B162C0130F23604
:10083800F10C890B1B2C71087204031D0F2C760810
:10084800F2007508F1000800F60020008C11740809
:10085800F5000530F535FF3E031D2E2C7535760461
:1008680080388331482384316A30890B392C00322F
:100878000800F0302100990007308C000730230071
:100888008C00403021008D0023008D0108302200AB
:100898009D009E0120008C018D010800F800780859
:1008A8008600870101080319080078088600870177
:1008B80001088331822384310130F7007708F80773
:1008C800532C5730FB007B082000DB005608A6009D
:1008D8005508A5005B30FB007B08A700803120206D
:1008E800080020008C1101308331482384311530F1
:1008F800F400C630890B7E2CF40B7E2C00320800E5
:0C09080020008C1574088331482308007F
:020000040001F9
:04000E00C4CFFFDD7F
:00000001FF
