<<<<<<< HEAD
:040000008031102813
:100008007E14803120007F08F0008231BA22700807
:100018002000FF007E10090080311228FC0120001A
:10002800C501C601C701C8017E10200081315329CE
:100038002000B3002630AA002A08AE002508AB002D
:100048002408AA00A40A0319A50A2A0884002B0870
:1000580085000008AC002C08B40034080319E52812
:1000680025303406031944283408AA0033088600CA
:1000780087012A0881000130AA002A08B30722282C
:10008800AF012508AB002408AA00A40A0319A50A91
:100098002A0884002B0885000008B400003A0319D8
:1000A800E528643A03195C280D3A03195C282228CC
:1000B8002E0886008701403FB100413FB200023060
:1000C800AA002A08AE07B21F72280330AA002A081D
:1000D800AF04B109B209B10A0319B20AB401B40AEA
:1000E80005303406031997283408AA00AB01AA354D
:1000F800AB0D3C302A07840082302B3D8500003F41
:10010800AC00013FAD002D083202031D8D282C08DC
:100118003102031C97280130AA002A08B4070530C9
:100128003406031D78282F0803390319A6282D3013
:10013800AA003308860087012A0881000130AA0036
:100148002A08B3073408AA002A08B000FF30AA001A
:100158002A08B007300A031922280A30A000003004
:10016800A1003008AA00AB01AA35AB0D3C302A0724
:10017800840082302B3D8500003FF100013FF200F2
:100188003208F4003108F3008131DB218031720834
:100198002000A3007108A20082310F2280312000C4
:1001A8002008303EAC002C08B4003408AA003308FC
:1001B800860087012A0881000130AA002A08B307AF
:1001C800AA283308860087018101080020000C1244
:1001D8008C110230F6003830F500AD30890BF2286A
:1001E800F50BF228F60BF2280000033020008D00F2
:1001F8008C15003200320032003220008C1100329F
:100208000032003200323430F500F230890B0A290E
:10021800F50B0A2920008C1500320032003200321A
:1002280020008C1100320032003200320530F50017
:100238002630890B1D29F50B1D29003220008C154D
:10024800003200320032003220008C1100320032BD
:10025800003200320530F5002630890B3129F50BC4
:1002680031290032023020008D008C150032003216
:100278000032003220008C1100320032003200328D
:1002880028308131A12180310C308131A121803188
:100298008231AB22803106308131A12108008231C0
:1002A800962281318231682281318031EA20813180
:1002B800C3302000C7000230C800BF01C001F430BD
:1002C800C1000130C200C301C401F401F40A0030C6
:1002D80082318122813160302000A4008230A50063
:1002E8004208A7004108A6004008A9003F08A80046
:1002F800353080311C20813101302000BF070030AB
:10030800C03D0130C1070030C23D4308353E86007C
:1003180087010108031967294308353E86008701CC
:100328000108FB007B08F4008231C32281310130CF
:100338002000C3070030C43D8929F300D530890B5C
:10034800A32900007308F10004300310F11B031403
:10035800F10C890BA92903307105F200730E0F39CE
:100368008919F0380C390907720420008D008C15A2
:10037800003200320032003220008C11003200328C
:100388000032003203307305F10073080C39090795
:10039800710420008D008C150032003200320032CA
:1003A80020008C1100320032003200320800F601C1
:1003B800F7017108720403190A2AF801F80AF21BF6
:1003C800EF290130F135F20D890BE6290130F500EE
:1003D8007508F807E3290130F635F70D890BF02980
:1003E80072087402031DFA2971087302031C012A9A
:1003F8007108F3027208F43B76140130F236F10CFE
:10040800890B022A0130F802031DEF297708F20050
:100418007608F10008002000200821040319372A73
:10042800FA01FA0AA11B222A0130A035A10D890B75
:10043800192A0130F9007908FA07162A2108230237
:10044800031D282A20082202031C2E2A2008A202A3
:100458002108A33B0130A136A00C890B2F2A0130BB
:10046800FA02031D222A2308A1002208A00008007E
:10047800013400340A34003464340034E83403347A
:10048800103427342534303438346C34583420341C
:10049800003420342534303438344C345834003463
:1004A8002034253430343234583400342034253460
:1004B800303434345834003425346434203425340A
:1004C800643400340D34003421000D17BF30F100BE
:1004D800710823008D0520001815F730F100710808
:1004E8009805180898179901960197012100111489
:1004F800200011100B178B170800F60020000C12B3
:100508007408F5000530F535FF3E031D872A75355B
:10051800760480388131A12182316A30890B922A90
:1005280000320800F3302100990007308C000730B2
:1005380023008C00403021008D0023008D010830FD
:1005480022009D009E0120008C018D0108002000E2
:100558000C1201308131A12182311530F400C630EE
:10056800890BB42AF40BB42A003208002000111CAD
:1005780008002100111C08002000111008002000AC
:0A0588000C1674088131A12108004F
=======
:08000000803102288731F82F3E
:1007A80020000C16730884319724080020000C12CE
:1007B80001308431972483311530F300C630890B1A
:1007C800E32BF30BE32B0032080052302000D60055
:1007D8005608D7005108A1005008A0005730D6008D
:1007E8005608A2008531CE250800F7007708860054
:1007F80087010108031908007708860087010108A6
:1008080084316A2483310130F6007608F707FA2B21
:10081800F3302100990007308C00073023008C004A
:10082800403021008D0023008D01083022009D00FA
:100838009E0120008C018D010800F50020000C129B
:100848007308F4000530F435FF3E031D272C74357A
:10085800750480388431972484316A30890B322CAE
:100868000032080084310C248431853165258431B7
:10087800D4302000DA000330DB00F301003084318B
:100888002124843100302000D0008830D100833109
:10089800E9238431412CF401F501701C572C7208AE
:1008A800F4077308F53D0130F235F30D890B582C28
:1008B8000130F136F00C890B5D2C70087104031DB2
:1008C800512C7508F1007408F0000800F5000A3092
:1008D8007506031D792C2730F4007408F3002000F6
:1008E8005B088A005A080A00843120005C08031952
:1008F800892C7508F4005C0886008701740881005B
:100908000130F4007408DC0708005A085B04031976
:1009180008007508F4007408F3005B088A005A0898
:100928000A0084310800F200D530890B992C0000A8
:100938007208F00004300310F01B0314F00C890B4C
:100948009F2C03307005F100720E0F398919F038A9
:100958000C390907710420008D008C150032003213
:100968000032003220008C11003200320032003296
:1009780003307205F00072080C3909077004200072
:100988008D008C15003200320032003220008C11AC
:100998000032003200320032080073087204710419
:1009A800700403190A2DF901F90AF31BE72C013029
:1009B800F035F10DF20DF30D890BDC2C0130F80048
:1009C8007808F907D92C73087702031DF52C7208EB
:1009D8007602031DF52C71087502031DF52C7008AD
:1009E8007402031CFF2C7008F4027108F53B7208AE
:1009F800F63B7308F73B0130F336F20CF10CF00CC0
:100A0800890B002D0130F902031DE72C7708F3004C
:100A18007608F2007508F1007408F000080000304C
:100A2800FC000030FB000030FA000030F9007308C9
:100A380072047104700403195C2DFD01FD0AF31B97
:100A4800312D0130F035F10DF20DF30D890B262D06
:100A58000130F8007808FD07232D0130F935FA0D2B
:100A6800FB0DFC0D890B322D73087702031D462DF3
:100A780072087602031D462D71087502031D462D66
:100A880070087402031C512D7008F4027108F53BBC
:100A98007208F63B7308F73B79140130F336F20C11
:100AA800F10CF00C890B522D0130FD02031D312D84
:100AB8007C08F3007B08F2007A08F1007908F0005E
:100AC800080020000C128C110230F5003830F400B8
:100AD800AD30890B6D2DF40B6D2DF50B6D2D0000D0
:100AE800033020008D008C150032003200320032B5
:100AF80020008C1100320032003200323430F40011
:100B0800F230890B852DF40B852D20008C150032D1
:100B180000320032003220008C11003200320032E4
:100B280000320530F4002630890B982DF40B982DEF
:100B3800003220008C1500320032003200322000D2
:100B48008C1100320032003200320530F4002630B9
:100B5800890BAC2DF40BAC2D0032023020008D0037
:100B68008C15003200320032003220008C11003225
:100B780000320032003228308431972485310C301D
:100B88008431972485318331DA23853106308431E5
:100B98009724080020002008840021088500000808
:100BA800A3002308CF000130A0070030A13D4F0863
:100BB8000319080025304F060319E72D4F08843123
:100BC8006A248531CE2D2000CA01CB01200884007B
:100BD800210885000008A3002308CF000130A007E2
:100BE8000030A13D30304F06031DFC2D0130012E91
:100BF8002D304F06031D102E0230CA000030CB00E6
:100C080020088400210885000008A3002308CF00DD
:100C18000130A0070030A13DC201C3013A2E4F08A0
:100C2800A300A4014308F1004208F0000A30F200D2
:100C38000030F30084314F248531200023087007E9
:100C4800A5002408713DA6002508D03EC200FF304B
:100C5800263DC30020088400210885000008A30061
:100C68002308CF000130A0070030A13D30304F02EB
:100C7800031C422E3A304F02031C132E6C304F06D1
:100C880003194A2E4C304F06031D572E4A152008CB
:100C98008400210885000008A3002308CF00013044
:100CA800A0070030A13D4F08031908004F08A30012
:100CB8002308CE0061304E02031CCD2E2030CE0218
:100CC800CD2E220886008701403F84008501810AD5
:100CD8000008A3002308BF00C401C50144083F075A
:100CE800A30023088600870101080319842E013018
:100CF800C4070030C53D722E203084316A24853106
:100D08002000CA18962E4508A4004408A300C40A67
:100D18000319C50A43082402031D942E420823021E
:100D2800031C802E3F088331F923853120004508B4
:100D3800A4004408A300C40A0319C50A43082402EE
:100D4800031DA82E420823020318CE2D203084311B
:100D58006A2485319A2E22088600870101088400BA
:100D6800850102308107000884316A248531CE2D3F
:100D780002302000C42E0830C42E0A30C42E103091
:100D8800C0000030C100E52E4F0884316A24853147
:100D9800CE2D20004E08423A0319BC2E013A031901
:100DA800AF2E073A0319C12E0B3A0319BF2E1C3A6E
:100DB8000319652E063A0319C12E0D3A0319C32EDD
:100DC800C82E20004A191D2F44304E060319FF2E45
:100DD8002208860087010108840085010230810706
:100DE800003FA300013FA4002308B7002408B8006F
:100DF800B901BA01142F220886008701010884006E
:100E0800850102308107003FA300013FA4002308A9
:100E1800B7002408B800890D893B8909B900BA00D0
:100E28003A08C9003908C8003808C7003708C6009A
:100E38002D2F2208860087010108840085010430CF
:100E48008107003FC600013FC700023FC800033FBB
:100E5800C90044304E060319C91F3E2FC609C709E9
:100E6800C809C909C60A0319C70A0319C80A031910
:100E7800C90ACA15CC01CD014008F0004108F100AB
:100E8800F201F3014908F7004808F6004708F500A1
:100E98004608F4008431D124853170082000A3006D
:100EA8002308CE004008F0004108F100F201F301E8
:100EB8004908F7004808F6004708F5004608F40016
:100EC80085311325853173082000C9007208C800D0
:100ED8007108C7007008C6000A304E02031C822F32
:100EE80078304F0603197A2F07307B2F2730BB0045
:100EF8000030BC003B08A3002308CE074E08303E54
:100F0800A3004C08273E8600870123088100013092
:100F1800CC070030CD3D490848044704460403196E
:100F28009C2F00304D02103003194C02031C402F37
:100F3800CA1DAA2F2D30A3004C08273E8600870122
:100F4800230881000130CC070030CD3D4D08C50095
:100F58004C08C4004A18B22F2030B32F3030BD00DF
:100F68000030BE003D08A3002308CE00BF2F4E0866
:100F780084316A2485312000CA18D12F4508A4007D
:100F88004408A300C40A0319C50A43082402031D20
:100F9800CF2F42082302031CBB2F0130CC020030A4
:100FA800CD3B4C08273E86008701010884316A241E
:100FB800853120004C084D040319E72FD12F20302C
:100FC80084316A24853120004508A4004408A30020
:100FD800C40A0319C50A43082402031DF52F420851
:100FE80023020318CE2DE32FD801D901DA01DB0142
:100FF800DC0120008431362C483465346C346C3480
:101008006F347734203457346F3472346C3464342A
:1010180000342534303438346C34583420340034B7
:1010280020342534303438344C34583400342034A7
:1010380025343034323458340034203425343034B4
:0A1048003434583400340D34003401
>>>>>>> master
:020000040001F9
:04000E00C4CFFFDD7F
:00000001FF
