:0400000080312B28F8
:100008007E14803120007F08AD008E315F2680315C
:10001800003A03191228403022008C068C319E24A5
:100028008031003A031924288D310E25803184311E
:10003800A02480318E31812680318D316725803131
:100048008C316D2420002D08FF007E1009008031BE
:100058002D28443084008F30850020308600013000
:1000680087003C308731FA278031003084008E3099
:100078008500A0308600013087001E308731FA27BE
:10008800803154308400003085000E308C317B2460
:100098008031A03084000030850034308C317B24DE
:1000A8007E1020008331D42B48302100D40054081E
:1000B800E000200047082100D50020004608210064
:1000C800D4002000C60A0319C70A21005408840076
:1000D800550885000008D6005608E400640803198E
:1000E80008002530640603197E2864088C318124B1
:1000F80080315D282100E201E301E1018A28210025
:10010800611501302000C6070030C73D20004608B1
:100118008400470885000008303A0319832894288A
:10012800460884004708850000088C31DF248031A8
:10013800031CDE282100E201E3010A302000AE00A2
:100148000030AF00210063082000B10021006208E0
:100158002000B0008D31E425803120002F082100D7
:10016800E30020002E082100E20020004608840059
:10017800470885000008D03E2100D400FF3003184E
:100188000030D5005408E2075508E33D013020004F
:10019800C6070030C73D46088400470885000008A8
:1001A8008C31DF248031031CDE28A1286116DE286B
:1001B80061170129200047082100D50020004608C2
:1001C8002100D4002000C60A0319C70A21005408D8
:1001D8008400550885000008E400003A0319422A03
:1001E800643A031901290D3A03190129053A03193B
:1001F800DA28193A0319DC285D28611B3829611EA1
:100208001229600886008701403FDC00413FDD007D
:10021800423FDE00433FDF000430232960088600A8
:100228008701403FD400413FD5005408DC00550801
:10023800DD00890D893B8909DE00DF000230D4002A
:100248005408E007DF1F58290330D4005408E1049C
:10025800DC09DD09DE09DF09DC0A0319DD0A0319F7
:10026800DE0A0319DF0A5829611E4729600886003B
:100278008701403FDC00413FDD00423FDE00433F55
:10028800DF0004305529600886008701403FD4000C
:10029800413FD5005408DC005508DD00DE01DF01D0
:1002A8000230D4005408E007E401E40A0A30640686
:1002B80003198B296408D400D501D435D50DD4355C
:1002C800D50D4330540784008230553D8500003FEA
:1002D800D600013FD700023FD800033FD900590894
:1002E8005F02031D812958085E02031D81295708F2
:1002F8005D02031D812956085C02031C8B2901300D
:10030800D4005408E4070A306406031D5E29620815
:100318006304031997296108033903199729FF30E2
:10032800E207FF30E33D6408D400D501D41BD503B0
:100338005508803AD6006308803A5602031DA6295C
:10034800620854020318B32921006408D400D501B7
:10035800D41BD5035408E2025508E33BB629210013
:10036800E201E301611DCF29610803390319C0299E
:100378002D308C31812480312100620863040319F7
:10038800E82930308C3181248031FF302100E207A8
:10039800FF30E33DC129620863040319E0292030D6
:1003A8008C3181248031FF302100E207FF30E33DAA
:1003B80062086304031DD329610803390319E82976
:1003C8002D308C318124803121006408DA00DB0172
:1003D800DA1BDB03FF302100DA07FF30DB3D5A0A66
:1003E80003195B0A03195D2800302000BF000030A4
:1003F800BE000030BD000A30BC0021005B0885004B
:100408005A0884008435850D8435850D433084076A
:100418008230853D003F2000AE00013FAF00023F23
:10042800B000033FB10021005F082000B5002100A3
:100438005E082000B40021005D082000B300210000
:100448005C082000B20086319D26803120003108EA
:10045800C3003008C2002F08C1002E08C0008F3129
:10046800BD27803120003C08303E2100D4005408CC
:10047800E40064088C3181248031EE2908000134BD
:100488000034003400340A34003400340034643456
:10049800003400340034E8340334003400341034B9
:1004A800273400340034A034863401340034403416
:1004B80042340F3400348034963498340034003495
:1004C800E134F53405340034CA349A343B34993471
:1004D8000134C2340134EB340134143402343D3471
:1004E8000234663402348F340234B8340234E134CE
:1004F80002340A340334333403345B34033484342D
:100508000334AD340334D634033420342034203457
:10051800203425343034323464343A342534303499
:10052800323464340034533445344C344534433421
:100538005434463455344E344334003450344D34F6
:1005480054344434453456344934433445340034FF
:10055800253437346C3475342034253437346C34CE
:10056800753400343234373437343434353436342F
:100578003234003431343934343430343634373466
:100588003334003431343334333436343034303463
:1005980036340034413444344A34473441344934DD
:1005A8004E3400343634303430343034303430342F
:1005B800003437343034303438343934303400345B
:1005C800393436343834343437343234003431340E
:1005D8003034383438343434333400343234343406
:1005E80032343334363434340034333435343134FB
:1005F80031343234373400343234343437343634E6
:1006080034343734003431343534333432343234DA
:1006180038340034333438343934393438343834AD
:1006280000343134363434343134333439340034EA
:100638003934303433343834393439340034343498
:100648003934393439343934393400343334303482
:100658003034303430340034373430343534303496
:1006680030340034353433343534353433340034AD
:10067800313436343134323435340034323437346A
:100688003234333438340034343434343434373452
:10069800383400343934323430343834383400346F
:1006A80031343634303439343934003431342E343A
:1006B800303435345634003431342E343134353412
:1006C8005634003430342E3435343534563400340E
:1006D80030342E34363435345634003430342E34F5
:1006E800373435345634003430342E3438343534D5
:1006F8005634003430342E343934353456340034DA
:1007080031343234353430340034323435343834DA
:1007180030340034393431343834323400343334FA
:1007280039343534373400343134373437343734A6
:1007380000343434393439343834003438343234C9
:1007480031343934003431342E34303456340034B2
:1007580031342E3431345634003431342E3432347A
:100768005634003430342E34353456340034303472
:100778002E3436345634003430342E34373456342C
:10078800003430342E3438345634003430342E3477
:10079800393456340034253436346C3475340034E6
:1007A8008D311F25833122000C178E31A626833107
:1007B8008531DA2583318E313E2683318D315425BA
:1007C80083318D31412583318E311E2683318C3121
:1007D800762483312000DD01773084008230850063
:1007E800003FBE00013FBF008E31CE26833102306C
:1007F800873143278331003A03190C2C033020003A
:100808005D0203180C2C0130D0005008DD07192CAC
:100818000130873143278331003A0319192C20000E
:100828005D080319192C0130DD028C31EE24833167
:10083800902CAC302000C6008230C7008C31C32415
:10084800833120003108CB003008CA002F08C900C6
:100858002E08C8008D313025833120003108CF00A3
:100868003008CE002F08CD002E08CC00803158204B
:1008780083312000B101B10A00308D317D258331EB
:10088800CF302000C6008330C7008C31D12483319B
:1008980020003108CB003008CA002F08C9002E08F4
:1008A800C80080315820833189302000C60082304A
:1008B800C7008C31702483312000D000D10150084A
:1008C800C8005108C9008C31732483312000D2003C
:1008D800D3015208CA005308CB0080315820833115
:1008E800FB2B97302000C6008230C700803158208B
:1008F8008331FB2BCE302000C6008230C700803108
:1009080058208331FB2BA2302000C6008230C7005C
:10091800803158208331FB2B20005D08003A0319F1
:100928001D2C013A0319752C033A03197E2C013A40
:100938000319872CFB2BFB2B01302000D607003036
:10094800D73D0030D83D0030D93D0130DA070030BE
:10095800DB3D03305B02E93003195A02031C08002F
:100968002100330832043104300403190800200040
:10097800DA01DB010230543E86008701403FA000C7
:10098800413FA100423FA200433FA30021002308AA
:10099800F3002208F2002108F1002008F0000030DE
:1009A800F7000030F6000330F500E830F400873136
:1009B800CB27843173082000A7007208A6007108AD
:1009C800A5007008A4008631F02684312000230891
:1009D8002100AB00200022082100AA0020002108E5
:1009E8002100A900200020082100A8000830A03E0E
:1009F80086008701403FF000413FF100423FF2008E
:100A0800433FF3000030F7000030F6000030F500F7
:100A18003C30F4008731CB27843173082100AF00C4
:100A28007208AE007108AD007008AC000130FD001E
:100A38007D082000D40739305402031C2B2D3C308C
:100A4800540603192B2D2C30F0000130332D3C3087
:100A580020005406031D372D5830F0000230F100F5
:100A68008C318A2484313C3020005402031C080055
:100A7800D4010130FD007D08D50708002000B20030
:100A8800B501CE2D053024001C052000B00024003F
:100A98001E081F3920003004031D462D24001E1493
:100AA800053024001C052000B00024001E081F3952
:100AB80020003004031D542D3235240099001C19E0
:100AC800632D00301E1B01302000B5003508031DC2
:100AD8009A2DB301732D0130B0003008B3072F08E9
:100AE800330203189A2D053024001C052000B0009D
:100AF80024001E081F3920003004031D772D3308F9
:100B08002E07B000300886008701010824009900EC
:100B18001C198C2D00301E1B01302000B500350833
:100B280003196F2D0230B0003008B50005302400DD
:100B38001C052000B00024001E081F3920003004C6
:100B4800031D9A2D24001E15D72D24009C1D1C1E44
:100B5800CB2D2000B4012F0834020318C62D340809
:100B68002E07B0003008860087010108B10034085C
:100B7800BF3E86008701310881000130B00030088F
:100B8800B407AF2D2F08B0003008B500D72D2000CE
:100B9800B501D72D21005108003A0319462D013A15
:100BA8000319A92DD72D20003508080022008C1123
:100BB8000C1202302000B3003830B200AD30890B7F
:100BC800E32DB20BE32DB30BE32D033020008D0092
:100BD80022000C16003200320032003222000C12C1
:100BE800003200320032003234302000B200F130DE
:100BF800890BFC2DB20BFC2D003222000C160032A2
:100C080000320032003222000C1200320032003270
:100C1800003205302000B2002630890B112EB20BAD
:100C2800112E000022000C16003200320032003271
:100C380022000C120032003200320032053020004F
:100C4800B2002630890B262EB20B262E0000023069
:100C580020008D0022000C160032003200320032D3
:100C680022000C12003200320032003228308F315C
:100C7800802785310C308F31802785318C31FE24D7
:100C8800853106308F31802708002000141C952EEE
:100C98002100141C952E24009C1E6C2E1C1D5F2EFA
:100CA8001E1B932E1C080139F0001D0E013970041B
:100CB800031D562E7F2E1908F000210050088600CB
:100CC8008701700881000130F0007008D007912E6C
:100CD8009C1A932E19081C1D8C2EBF30F00070082A
:100CE8002100CF0024001C080139F0001D0E013935
:100CF8007004031D762E21004F0886008701010825
:100D0800240099000130F00070082100CF07912ECF
:100D1800C730F00070082100D00024001D16200004
:100D280014102100941C08002000941C0800941042
:100D3800080000302000BA000030B9000030B800C8
:100D48000030B700310830042F042E040319E72EB1
:100D5800BB01BB0AB11BBC2E0130AE35AF0DB00DC7
:100D6800B10D890BB12E0130B6003608BB07AE2E87
:100D78000130B735B80DB90DBA0D890BBD2E310844
:100D88003502031DD12E30083402031DD12E2F0841
:100D98003302031DD12E2E083202031CDC2E2E082E
:100DA800B2022F08B33B3008B43B3108B53B3714C7
:100DB8000130B136B00CAF0CAE0C890BDD2E013012
:100DC800BB02031DBC2E3A08B1003908B000380830
:100DD800AF003708AE00080000302000AB0000303C
:100DE800AA000030A9000030A8002308220421042A
:100DF800200403193A2FAC01AC0AA31B0F2F0130B2
:100E0800A035A10DA20DA30D890B042F0130FC0004
:100E18007C08AC07012F0130A835A90DAA0DAB0D30
:100E2800890B102F23082702031D242F22082602CE
:100E3800031D242F21082502031D242F2008240226
:100E4800031C2F2F2008A4022108A53B2208A63B3B
:100E58002308A73B28140130A336A20CA10CA00C30
:100E6800890B302F0130AC02031D0F2F2B08A30074
:100E78002A08A2002908A1002808A00008002000CC
:100E8800B50003303502031C4B2F0030080035082D
:100E9800B73E860087010108B000B101B009B10969
:100EA800B00A0319B10A3508BA3E8600870101085D
:100EB8003007B20031080318310AB3003308803A0A
:100EC800B40080303402031D6B2FC9303202031C7A
:100ED800852F20003508B43E860087010108031DD0
:100EE800852F6430B0003508B43E8600870130088D
:100EF80081006430AE000030AF008C3194240130A2
:100F08000800003008002000B2008C31A924873185
:100F180020002F08B10031082100D100BB2F240088
:100F28009D1520003008031D9D2F24009C174F306D
:100F3800A72F20003003031DA82F7F30B1003108F0
:100F480024009C0513309A002400B92F24009C012A
:100F580006302000B100310824009D041E14200032
:100F6800323524009A00FE309B009D16C42F2000C5
:100F78002F08003A0319932F013A0319AA2FC42FF7
:100F88002100141494142000141094100800003048
:100F9800FB000030FA000030F9000030F800701C47
:100FA800DD2F7408F8077508F93D7608FA3D7708CB
:100FB800FB3D0130F435F50DF60DF70D890BDE2FED
:100FC8000130F336F20CF10CF00C890BE52F7308A5
:100FD800720471047004031DD32F7B08F3007A0890
:100FE800F2007908F1007808F0000800FE0012000D
:080FF8001E00FE0BFB2F00346C
:1018DA0086314926080020005508080020005408CF
:1018EA0008008F31082720001814080064008001BE
:1018FA000131890B7C2C00342000B10022008C15A8
:10190A00200031088F318027080020005E085F041C
:10191A00031D08007108DF007008DE0008002000BF
:10192A005E085F04031D08002F08DF002E08DE0092
:10193A0008002100931DA72C2000931DA72C9311AA
:10194A00013008000030080024302000AE002E08C4
:10195A0021008D04DB302000AE002E0823008D0507
:10196A00080007302000AE002E0821008C04073042
:10197A002000AE002E0823008C0408000C30A03E84
:10198A0086008701403F2000AE00413FAF00423F42
:10199A00B000433FB10008000830A03E860087012E
:1019AA00403F2000AE00413FAF00423FB000433FFE
:1019BA00B10008002000AF00AE013A302F02031830
:1019CA00EC2C30302F02031CEC2CAE01AE0A2E0C8C
:1019DA00080022008C1102308F3180278C3115309B
:1019EA002000B100C630890BF82CB10BF82C00008E
:1019FA00080022008C1101308F3180278C3115307C
:101A0A002000B100C630890B082DB10B082D00004B
:101A1A000800210034080319142D0130B4023508D6
:101A2A000319192D0130B5023608031908000130CF
:101A3A00B6020800F030210099008C0123008C01C5
:101A4A0021008D0123008D0122009D019E012000AD
:101A5A008C018D010800210023082000B10021001B
:101A6A0022082000B000210021082000AF00210038
:101A7A0020082000AE0008007D3028009D009C014F
:101A8A0003302000AE002E0828009E041E081E15F2
:101A9A0020009311210093150B178B1708008C3126
:101AAA00B6242100150895159516200095011E14D7
:101ABA000C30AF002F089E047F30AF002F089E0520
:101ACA009F01080020005E085F040319772D01308A
:101ADA00DE020030DF3BFF30F0000130F1008D31D3
:101AEA00C82508000030F000F1008D31C825080033
:101AFA002000B30022008C1120003108B20005300A
:101B0A00B235FF3E031D852D3235330480388F31BF
:101B1A0080278D316A30890B902D00320800200011
:101B2A00B800A42D3408B6003608AF003508B7004F
:101B3A003708B0003308873187278D31AA2D200056
:101B4A003808013A0319972DAA2D0B178B1708008D
:101B5A002000BC00C12D3708B9003908AE0038088A
:101B6A00BA003A08AF003608853142258D31200087
:101B7A00BB003B08BD00C62D3C08013A0319B02D35
:101B8A00C62D3D08080025001A08CF39F200720850
:101B9A00F4007108F3007008F200F336F20CF33621
:101BAA00F20C7208980070080339F2000330F2351B
:101BBA00FF3E031DDC2D723574049A0008002000D4
:101BCA00B201B3012E1CED2D3008B2073108B33D26
:101BDA000130B035B10D890BEE2D0130AF36AE0CA8
:101BEA00890BF32D2E082F04031DE72D3308AF00B0
:101BFA003208AE00080084348334893483349D3437
:101C0A0083348E3483343C348334423483344834CA
:101C1A00833430348334EB34823415348334F234ED
:101C2A008234F934823423348334DD348234E43424
:101C3A0082342000B301B401B50101308D319425FD
:101C4A008E31200061081F398038E1006110F930B7
:101C5A00E105E730E1056030BE003E08B6006130BC
:101C6A00BF003F08B700B801B80A01308D31AD2571
:101C7A00080021000D17BF302000AE002E082300F7
:101C8A008D0524000D1720001815F730AE002E0818
:101C9A0098051808981799011810FF309700F63020
:101CAA00960018141110210011140B178B1720001D
:101CBA00181008002000111C7F2E2100111C7F2EF5
:101CCA000A30A0070030A13D0030A23D0030A33DFC
:101CDA000130B0070030B13D0030B23D0030B33DB5
:101CEA0020001810FF309700F630960018141110D3
:101CFA00013008000030080020006008B73E860066
:101D0A0087010108F0006008BA3E86008701700862
:101D1A0081007F30F00070089E051508F000600809
:101D2A00B73E860087017008810095019E176008FA
:101D3A00E00AF000033070020318E00160089F0017
:101D4A0008007F302000AE002E0821008C057F306D
:101D5A002000AE002E0823008C0522009D152000CD
:101D6A001C089C141C159A01FF309B003F30AE00E2
:101D7A002E0825009A050C302000AE002E082500FA
:101D8A009A04F3302000AE002E0825009E05980123
:101D9A0008003F302100D2052000610C0339C00041
:101DAA00C00E2100520820004006CF39400621000B
:101DBA00D20020003F08C1003E08C0004108C00010
:101DCA00C1010F304005C20021005208200042061E
:101DDA00F03942062100D20020003E08C000400827
:101DEA002100D30060302000C0004008B600D23085
:101DFA00C1004108B7000230C2004208B8000130F1
:101E0A008D31AD25080020001810FF309700F630FC
:101E1A009600181400302100A3000030A200003000
:101E2A00A1000030A0000030A7000030A60000305A
:101E3A00A5000030A4000030AB000030AA0000303A
:101E4A00A9000030A8000030AF000030AE0000301A
:101E5A00AD000030AC000030B3000030B2000030FA
:101E6A00B1000030B00000302000D9000030D800A6
:101E7A000030D7000030D600D401D50108009834CC
:101E8A00833493348334A2348334543483342A34E9
:101E9A008334363483344E34833407348334003401
:101EAA0083340E348334D63482341C348334C634B7
:101EBA008234BE348234B6348234B63483346634DF
:101ECA008334BB3483346C348334C0348334723403
:101EDA008334C534833478348334CA3483347E34C7
:101EEA008334A73483345A348334AC34833460342F
:101EFA008334B13483342000B000D530890B832F6A
:101F0A00000020003008AE0004300310AE1B03149A
:101F1A00AE0C890B8A2F03302E05AF00300E0F3915
:101F2A008919F0380C3909072F048D0022000C1684
:101F3A00003200320032003222000C12003200322B
:101F4A0000320032033020003005AE0030080C3970
:101F5A0009072E048D0022000C16003200320032CE
:101F6A00003222000C120032003200320032080025
:101F7A0020003F083E043D043C040319F72FC50125
:101F8A00C50ABF1BD42F0130BC35BD0DBE0DBF0D18
:101F9A00890BC92F0130C4004408C507C62F3F0862
:101FAA004302031DE22F3E084202031DE22F3D08B1
:101FBA004102031DE22F3C084002031CEC2F3C089F
:101FCA00C0023D08C13B3E08C23B3F08C33B01304B
:101FDA00BF36BE0CBD0CBC0C890BED2F0130C502FF
:101FEA00031DD42F4308BF004208BE004108BD00AC
:061FFA004008BC000800D5
:020000040001F9
:04000E00C4CFFFDD7F
:00000001FF
