:040000008031132810
:100008007E14803120007F08F10087316C27803111
:100018008731812771082000FF007E100900803198
:100028001528FB015F308400003085000A308731D5
:1000380075278031A0308400003085002630873154
:1000480075277E1020008531A52D20002508840005
:10005800260885000008A8002808D4000130A50754
:100068000030A63D5408031908002530540603192A
:10007800422854088531DB25803129282000CF010A
:10008800D00125088400260885000008A800280853
:10009800D4000130A5070030A63D30305406031DBA
:1000A800572801305C282D305406031D6B28023078
:1000B800CF000030D00025088400260885000008FD
:1000C800A8002808D4000130A5070030A63DC701C4
:1000D800C80195285408A800A9014808F300470852
:1000E800F2000A30F4000030F5008631C62680316F
:1000F800200028087207AA002908733DAB002A08C7
:10010800D03EC700FF302B3DC800250884002608D4
:1001180085000008A8002808D4000130A507003091
:10012800A63D30305402031C9D283A305402031C6B
:100138006E286C3054060319A5284C305406031D4C
:10014800B2284F1525088400260885000008A80055
:100158002808D4000130A5070030A63D540803192B
:1001680008005408A8002808D30061305302031C73
:1001780028292030D3022829270886008701403FF4
:1001880084008501810A0008A8002808C400C90164
:10019800CA0149084407A800280886008701010801
:1001A8000319DF280130C9070030CA3DCD282030A7
:1001B8008531DB2580312000CF18F1284A08A900B5
:1001C8004908A800C90A0319CA0A48082902031DD0
:1001D800EF2847082802031CDB2844088731242716
:1001E800803120004A08A9004908A800C90A031953
:1001F800CA0A48082902031D0329470828020318C8
:10020800292820308531DB258031F528270886000C
:1002180087010108840085010230810700088531C3
:10022800DB2580312928023020001F2908301F29AA
:100238000A301F291030C5000030C6004029540874
:100248008531DB258031292820005308423A0319DB
:100258001729013A03190A29073A03191C290B3AE5
:1002680003191A291C3A0319C028063A03191C292C
:100278000D3A03191E29232920004F1978294430E3
:10028800530603195A2927088600870101088400A4
:10029800850102308107003FA800013FA900280816
:1002A800BC002908BD00BE01BF016F2927088600D0
:1002B800870101088400850102308107003FA800FA
:1002C800013FA9002808BC002908BD00890D893B09
:1002D8008909BE00BF003F08CE003E08CD003D089A
:1002E800CC003C08CB008829270886008701010834
:1002F8008400850104308107003FCB00013FCC001A
:10030800023FCD00033FCE00443053060319CE1FF1
:100318009929CB09CC09CD09CE09CB0A0319CC0AF6
:100328000319CD0A0319CE0ACF15D101D201450808
:10033800F2004608F300F401F5014E08F9004D08F3
:10034800F8004C08F7004B08F6008431B6248031D9
:1003580072082000A8002808D3004508F2004608C3
:10036800F300F401F5014E08F9004D08F8004C08B7
:10037800F7004B08F60084316324803175082000AB
:10038800CE007408CD007308CC007208CB000A3088
:100398005302031CDD29783054060319D529073088
:1003A800D6292730C0000030C1004008A80028081E
:1003B800D3075308303EA80051082C3E8600870119
:1003C800280881000130D1070030D23D4E084D0485
:1003D8004C044B040319F72900305202103003195A
:1003E8005102031C9B29CF1D052A2D30A800510856
:1003F8002C3E86008701280881000130D107003093
:10040800D23D5208CA005108C9004F180D2A2030A1
:100418000E2A3030C2000030C3004208A800280865
:10042800D3001A2A53088531DB2580312000CF18E4
:100438002C2A4A08A9004908A800C90A0319CA0AA7
:1004480048082902031D2A2A47082802031C162ADD
:100458000130D1020030D23B51082C3E8600870182
:1004680001088531DB258031200051085204031929
:10047800422A2C2A20308531DB25803120004A0889
:10048800A9004908A800C90A0319CA0A4808290284
:10049800031D502A47082802031829283E2AF60077
:1004A800F901C72A053024001C05F4001E081F396D
:1004B8007404031D562A1E1405301C05F4001E087A
:1004C8001F397404031D602A763599001C196A2A9D
:1004D80000301E1B0130F9007908031D9A2AF70124
:1004E800792A0130F4007408F707730877020318B3
:1004F8009A2A05301C05F4001E081F397404031DD0
:100508007D2A77087207F4007408860087010108BD
:1005180099001C198D2A00301E1B0130F90079083A
:100528000319752A0230F4007408F90005301C0517
:10053800F4001E081F397404031D9A2A1E15D02AB8
:1005480024009C1D1C1EC52AF80173087802031894
:10055800C02A78087207F400740886008701010829
:10056800F5007808A03E86008701750881000130F3
:10057800F4007408F807A92A7308F4007408F9004D
:10058800D02AF901D02A21003208003A0319562A44
:10059800013A0319A42AD02A79080800F600452B45
:1005A800053024001405F40016081F397404031DCF
:1005B800D42A161405301405F40016081F397404DB
:1005C800031DDE2A763591001419E82A0030161B1F
:1005D8000130F9007908031D182BF701F72A0130BB
:1005E800F4007408F707730877020318182B05300E
:1005F8001405F40016081F397404031DFB2A770834
:100608007207F40074088600870101089100141924
:100618000B2B0030161B0130F90079080319F32A57
:100628000230F4007408F90005301405F4001608C7
:100638001F397404031D182B16154E2B2400941D06
:10064800141E432BF8017308780203183E2B780810
:100658007207F4007408860087010108F50078081D
:10066800B33E86008701750881000130F4007408E4
:10067800F807272B7308F4007408F9004E2BF901CA
:100688004E2B21004508003A0319D42A013A0319D0
:10069800222B4E2B7908080022008C110C120230F4
:1006A800F7003830F600AD30890B582BF60B582B75
:1006B800F70B582B0000033020008D0022000C1689
:1006C800003200320032003222000C1200320032B6
:1006D800003200323430F600F230890B712BF60B01
:1006E800712B22000C160032003200320032220038
:1006F8000C1200320032003200320530F60026308B
:10070800890B842BF60B842B003222000C16003246
:1007180000320032003222000C1200320032003265
:1007280000320530F6002630890B982BF60B982BF3
:100738000032023020008D0022000C1600320032F8
:100748000032003222000C12003200320032003235
:1007580028308431F92483310C308431F9248331F1
:1007680087314727833106308431F9240800200077
:10077800141C072C2100141C072C24009C1EDE2BA3
:100788001C1DD12B1E1B052C1C080139F0001D0E49
:1007980001397004031DC82BF12B1908F000210042
:1007A800310886008701700881000130F000700868
:1007B800B107032C9C1A052C19081C1DFE2BA03010
:1007C800F00070082100B00024001C080139F00076
:1007D8001D0E01397004031DE82B21003008860026
:1007E80087010108240099000130F00070082100F9
:1007F800B007032CA830F00070082100B1002400D5
:100808001D16200014102100941C08002000941CC0
:100818000800941008002000911D5B2C2100911DF8
:100828005B2C2400941E322C141D252C161B592CCD
:1008380014080139F000150E01397004031D1C2C31
:10084800452C1108F0002100440886008701700833
:1008580081000130F0007008C407572C941A592CF5
:100868001108141D522CB330F00070082100C30089
:10087800240014080139F000150E01397004031D15
:100888003C2C2100430886008701010824009100C0
:100898000130F00070082100C307572CBB30F0006E
:1008A80070082100C40024001516200091112100B1
:1008B800921D08002000921D0800921108000030C7
:1008C8002000A3000030A2000030A1000030A000EA
:1008D80075087404730472040319AD2CA401A40AE6
:1008E800F51B822C0130F235F30DF40DF50D890B53
:1008F800772C0130FA007A08A407742C0130A0354F
:10090800A10DA20DA30D890B832C75087902031D77
:10091800972C74087802031D972C73087702031D1F
:10092800972C72087602031CA22C7208F602730830
:10093800F73B7408F83B7508F93B20140130F5368D
:10094800F40CF30CF20C890BA32C0130A402031D48
:10095800822C2308F5002208F4002108F30020085F
:10096800F200080075087404730472040319F02C6B
:100978002000A001A00AF51BCD2C0130F235F30DA3
:10098800F40DF50D890BC22C0130FA007A08A00786
:10099800BF2C75087902031DDB2C74087802031D2F
:1009A800DB2C73087702031DDB2C72087602031C0C
:1009B800E52C7208F6027308F73B7408F83B7508D3
:1009C800F93B0130F536F40CF30CF20C890BE62CEC
:1009D8000130A002031DCD2C7908F5007808F40039
:1009E8007708F3007608F2000800F400D530890B88
:1009F800FB2C00007408F20004300310F21B0314EF
:100A0800F20C890B012D03307205F300740E0F39B7
:100A18008919F0380C390907730420008D00220069
:100A28000C16003200320032003222000C12003262
:100A380000320032003203307405F20074080C39B9
:100A48000907720420008D0022000C1600320032C3
:100A58000032003222000C12003200320032003222
:100A68000800F6008731562785317308F5007508A8
:100A78002100B2005E2D24009D157408031D472D2A
:100A88009C174F304F2D7403031D5C2D7F30F500EC
:100A980075089C0513309A005C2D24009C010630D3
:100AA800F50075089D041E1476359A00FE309B00EB
:100AB8009D16662D7308003A03193F2D013A031954
:100AC800512D662D21001414941420001410941034
:100AD8000800F6008731612785317308F50075082D
:100AE8002100C500962D240095157408031D7F2D3F
:100AF80094174F30872D7403031D942D7F30F50014
:100B08007508940513309200942D24009401063042
:100B1800F50075089504161476359200FE3093009A
:100B280095169E2D7308003A0319772D013A03197B
:100B3800892D9E2D21009115921520009111921159
:100B4800080087310F27853122000C178331502385
:100B580085317B302000E4000730E5008631E1264E
:100B68008531200018148631852685318631A726DF
:100B78008531220040308C0615302000DE004B30D5
:100B8800DD00BE30890BC62DDD0BC62DDE0BC62D54
:100B98000000F50100308631FA2685313330200017
:100BA800D5008630D600873137278531BD2DF7002F
:100BB8000A307706031DEA2D5A30F6007608F5004C
:100BC800200065088A0064080A0085317B0803193B
:100BD800F92D7708F6007B088600870176088100E2
:100BE8000130F6007608FB07080020006408650459
:100BF800031908007708F6007608F50065088A00EA
:100C080064080A00863108002000A600292E210861
:100C1800A3002308F2002208A4002408F3002008F7
:100C28008231D2228631242E2108A3002308F20023
:100C38002208A4002408F3002008823153228631B8
:100C48002000A5002508A700312E2608003A031920
:100C58000B2E013A0319182E312E270808004834A4
:100C680065346C346C346F347734203457346F34D3
:100C780072346C34643400342534303438346C3491
:100C880058342034003420342534303438344C344B
:100C98005834003420342534303432345834003455
:100CA8002034253430343434583400340D3400348E
:100CB800FA007A2E78082000A0002008F3007908AE
:100CC800A1002108F400770885316D258631822E30
:100CD80078082000A0002008F3007908A100210866
:100CE800F4007708853135258631822E7A08003A56
:100CF80003195E2E013A03196C2E822E0B178B17DF
:100D080008007F30F200720821008C057F30F20065
:100D1800720823008C0522009D1520001C089C14D5
:100D28001C159A01FF309B003F30F2007208250025
:100D38009A050C30F20072089A04F330F200720837
:100D48009E0598010800F701F801F9010130863184
:100D58005C268631200068081F398038E800681052
:100D6800F930E805E730E8056030A8002808A00059
:100D78006830A9002908A100A201A20A0130863121
:100D880008260800F601F701721CCE2E7408F60733
:100D98007508F73D0130F435F50D890BCF2E01307C
:100DA800F336F20C890BD42E72087304031DC82E77
:100DB8007708F3007608F200080021000D17BF300D
:100DC800F200720823008D0520001815F730F20094
:100DD800720898051808981799019601970121003B
:100DE8001114200011100B178B170800F7002200B0
:100DF8008C117508F6000530F635FF3E031D002FEF
:100E08007635770480388431F92486316A30890B45
:100E18000B2F00320800F0302100990007308C00B9
:100E2800073023008C00403021008D0023008D0105
:100E3800083022009D009E0120008C018D010800D1
:100E4800F900790886008701010803190800790864
:100E58008600870101088531DB2587310130F800DC
:100E68007808F907252F57302000DB005B08DC00E5
:100E78005608A6005508A5005C30DB005B08A700F3
:100E880080312920080022008C1101308431F92496
:100E980087311530F500C630890B502FF50B502FD0
:100EA800003208002430F200720821008D04DB3083
:100EB800F200720823008D0508001230F200720853
:100EC80021008D04ED30F200720823008D05080022
:100ED8002000111C08002100111C0800200011101E
:100EE8000800640080010131890B762F003422004C
:100EF8008C1575088431F924080084310F24873152
:060F08008331BB23080049
:020000040001F9
:04000E00C4CFFFDD7F
:00000001FF
