:0400000080313128F2
:100008007E14803120007F08C7008E31D6268031CB
:10001800003A031912288E31B82680318431002421
:100028008031003A03191B28403022008C068E319B
:10003800E1268031003A03192A288F31362780318A
:1000480087316F2780318F317E2780318E31952619
:1000580020004708FF007E10090080313328523005
:10006800840086308500A0308600003087003C3050
:100078008E31A9268031D530840087308500203024
:100088008600013087001E308E31A926803120304D
:1000980084000030850027308E31A3268031DC3083
:1000A80084000030850013308E31A3267E10200096
:1000B80083316C2B99340134C2340134EB3401346C
:1000C800143402343D340234663402348F3402343A
:1000D800B8340234E13402340A3403343334033498
:1000E8005B34033484340334AD340334D6340334FA
:1000F800013400340A34003464340034E8340334FE
:1001080010342734533445344C3445344334543450
:10011800463455344E344334003450344D3454341A
:100128004434453456344934433445340034253452
:10013800353475346C3420342534373475346C34A4
:100148000034323437343734343435343634323496
:100158000034313439343434303436343734333489
:100168000034313433343334363430343034363484
:100178000034413444344A344734413449344E34E9
:1001880000343634303430343034303430340034A1
:100198003734303430343834393430340034393446
:1001A800363438343434373432340034313430343B
:1001B8003834383434343334003432343434323428
:1001C8003334363434340034333435343134313420
:1001D8003234373400343234343437343634343407
:1001E80037340034313435343334323432343834FB
:1001F800003433343834393439343834383400340A
:1002080031343634343431343334393400343934D5
:1002180030343334383439343934003434343934BC
:1002280039343934393439340034333430343034AF
:1002380030343034003437343034353430343034BA
:1002480000343534333435343534333400343134D0
:10025800363431343234353400343234373432348D
:100268003334383400343434343434343734383470
:10027800003439343234303438343834003431349A
:100288003634303439343934003431342E3430345F
:1002980035345634003431342E3431343534563410
:1002A800003430342E343534353456340034303458
:1002B8002E34363435345634003430342E34373412
:1002C80035345634003430342E34383435345634DA
:1002D800003430342E343934353456340034313423
:1002E8003234353430340034323435343834303400
:1002F8000034393431343834323400343334393416
:100308003534373400343134373437343734003403
:1003180034343934393438340034383432343134BC
:100328003934003431342E343034563400343134D6
:100338002E3431345634003431342E343234563479
:10034800003430342E3435345634003430342E34BE
:1003580036345634003430342E343734563400347E
:1003680030342E3438345634003430342E34393462
:100378005634003458302000DE005E08E3002000C8
:100388005708DF005608DE00D60A0319D70A5E08A8
:1003980084005F0885000008E0006008E90069083B
:1003A80003190800253069060319DF2969088E3109
:1003B800AF268131C3292000E701E801E201560890
:1003C80084005708850000088F3107278131031CF6
:1003D800252A2000E701E8010A302000C800003083
:1003E800C9006808CB006708CA008F31E42781314B
:1003F80020004908E8004808E70056088400570824
:1004080085000008D03EDE00FF3003180030DF0012
:100418005E08E7075F08E83D0130D6070030D73DA2
:10042800560884005708850000088F310727813156
:10043800031C252AF029C0302000DE005E08E204F3
:100448003A2A20005708DF005608DE00D60A0319AA
:10045800D70A5E0884005F0885000008E900003AB2
:100468000319D32A753A03191F2AC329630886007A
:100478008701403FE400413FE5000230DE005E08AE
:10048800E307E901E90A0530690603196A2A6908D8
:10049800DE00DF01DE35DF0D7C305E078400803052
:1004A8005F3D8500003FE000013FE1006108650213
:1004B800031D602A60086402031C6A2A0130DE00FA
:1004C8005E08E90705306906031D4B2A6908DE0046
:1004D800DF01DE1BDF035F08803AE0006808803A2E
:1004E8006002031D792A67085E020318862A200025
:1004F8006908DE00DF01DE1BDF035E08E7025F0834
:10050800E83B892A2000E701E80167086804031925
:100518009A2A20308E31AF268131FF302000E7073C
:10052800FF30E83D67086804031D8D2A6908DE006E
:100538005E08E600FF302000DE005E08E607660A77
:100548000319C3290A30D0000030D1006608DE0044
:10055800DF01DE35DF0D7C305E07840080305F3DD3
:100568008500003FC800013FC9006508CB0064084A
:10057800CA0086318E26813120004908D3004808F8
:10058800D2008631F226813120005008303EE0004A
:100598006008E90069088E31AF2681319E2A08007B
:1005A8002000CC00CF01602B053024001C05200062
:1005B800CA0024001E081F3920004A04031DD82A37
:1005C80024001E14053024001C052000CA00240045
:1005D8001E081F3920004A04031DE62A4C35240052
:1005E80099001C19F52A00301E1B01302000CF008D
:1005F8004F08031D2C2BCD01052B0130CA004A08DA
:10060800CD0749084D0203182C2B053024001C0582
:100618002000CA0024001E081F3920004A04031DB8
:10062800092B4D084807CA004A08860087010108B7
:10063800240099001C191E2B00301E1B01302000BD
:10064800CF004F080319012B0230CA004A08CF0017
:10065800053024001C052000CA0024001E081F398C
:1006680020004A04031D2C2B24001E15692B24008E
:100678009C1D1C1E5D2B2000CE0149084E0203184C
:10068800582B4E084807CA004A0886008701010807
:10069800CB004E08DC3E860087014B088100013004
:1006A800CA004A08CE07412B4908CA004A08CF00A9
:1006B800692B2000CF01692B21006E08003A03192D
:1006C800D82A013A03193B2B692B20004F08080050
:1006D8008F314727833122000C1787314727833111
:1006E8008431782483318731942783318F316B2784
:1006F80083318E31F92683318F3158278331873101
:10070800B52783318E31982683312000BE016A30A7
:10071800840080308500003FD800013FD900863131
:10072800C3268331023085318D258331003A031980
:10073800A72B033020003E020318A72B0130EA0044
:100748006A08BE07B42B013085318D258331003A04
:100758000319B42B20003E080319B42B0130BE0244
:100768008F3116278331F02B9B302000D600803044
:10077800D7008E319D26833120004908D9004808CA
:10078800D8008E31C226833120004B08DD004A088C
:10079800DC004908DB004808DA008131BE218331DA
:1007A800962B86302000D6008030D7008131BE21BC
:1007B8008331962BBD302000D6008030D7008131A0
:1007C800BE218331962B91302000D6008030D7008F
:1007D8008131BE218331962B20003E08003A03194F
:1007E800B82B013A0319D52B033A0319DE2B013A2A
:1007F8000319E72B962B962B01302000B207003007
:10080800B33D13303302893003193202031C342CF0
:100818002D082C042B042A040319342CB201B3012B
:100828000A30203E86008701403FF000413FF1003A
:10083800423FF200433FF3000430203E8600870128
:10084800403FF400413FF500423FF600433FF700C8
:1008580085313B25843171082000A9007008A80063
:10086800111C762C2100111C762C0A302000A007C0
:100878000030A13D0030A23D0030A33D3108F30017
:100888003008F2002F08F1002E08F0000030F700C1
:100898000430F6009330F500E030F40085313B2554
:1008A80070082000A4077108A53D7208A63D7308CA
:1008B800A73D0130AA070030AB3D0030AC3D003009
:1008C800AD3D0030B1000030B0000030AF00003066
:1008D800AE001810FF309700F5309600181411106C
:1008E800013008000030080022008C110C12023080
:1008F8002000CD003830CC00AD30890B812CCC0BDA
:10090800812CCD0B812C033020008D0022000C1689
:10091800003200320032003222000C120032003263
:100928000032003234302000CC00F130890B9A2C90
:10093800CC0B9A2C003222000C1600320032003206
:10094800003222000C120032003200320032053030
:100958002000CC002630890BAF2CCC0BAF2C00002C
:1009680022000C16003200320032003222000C1233
:10097800003200320032003205302000CC00263030
:10098800890BC42CCC0BC42C0000023020008D0035
:1009980022000C16003200320032003222000C1203
:1009A8000032003200320032283086311526843178
:1009B8000C308631152684318F3126278431063054
:1009C8008631152608002000141C332D2100141C24
:1009D800332D24009C1E0A2D1C1DFD2C1E1B312DA1
:1009E8001C080139F0001D0E01397004031DF42C98
:1009F8001D2D1908F00021006D0886008701700878
:100A080081000130F0007008ED072F2D9C1A312D60
:100A180019081C1D2A2DDC30F00070082100EC009C
:100A280024001C080139F0001D0E01397004031D53
:100A3800142D21006C088600870101082400990004
:100A48000130F00070082100EC072F2DE430F00091
:100A580070082100ED0024001D162000141021004C
:100A6800941C08002000941C080094100800003012
:100A7800FC000030FB000030FA000030F900730879
:100A88007204710470040319842DFD01FD0AF31B1F
:100A9800592D0130F035F10DF20DF30D890B4E2D66
:100AA8000130F8007808FD074B2D0130F935FA0DB3
:100AB800FB0DFC0D890B5A2D73087702031D6E2D53
:100AC80072087602031D6E2D71087502031D6E2DC6
:100AD80070087402031C792D7008F4027108F53B44
:100AE8007208F63B7308F73B79140130F336F20CC1
:100AF800F10CF00C890B7A2D0130FD02031D592DE4
:100B08007C08F3007B08F2007A08F1007908F0000D
:100B180008002000CF0003304F02031C952D003041
:100B280008004F08373E860087010108CA00CB013C
:100B3800CA09CB09CA0A0319CB0A4F083A3E8600EC
:100B4800870101084A07CC004B0803184B0ACD005F
:100B58004D08803ACE0080304E02031DB52DC930B5
:100B68004C02031CCF2D20004F08343E860087011D
:100B78000108031DCF2D6430CA004F08343E86009B
:100B880087014A0881006430C8000030C9008E31EE
:100B9800CC2601300800003008002000CC008E313F
:100BA800EC26853120004908CB004B082100EE00D7
:100BB800052E24009D1520004A08031DE72D24005A
:100BC8009C174F30F12D20004A03031DF22D7F3072
:100BD800CB004B0824009C0513309A002400032EF8
:100BE80024009C0106302000CB004B0824009D0403
:100BF8001E1420004C3524009A00FE309B009D16E0
:100C08000E2E20004908003A0319DD2D013A031978
:100C1800F42D0E2E21001414941420001410941096
:100C280008002000CA00D530890B182E00002000CB
:100C38004A08C80004300310C81B0314C80C890BE9
:100C48001F2E03304805C9004A0E0F398919F0389C
:100C58000C39090749048D0022000C1600320032B5
:100C68000032003222000C12003200320032003210
:100C7800033020004A05C8004A080C39090748040F
:100C88008D0022000C1600320032003200322200A1
:100C98000C120032003200320032080087348134EE
:100CA8008234813491348134433481341934813429
:100CB800253481343D348134F6348034EF34803443
:100CC800FD348034C53480340B348134B5348034F9
:100CD800AD348034A5348034A5348134553481341E
:100CE800AA3481345B348134AF3481346134813443
:100CF800B434813467348134B93481346D34813407
:100D080096348134493481349B3481344F3481346E
:100D1800A03481342000CD01CE01480849040319CC
:100D2800BE2ECF01CF0AC91BA32E0130C835C90D6D
:100D3800890B9A2E0130CC004C08CF07972E013032
:100D4800CD35CE0D890BA42E49084B02031DAE2EBE
:100D580048084A02031CB52E4808CA024908CB3B7A
:100D68004D140130C936C80C890BB62E0130CF029C
:100D7800031DA32E4E08C9004D08C80008003F30C7
:100D88002000C405460C0339DA00DA0E44085A0676
:100D9800CF395A06C4005908DB005808DA005B0846
:100DA800DA00DB010F305A05DC0044085C06F03934
:100DB8005C06C4005808DA005A08C5006030DA003A
:100DC8005A08D0004430DB005B08D1000230DC0058
:100DD8005C08D20001308F31AD2708002000500890
:100DE800510403191A2FD501D50AD11B052F01303B
:100DF800D035D10D890BFC2E0130D4005408D5070D
:100E0800F92E51085302031D0B2F50085202031CE0
:100E1800112F5008D2025108D33B0130D136D00CE3
:100E2800890B122F0130D502031D052F5308D1005D
:100E38005208D000080020001810FF309700F53045
:100E4800960018140030A3000030A2000030A10062
:100E58000030A0000030A7000030A6000030A50038
:100E68000030A4000030AD000030AC000030AB0012
:100E78000030AA000030B1000030B0000030AF00F0
:100E88000030AE0008007F302000C800480821006C
:100E98008C057F302000C800480823008C052200FC
:100EA8009D1520001C089C141C159A01FF309B00FE
:100EB8003F30C800480825009A050C302000C800BB
:100EC800480825009A04F3302000C8004808250087
:100ED8009E059801080020004308373E86008701D8
:100EE8000108F00043083A3E860087017008810037
:100EF8007F30F00070089E051508F0004308373E63
:100F0800860087017008810095019E174308C30A6F
:100F1800F000033070020318C30143089F00080063
:100F280021000D17BF302000C800480823008D0598
:100F380024000D1720001815F730C8004808980538
:100F48001808981799011810FF309700F530960087
:100F580018141110210011140B178B1720001810EA
:100F680008002000CD01CE01CF0101308F31942738
:100F78008731200046081F398038C6004610F930EE
:100F8800C605E730C6056030D8005808D00046309E
:100F9800D9005908D100D201D20A01308F31AD27CA
:100FA800080073348134783481348C3481347D344E
:100FB80081342B34813431348134373481341F34D3
:100FC8008134DA34803404348134E1348034E834D0
:100FD800803412348134CC348034D33480340730B4
:100FE8002000C800480821008C0407302000C800F1
:080FF800480823008C040800E6
:101D2A008431E724080087311F272000181408008F
:101D3A0020002908C9002808C8000800640080019A
:101D4A000131890BA42E0034FE0012001E00FE0B86
:101D5A00AA2E00342000CB0022008C1520004B084C
:101D6A0086311526080001302000AE070030AF3D4D
:101D7A000030B03D0030B13D080020002308CB0000
:101D8A002208CA002108C9002008C800080020004B
:101D9A0041084204031D08004908C2004808C1005E
:101DAA0008002100931CDF2E2000931CDF2E9310C5
:101DBA0001300800003008002100931DEA2E20009F
:101DCA00931DEA2E931101300800003008002430D8
:101DDA002000C800480821008D04DB302000C8001C
:101DEA00480823008D0508006430280096009501F4
:101DFA0097141708171520009310210093140B1736
:101E0A008B1708002000C900C8013A30490203189C
:101E1A00142F30304902031C142FC801C80A480C79
:101E2A00080022008C110230863115268F311530B8
:101E3A002000CB00C630890B202FCB0B202F0000AF
:101E4A00080022008C110130863115268F31153099
:101E5A002000CB00C630890B302FCB0B302F00006F
:101E6A0008002000340803193C2F0130B402350859
:101E7A000319412F0130B502360803190800013051
:101E8A00B6020800F030210099008C0123008C0171
:101E9A0021008D0123008D0122009D019E01200059
:101EAA008C018D0108007D3028009D009C010330C3
:101EBA002000C800480828009E041E081E1520009D
:101ECA009311210093150B178B1708008731F327FD
:101EDA002100150895159516200095011E140C3041
:101EEA00C90049089E047F30C90049089E059F0120
:101EFA00080020004108420403198E2F0130C10254
:101F0A000030C23BFF30F0000130F1008F31C827AA
:101F1A0008000030F000F1008F31C82708002000C7
:101F2A00D200A42F4E08D0005008C9004F08D10093
:101F3A005108CA004D088531D1258F31AA2F2000BA
:101F4A005208013A0319972FAA2F0B178B1708006B
:101F5A002000D600C12F5108D3005308C8005208E8
:101F6A00D4005408C90050088231D4228F3120008D
:101F7A00D5005508D700C62F5608013A0319B02FC5
:101F8A00C62F5708080025001A08CF39F200720830
:101F9A00F4007108F3007008F200F336F20CF3361D
:101FAA00F20C7208980070080339F2000330F23517
:101FBA00FF3E031DDC2F723574049A0008002000CE
:101FCA00CC01CD01481CED2F4A08CC074B08CD3D6A
:101FDA000130CA35CB0D890BEE2F0130C936C80C3A
:101FEA00890BF32F48084904031DE72F4D08C90040
:061FFA004C08C8000800BD
:020000040001F9
:04000E00C4CFFFDD7F
:00000001FF
