:0400000080313128F2
:100008007E14803120007F08FB008431FE2480317B
:10001800003A0319122885311E25803185310925BA
:100028008031003A031921288331D023803184316B
:10003800772480318431B224803184314A2480315C
:10004800003A03192A28403022008C0685313425CD
:100058007B082000FF007E100900803133286C30B7
:10006800840083308500A0308600003087003C3053
:10007800853128258031F530840083308500203093
:100088008600013087001E30853128258031F00137
:10009800F101F201F301F401F50120308400003090
:1000A80085003E3085312E257E1020008231A22A1F
:1000B80099340134C2340134EB3401341434023439
:1000C8003D340234663402348F340234B834023496
:1000D800E13402340A340334333403345B340334F4
:1000E80084340334AD340334D634033432343734EF
:1000F80037343434353436343234003431343934E6
:1001080034343034363437343334003431343334DF
:1001180033343634303430343634003436343034D2
:1001280030343034303430340034373430343034D0
:10013800383439343034003439343634383434349B
:100148003734323400343134303438343834343499
:10015800333400343234343432343334363434348F
:1001680000343334353431343134323437340034B4
:100178003234343437343634343437340034313468
:100188003534333432343234383400343334383458
:10019800393439343834383400343134363434343A
:1001A8003134333439340034393430343334383436
:1001B800393439340034343439343934393439340D
:1001C800393400343334303430343034303400345B
:1001D8003734303435343034303400343534333413
:1001E8003534353433340034313436343134323400
:1001F800353400343234373432343334383400341C
:1002080034343434343437343834003439343234D0
:1002180030343834383400343134363430343934C6
:100228003934003431342E343034353456340034D3
:1002380031342E34313435345634003430342E349D
:10024800353435345634003430342E34363435347D
:100258005634003430342E34373435345634003480
:1002680030342E34383435345634003430342E3467
:10027800393435345634003431343234353430344A
:10028800003432343534383430340034393431348D
:100298003834323400343334393435343734003474
:1002A800313437343734373400343434393439342A
:1002B8003834003438343234313439340034313459
:1002C8002E3430345634003431342E3431345634EC
:1002D800003431342E3432345634003430342E3431
:1002E80035345634003430342E34363456340034F1
:1002F80030342E3437345634003430342E343834D5
:100308005634003430342E34393456340034220014
:100318008C110C1202302000E3003830E200AD30BE
:10032800890B9429E20B9429E30B942903302000CC
:100338008D0022000C1600320032003200322200FA
:100348000C12003200320032003234302000E20059
:10035800F130890BAD29E20BAD29003222000C16D1
:10036800003200320032003222000C120032003219
:100378000032003205302000E2002630890BC22905
:10038800E20BC229000022000C16003200320032B3
:10039800003222000C1200320032003200320530E6
:1003A8002000E2002630890BD729E20BD72900006C
:1003B800023020008D0022000C160032003200327C
:1003C800003222000C120032003200320032283093
:1003D80083312F2381310C3083312F2381318431B4
:1003E800C3248131063083312F2308002000141CD8
:1003F800462A2100141C462A24009C1E1D2A1C1D66
:10040800102A1E1B442A1C080139F6001D0E01394A
:100418007604031D072A302A1908F6002000470829
:1004280086008701760881000130F6007608C70744
:10043800422A9C1A442A19081C1D3D2A3630F60007
:1004480076082000C60024001C080139F6001D0E9D
:1004580001397604031D272A2000460886008701F3
:100468000108240099000130F60076082000C6072C
:10047800422A3E30F60076082000C70024001D16E8
:10048800200014102100941C08002000941C08006F
:10049800941008002000911D9A2A2100911D9A2A83
:1004A8002400941E712A141D642A161B982A140805
:1004B8000139F600150E01397604031D5B2A842ADA
:1004C8001108F60020005A08860087017608810086
:1004D8000130F6007608DA07962A941A982A110845
:1004E800141D912A4930F60076082000D90024000E
:1004F80014080139F600150E01397604031D7B2A0C
:100508002000590886008701010824009100013065
:10051800F60076082000D907962A5130F6007608AA
:100528002000DA0024001516200091112100921DE8
:1005380008002000921D08009211080084316224EE
:10054800823122000C178331A823823181318B211B
:10055800823184312F2482312000181484318C2474
:10056800823184319F2482318431E3248231F10144
:1005780002308231EB228231003A0319CD2A03304E
:1005880071020318CD2A01302000E6006608F10741
:10059800D92A01308231EB228231003A0319D92A53
:1005A80071080319D92A0130F1028431D324823128
:1005B8007108003A0319BC2A013A0319BC2A033A04
:1005C8000319BC2A013A0319BC2ABC2ABC2A2000F8
:1005D800E50003306502031CF32A003008006508B3
:1005E8002B3E860087010108E000E101E009E109EE
:1005F800E00A0319E10A65082E3E86008701010812
:100608006007E20061080318610AE3006308803AA2
:10061800E40080306402031D132B65306202031C62
:100628002D2B20006508283E860087010108031D40
:100638002D2B6430E0006508283E8600870160089D
:1006480081006430DE000030DF0085311425013080
:100658000800003008002000E000D530890B322B5C
:10066800000020006008DE0004300310DE1B0314C5
:10067800DE0C890B392B03305E05DF00600E0F3965
:100688008919F0380C3909075F048D0022000C160F
:10069800003200320032003222000C1200320032E6
:1006A80000320032033020006005DE0060080C399B
:1006B80009075E048D0022000C1600320032003259
:1006C800003222000C1200320032003200320800E0
:1006D800543481344F3481345E348134103481345D
:1006E800E6348034F23480340A348134C3348034BC
:1006F800BC348034CA34803492348034D834803462
:100708008A348034823480347A3480347234813448
:100718002234813477348134283481347C348134F0
:100728002E348134813481343434813486348134B4
:100738003A348134633481341634813468348134F2
:100748001C3481346D3481347F302000DE005E0833
:1007580021008C057F302000DE005E0823008C0518
:1007680022009D1520001C089C141C159A01FF30BE
:100778009B003F30DE005E0825009A050C30200003
:10078800DE005E0825009A04F3302000DE005E08D3
:1007980025009E059801080074082B3E86008701F5
:1007A8000108F60074082E3E86008701760881004D
:1007B8007F30F600760820009E051508F6007408BC
:1007C8002B3E860087017608810095019E177408E4
:1007D800F40AF600033076020318F40174089F0047
:1007E80008004034813445348134593481344A34E2
:1007F8008134F8348034FE34803404348134EC3469
:100808008034A7348034D1348034AE348034B53465
:100818008034DF34803499348034A0348034250027
:100828001A08CF39F8007808FA007708F90076082E
:10083800F800F936F80CF936F80C780898007608BC
:100848000339F8000330F835FF3E031D272C7835AF
:100858007A049A00080021000D17BF302000DE003E
:100868005E0823008D0520001815F730DE005E08AD
:100878009805180898179901FF309700F5309600E9
:100888001110210011140B178B1708002000111CE0
:10089800602C2100111C602C0A302000A4070030B5
:1008A800A53D0030A63D0030A73DFF309700F5304C
:1008B800960011100130080000300800F0302100C7
:1008C800990007308C00073023008C00403021004D
:1008D8008D0023008D01083022009D009E0120001C
:1008E8008C018D010800720873040319862C0130ED
:1008F800F2020030F33BFF30F6000130F70084319C
:10090800132408000030F600F7008431132408008F
:100918008431F124210015089515951620009501BC
:100928001E140C30DF005F089E047F30DF005F0874
:100938009E059F0108007D30280096009501033030
:100948002000DE005E08280097041708171520000D
:100958009310210093140B178B1708002000280808
:100968000319B82C0130A80229080319BD2C01303D
:10097800A9022A08031908000130AA020800220067
:100988008C11013083312F23843115302000E10090
:10099800C630890BCD2CE10BCD2C000008002200BD
:1009A8008C11023083312F23843115302000E1006F
:1009B800C630890BDD2CE10BDD2C0000080032303D
:1009C80028009D009C019E141E081E1520009311EE
:1009D800210093150B178B17080007302000DE0045
:1009E8005E0821008C0407302000DE005E0823002A
:1009F8008C0408002100931D072D2000931D072D4E
:100A0800931101300800003008002100931C122DBA
:100A18002000931C122D93100130080000300800AC
:100A280072087304031D080020005F08F3005E08C5
:100A3800F200080001302000A0070030A13D00307E
:100A4800A23D0030A33D0800FE0012001E00FE0B70
:100A5800292D0034640080010131890B2F2D0034C9
:0C0A680082314E2285318131FA210800D4
:020000040001F9
:04000E00C4CFFFDD7F
:00000001FF
