:0400000080312B28F8
:100008007E14803120007F08FB008E31432680312A
:10001800003A03191228403022008C068D314D25F4
:100028008031003A031924288D31812580318F31A0
:10003800C62780318E31F12680318D31E925803116
:100048008D3114257B082000FF007E1009008031C7
:100058002D28E130840087308500A03086000030EC
:1000680087001E308D312B258031A53084008730E4
:10007800850020308600013087003C308D312B25EB
:100088008031F001F101F201F301F401F501613071
:100098008400003085000C308D3125258031BE303C
:1000A8008400003085001D308D3125257E1020000C
:1000B8008331BC2B48302000D0005008DC002000E1
:1000C8004708D1004608D000C60A0319C70A5008D5
:1000D8008400510885000008D2005208E00060083A
:1000E800031908002530600603197F2860088D3140
:1000F8003A25803163282000DE01DF01DD018928EF
:100108005D150130C6070030C73D46088400470822
:1001180085000008303A031984289228460884008C
:100128004708850000088D3172258031031CD228CC
:100138002000DE01DF010A302000A0000030A1000D
:100148005F08A3005E08A2008E319426803120004B
:100158002108DF002008DE004608840047088500E3
:100168000008D03ED000FF3003180030D1005008FE
:10017800DE075108DF3D0130C6070030C73D46089D
:1001880084004708850000088D3172258031031CE2
:10019800D2289F285D16D2285D17F028200047082E
:1001A800D1004608D000C60A0319C70A50088400BF
:1001B800510885000008E000003A0319252A643A2E
:1001C8000319F0280D3A0319F028053A0319CE2827
:1001D800193A0319D02863285D1B27295D1E0129B8
:1001E8005C0886008701403FD800413FD900423F64
:1001F800DA00433FDB00043012295C0886008701DF
:10020800403FD000413FD1005008D8005108D900E4
:10021800890D893B8909DA00DB000230D0005008DB
:10022800DC07DB1F47290330D0005008DD04D8095C
:10023800D909DA09DB09D80A0319D90A0319DA0A2C
:100248000319DB0A47295D1E36295C0886008701E9
:10025800403FD800413FD900423FDA00433FDB002E
:10026800043044295C0886008701403FD000413FA4
:10027800D1005008D8005108D900DA01DB0102305A
:10028800D0005008DC07E001E00A0A3060060319D4
:100298007A296008D000D101D035D10DD035D10DE3
:1002A8002630500784008230513D8500003FD2003F
:1002B800013FD300023FD400033FD50055085B023D
:1002C800031D702954085A02031D70295308590246
:1002D800031D702952085802031C7A290130D000E6
:1002E8005008E0070A306006031D4D295E085F04C8
:1002F800031986295D08033903198629FF30DE07AB
:10030800FF30DF3D6008D000D101D01BD103510878
:10031800803AD2005F08803A5202031D95295E0890
:1003280050020318A22920006008D000D101D01B78
:10033800D1035008DE025108DF3BA5292000DE0169
:10034800DF015D1DBE295D0803390319AF292D3072
:100358008D313A25803120005E085F040319D729C2
:1003680030308D313A258031FF302000DE07FF30F4
:10037800DF3DB0295E085F040319CF2920308D3195
:100388003A258031FF302000DE07FF30DF3D5E0870
:100398005F04031DC2295D0803390319D7292D30CD
:1003A8008D313A25803120006008D600D701D61B50
:1003B800D703FF302000D607FF30D73D560A031970
:1003C800570A031963280030BD000030BC00003014
:1003D800BB000A30BA0057088500560884008435E7
:1003E800850D8435850D263084078230853D003F94
:1003F800AC00013FAD00023FAE00033FAF005B0819
:10040800B3005A08B2005908B1005808B000863144
:100418000626803120002F08C1002E08C0002D08B4
:10042800BF002C08BE008631E826803120003A083B
:10043800303ED0005008E00060088D313A25803108
:10044800DD29080001340034003400340A34003453
:10045800003400346434003400340034E8340334A5
:10046800003400341034273400340034A034863487
:1004780001340034403442340F340034803496342C
:10048800983400340034E134F53405340034CA3487
:100498009A343B3499340134C2340134EB34013496
:1004A800143402343D340234663402348F34023456
:1004B800B8340234E13402340A34033433340334B4
:1004C8005B34033484340334AD340334D634033416
:1004D8006434643464342034203443346F347534E1
:1004E8006E347434743469346E3467342E342E3474
:1004F8002E342034203400342034253437346C34FE
:1005080075342034203425343034323464343A3469
:1005180025343034323464340034203443346F3476
:1005280075346E3474342034533474346F34703406
:1005380070346534643420340034253437346C34F2
:1005480075342034253437346C34753400343234FF
:100558003734373434343534363432340034313483
:100568003934343430343634373433340034313475
:10057800333433343634303430343634003436346B
:10058800303430343034303430340034373430346C
:10059800303438343934303400343934363438343B
:1005A8003434373432340034313430343834383435
:1005B800343433340034323434343234333436342B
:1005C800343400343334353431343134323437341C
:1005D8000034323434343734363434343734003435
:1005E80031343534333432343234383400343334FB
:1005F80038343934393438343834003431343634D2
:1006080034343134333439340034393430343334D5
:1006180038343934393400343434393439343934A9
:1006280039343934003433343034303430343034BD
:1006380000343734303435343034303400343534E1
:10064800333435343534333400343134363431349A
:100658003234353400343234373432343334383485
:10066800003434343434343437343834003439349E
:100678003234303438343834003431343634303469
:1006880039343934003431342E3430343534563436
:10069800003431342E343134353456340034303467
:1006A8002E34353435345634003430342E34363420
:1006B80035345634003430342E34373435345634E7
:1006C800003430342E343834353456340034303431
:1006D8002E343934353456340034313432343534E8
:1006E800303400343234353438343034003439342A
:1006F80031343834323400343334393435343734DF
:1007080000343134373437343734003434343934FE
:1007180039343834003438343234313439340034EC
:1007280031342E3430345634003431342E343134AC
:100738005634003431342E343234563400343034A4
:100748002E3435345634003430342E34363456345E
:10075800003430342E3437345634003430342E34A8
:1007680038345634003430342E3439345634003466
:100778008D31A125833122000C178F311727833142
:100788008531432583318E31D02683318D311D2526
:1007980083318D31D62583318D31C32583318E3117
:1007A800B02683314E30840082308500003F20001F
:1007B800B000013FB1008F31672783315A30840080
:1007C80082308500003F2000B000013FB1008F312A
:1007D800672783318A2C0230863159268331003AC3
:1007E8000319092C8D311D2583318D3191258331D4
:1007F80020006908031D072C02302100DB005B087C
:100808002000E9009E2CE9019E2C013086315926F2
:100818008331003A03199E2C20006908031D9E2C81
:100828008D31FE2583319E2C2000A30100308E31AE
:10083800132683316F302000C60082302D2C200013
:10084800A30100308E311326833191302000C60079
:100858008230C700522C2000A30100308E311326AD
:100868008331A1302000C6008230C70087312B2792
:10087800833120003D08CB003C08CA003B08C90072
:100888003A08C8008F313F27833120004108CF0044
:100898004008CE003F08CD003E08CC0080315E20E5
:1008A80083312000A301A30A00308E31132683313F
:1008B80080302000C6008230C7008D31B2258331D8
:1008C80020002308CB002208CA002108C9002008FC
:1008D800C8008D31172583312100DB00DC015B085E
:1008E8002000CC0021005C082000CD008D311A25A5
:1008F80083312100DD00DE015D082000CE002100EB
:100908005E082000CF0080315E20833100308631C0
:1009180059268331003A0319EF2B20006908031D7B
:10092800EF2B8D31202583318D31912583312000A6
:10093800E901E90A20006908003A0319232C013A61
:100948000319182C033A03192F2C8A2C8A2C2000FF
:10095800A400A701372D053024001C052000A200A3
:1009680024001E081F3920002204031DAF2C240078
:100978001E14053024001C052000A20024001E08B7
:100988001F3920002204031DBD2C243524009900A2
:100998001C19CC2C00301E1B01302000A700270892
:1009A800031D032DA501DC2C0130A2002208A50798
:1009B800210825020318032D053024001C052000FA
:1009C800A20024001E081F3920002204031DE02C69
:1009D80025082007A20022088600870101082400B4
:1009E80099001C19F52C00301E1B01302000A700AF
:1009F80027080319D82C0230A2002208A7000530C6
:100A080024001C052000A20024001E081F39200015
:100A18002204031D032D24001E15402D24009C1DB7
:100A28001C1E342D2000A6012108260203182F2D94
:100A380026082007A2002208860087010108A300D3
:100A48002608C83E86008701230881000130A200DD
:100A58002208A607182D2108A2002208A700402D69
:100A68002000A701402D21005A08003A0319AF2C95
:100A7800013A0319122D402D2000270808002200F2
:100A88008C110C1202302000A5003830A400AD30C3
:100A9800890B4C2DA40B4C2DA50B4C2D033020009D
:100AA8008D0022000C160032003200320032220083
:100AB8000C12003200320032003234302000A40020
:100AC800F130890B652DA40B652D003222000C1620
:100AD800003200320032003222000C1200320032A2
:100AE8000032003205302000A4002630890B7A2D10
:100AF800A40B7A2D000022000C16003200320032BE
:100B0800003222000C12003200320032003205306E
:100B18002000A4002630890B8F2DA40B8F2D0000F8
:100B2800023020008D0022000C1600320032003204
:100B3800003222000C12003200320032003228301B
:100B48008731682785310C308731682785318D31A9
:100B58009125853106308731682708002000141C4C
:100B6800FE2D2100141CFE2D24009C1ED52D1C1DBD
:100B7800C82D1E1BFC2D1C080139F6001D0E01395D
:100B88007604031DBF2DE82D1908F6002100590829
:100B980086008701760881000130F6007608D907BB
:100BA800FA2D9C1AFC2D19081C1DF52DC830F600CD
:100BB80076082100D80024001C080139F6001D0E13
:100BC80001397604031DDF2D2100580886008701AE
:100BD8000108240099000130F60076082100D807A2
:100BE800FA2DD030F60076082100D90024001D1611
:100BF800200014102100941C08002000941C0800F8
:100C08009410080000302000B8000030B700003011
:100C1800B6000030B5002F082E042D042C0403194B
:100C2800502EB901B90AAF1B252E0130AC35AD0DD8
:100C3800AE0DAF0D890B1A2E0130B4003408B90778
:100C4800172E0130B535B60DB70DB80D890B262E08
:100C58002F083302031D3A2E2E083202031D3A2EA6
:100C68002D083102031D3A2E2C083002031C452E94
:100C78002C08B0022D08B13B2E08B23B2F08B33B1D
:100C880035140130AF36AE0CAD0CAC0C890B462ECA
:100C98000130B902031D252E3808AF003708AE0011
:100CA8003608AD003508AC0008002000A700033066
:100CB8002702031C612E003008002708C53E860065
:100CC80087010108A200A301A209A309A20A031926
:100CD800A30A2708C23E8600870101082207A4004C
:100CE80023080318230AA50027086C3E84008230D5
:100CF8000318013E85000008A6002508803A803CBC
:100D0800031D882E240826020318A22E2000270877
:100D1800703E860087010108031DA22E6430A200E0
:100D28002708703E86008701220881006430A000F1
:100D38000030A1008D314325013008000030080043
:100D48002000A4008D315825863120002108A300F9
:100D580023082100DA00D82E24009D15200022083F
:100D6800031DBA2E24009C174F30C42E20002203E6
:100D7800031DC52E7F30A300230824009C051330D3
:100D88009A002400D62E24009C0106302000A300DF
:100D9800230824009D041E142000243524009A00F2
:100DA800FE309B009D16E12E20002108003A031911
:100DB800B02E013A0319C72EE12E21001414941401
:100DC800200014109410080020003D083C043B0447
:100DD8003A040319222FC301C30ABD1BFF2E013099
:100DE800BA35BB0DBC0DBD0D890BF42E0130C20008
:100DF8004208C307F12E3D084102031D0D2F3C0890
:100E08004002031D0D2F3B083F02031D0D2F3A081A
:100E18003E02031C172F3A08BE023B08BF3B3C08A2
:100E2800C03B3D08C13B0130BD36BC0CBB0CBA0C05
:100E3800890B182F0130C302031DFF2E4108BD0086
:100E48004008BC003F08BB003E08BA00080002305A
:100E5800613E86008701403F2000AC00413FAD0065
:100E6800423FAE00433FAF00210041082000A300ED
:100E7800210040082000A20021003F082000A10016
:100E880021003E082000A0000030A7000030A60086
:100E98000330A500E830A4008F3196278731200061
:100EA8002308B3002208B2002108B1002008B000CE
:100EB8008631062620002F08BD002E08BC002D080C
:100EC800BB002C08BA0008002000A200D530890B0E
:100ED8006B2F000020002208A00004300310A01B84
:100EE8000314A00C890B722F03302005A100220ED9
:100EF8000F398919F0380C39090721048D002200AF
:100F08000C16003200320032003222000C1200327D
:100F1800003200320032033020002205A0002208EF
:100F28000C39090720048D0022000C16003200320B
:100F38000032003222000C1200320032003200323D
:100F4800080071348334763483348A3483347B34B0
:100F58008334293483342F348334353483341D3433
:100F68008334D834823402348334DF348234E63430
:100F7800823410348334CA348234D1348234853490
:100F88008334803483348F34833441348334173446
:100F98008334233483343B348334F4348234ED345F
:100FA8008234FB348234C334823409348334BB340E
:100FB8008234B3348234AB348234A334833453342C
:100FC8008334A834833459348334AD3483345F3460
:100FD8008334B234833465348334B73483346B3424
:100FE80083349434833447348334993483344D348C
:060FF80083349E348334B3
:101A28008531B225080020006208080020006108FE
:101A380008002000181008008D31FE252000181419
:101A48000800640080010131890B262D0034FE0056
:101A580012001E00FE0B2C2D003473087404031DA5
:101A680008007708F4007608F30008002000A300B7
:101A780022008C1520002308873168270800730886
:101A88007404031D080020002108F4002008F30056
:101A980008002100931D562D2000931D562D9311EB
:101AA800013008000030080024302000A000200881
:101AB80021008D04DB302000A000200823008D05C4
:101AC800080007302000A000200821008C040730FF
:101AD8002000A000200823008C0408002000A1009A
:101AE800A0013A30210203187F2D30302102031C57
:101AF8007F2DA001A00A200C080070080319862D6C
:101B08000130F002710803198B2D0130F1027208BF
:101B1800031908000130F202080022008C1101307C
:101B2800873168278D3115302000A300C630890B16
:101B38009B2DA30B9B2D00000800F030210099007D
:101B48008C0123008C0121008D0123008D012200CE
:101B58009D019E0120008C018D0108002100410893
:101B68002000A300210040082000A20021003F0817
:101B78002000A10021003E082000A00008007D30C0
:101B880028009D009C0103302000A00020082800A8
:101B98009E041E081E1520009311210093150B1793
:101BA8008B1708008D3165252100150895159516A8
:101BB800200095011E140C30A10021089E047F30DE
:101BC800A10021089E059F010800730874040319E9
:101BD800F82D0130F3020030F43BFF30F6000130FD
:101BE800F7008E31782608000030F600F7008E31B5
:101BF8007826080000302100C1000030C000003005
:101C0800BF000030BE0000302000E6000030E500D4
:101C18000030E4000030E300E101E20108002000A8
:101C2800A50022008C1120002308A4000530A4354B
:101C3800FF3E031D1B2E2435250480388731682775
:101C48008E316A30890B262E003208002000AA0047
:101C58003A2E2608A8002808A1002708A900290864
:101C6800A20025088631A4268E31402E20002A089D
:101C7800013A03192D2E402E0B178B170800200050
:101C8800111C5B2E2100111C5B2E0A30BE07003090
:101C9800BF3D0030C03D0030C13D20001810FF306E
:101CA8009700F63096001814111001300800003023
:101CB80008002000AE00712E2908AB002B08A000F8
:101CC8002A08AC002C08A10028088431AB248E31E6
:101CD8002000AD002D08AF00762E2E08013A03191A
:101CE800602E762E2F08080025001A08CF39F80034
:101CF8007808FA007708F9007608F800F936F80C41
:101D0800F936F80C7808980076080339F80003309B
:101D1800F835FF3E031D8C2E78357A049A000800AA
:101D28002000A401A501201C9D2E2208A407230839
:101D3800A53D0130A235A30D890B9E2E0130A13699
:101D4800A00C890BA32E20082104031D972E25081B
:101D5800A1002408A00008002000A501A601A701F1
:101D680001308E312A268E3120006C081F398038C8
:101D7800EC006C10F930EC05E730EC056030B00091
:101D88003008A8006C30B1003108A900AA01AA0ADD
:101D980001308E315D26080021000D17BF3020006C
:101DA800A000200823008D0524000D172000181519
:101DB800F730A000200898051808981799011810FE
:101DC800FF309700F63096001814111021001114F6
:101DD8000B178B172000181008007508C53E8600E1
:101DE80087010108F6007508C23E8600870176085B
:101DF80081007F30F600760820009E051508F60061
:101E08007508C53E860087017608810095019E17F2
:101E18000130F6007608F507033075020318F5015E
:101E280075089F0008007F302000A00020082100CE
:101E38008C057F302000A000200823008C0522009C
:101E48009D1520001C089C141C159A01FF309B004E
:101E58003F30A000200825009A050C302000A00083
:101E6800200825009A04F3302000A000200825004F
:101E78009E059801080087312B278F3120003D08E7
:101E8800C5003C08C4003B08C3003A08C200450826
:101E9800A3004408A2004308A1004208A0000030A3
:101EA800A7000030A6000030A5003C30A4008F3108
:101EB800962720002308C1002208C0002108BF007F
:101EC8002008BE0008003F302000EA056C0C0339EA
:101ED800B200B20E6A083206CF393206EA0031087B
:101EE800B3003008B2003308B200B3010F30320536
:101EF800B4006A083406F0393406EA003008B20043
:101F08003208EB006030B2003208A8006A30B30033
:101F18003308A9000230B4003408AA0001308E3119
:101F28005D26080000302000AB000030AA00003019
:101F3800A9000030A800201CA92F2408A8072508FC
:101F4800A93D2608AA3D2708AB3D0130A435A50DBB
:101F5800A60DA70D890BAA2F0130A336A20CA10C40
:101F6800A00C890BB12F2308220421042004031D8F
:101F78009F2F2B08A3002A08A2002908A1002808DF
:101F8800A00008002000181C08000130E3070030FA
:101F9800E43D0030E53D0030E63D0130E707003024
:101FA800E83D03306802E93003196702031C0800A2
:101FB8000130F8007808E10739306102031CEC2F82
:101FC8003C3061020318EC2F2C30F6000130F92F59
:101FD8003C3020006102031CFC2FE1010130F800B5
:101FE8007808E2075830F6000230F7008D313125C5
:081FF8002000E701E8010800E8
:020000040001F9
:04000E00C4CFFFDD7F
:00000001FF
