:040000008031102813
:100008007E14803120007F08F1008F31612771084C
:100018002000FF007E1009008031122821008F3156
:100028005D278031CE008F315E278031CF008F3140
:100038005F278031D0008F3160278031D100FB01EC
:100048002000E901EA01EB01EC01A0308400003056
:10005800850026308F316D277E10200084317C2C5E
:10006800200025088400260885000008A800280824
:10007800D4000130A5070030A63D54080319080034
:100088002530540603194D285408873146278031F6
:1000980034282000CF01D0012508840026088500D7
:1000A8000008A8002808D4000130A5070030A63DA4
:1000B80030305406031D6228013067282D3054065D
:1000C800031D76280230CF000030D00025088400B8
:1000D800260885000008A8002808D4000130A507D4
:1000E8000030A63DC701C801A0285408A800A901EE
:1000F8004808F3004708F2000A30F4000030F50021
:100108008F31E5278031200028087207AA002908C6
:10011800733DAB002A08D03EC700FF302B3DC80016
:1001280025088400260885000008A8002808D400AF
:100138000130A5070030A63D30305402031CA82822
:100148003A305402031C79286C3054060319B0283D
:100158004C305406031DBD284F1525088400260879
:1001680085000008A8002808D4000130A507003041
:10017800A63D5408031908005408A8002808D3000D
:1001880061305302031C33292030D3023329270856
:1001980086008701403F84008501810A0008A80085
:1001A8002808C400C901CA0149084407A80028084A
:1001B8008600870101080319EA280130C9070030C1
:1001C800CA3DD82820308731462780312000CF18F3
:1001D800FC284A08A9004908A800C90A0319CA0A3C
:1001E80048082902031DFA2847082802031CE628A4
:1001F80044088F31A827803120004A08A9004908FF
:10020800A800C90A0319CA0A48082902031D0E29A9
:1002180047082802031834282030873146278031C0
:10022800002927088600870101088400850102301B
:1002380081070008873146278031342802302000A2
:100248002A2908302A290A302A291030C500003006
:10025800C6004B29540887314627803134282000AE
:100268005308423A03192229013A03191529073A72
:10027800031927290B3A031925291C3A0319CB28F6
:10028800063A031927290D3A031929292E2920008E
:100298004F19832944305306031965292708860016
:1002A800870101088400850102308107003FA8000A
:1002B800013FA9002808BC002908BD00BE01BF01F4
:1002C8007A29270886008701010884008501023001
:1002D8008107003FA800013FA9002808BC002908A1
:1002E800BD00890D893B8909BE00BF003F08CE00CB
:1002F8003E08CD003D08CC003C08CB0093292708D8
:100308008600870101088400850104308107003FC9
:10031800CB00013FCC00023FCD00033FCE0044306C
:1003280053060319CE1FA429CB09CC09CD09CE0940
:10033800CB0A0319CC0A0319CD0A0319CE0ACF1523
:10034800D101D2014508F2004608F300F401F50195
:100358004E08F9004D08F8004C08F7004B08F60065
:1003680086315926803172082000A8002808D30059
:100378004508F2004608F300F401F5014E08F900BB
:100388004D08F8004C08F7004B08F60086310626A1
:10039800803175082000CE007408CD007308CC00A9
:1003A8007208CB000A305302031CE829783054063F
:1003B8000319E0290730E1292730C0000030C100C7
:1003C8004008A8002808D3075308303EA800510861
:1003D8002C3E86008701280881000130D1070030B3
:1003E800D23D4E084D044C044B040319022A003038
:1003F8005202103003195102031CA629CF1D102ADE
:100408002D30A80051082C3E86008701280881005D
:100418000130D1070030D23D5208CA005108C90046
:100428004F18182A2030192A3030C2000030C30073
:100438004208A8002808D300252A530887314627F0
:1004480080312000CF18372A4A08A9004908A80097
:10045800C90A0319CA0A48082902031D352A470888
:100468002802031C212A0130D1020030D23B510856
:100478002C3E8600870101088731462780312000FD
:100488005108520403194D2A372A2030873146274C
:10049800803120004A08A9004908A800C90A0319A0
:1004A800CA0A48082902031D5B2A470828020318BC
:1004B8003428492AF600E42A053024001C05F400F3
:1004C8001E081F397404031D602A1E1405301C05FC
:1004D800F4001E081F397404031D6A2A0314760DDC
:1004E80099001C19752A00301E1B0130F700770887
:1004F800031DB52AF801730878020318B52A0530D8
:100508001C05F4001E081F397404031D832A9E1558
:100518009E198C2A1908F40078087207F5007508E6
:10052800860087017408810005301C05F4001E0848
:100538001F397404031D982A7308FF3EF400FF3026
:1005480003180030F500780874067504031DAE2AF8
:100558009E16AF2A9E121E160130F4007408F80782
:100568007F2A05301C05F4001E081F397404031D7A
:10057800B52A1E15ED2A24009C1D1C1EED2AF90122
:10058800730879020318DB2A7908A83E86008701D8
:100598000108F40079087207F500750886008701DC
:1005A800740881000130F4007408F907C42AA830DF
:1005B800FF3A013E21003107F4007408F700ED2AE4
:1005C80021003208003A0319602A013A0319BF2AA8
:1005D800ED2A77080800F600752B0530240014056D
:1005E800F40016081F397404031DF12A1614053087
:1005F8001405F40016081F397404031DFB2A03149C
:10060800760D91001419062B0030161B0130F700E7
:100618007708031D462BF801730878020318462B48
:1006280005301405F40016081F397404031D142B33
:10063800961596191D2B1108F40078087207F50015
:100648007508860087017408810005301405F400D8
:1006580016081F397404031D292B7308FF3EF40084
:10066800FF3003180030F500780874067504031D80
:100678003F2B9616402B961216160130F40074087C
:10068800F807102B05301405F40016081F397404F8
:10069800031D462B16157E2B2400941D141E7E2B3D
:1006A800F9017308790203186C2B7908BB3E8600A0
:1006B80087010108F40079087207F50075088600BB
:1006C8008701740881000130F4007408F907552B7C
:1006D800BB30FF3A013E21004407F4007408F700DC
:1006E8007E2B21004508003A0319F12A013A031923
:1006F800502B7E2B77080800F600F32B05302400DA
:100708001C05F4001E081F397404031D822B1E14D7
:1007180005301C05F4001E081F397404031D8C2BBA
:10072800763599001C19962B00301E1B0130F900F4
:100738007908031DC62BF701A52B0130F4007408B6
:10074800F707730877020318C62B05301C05F40059
:100758001E081F397404031DA92B77087207F400BB
:10076800740886008701010899001C19B92B00300C
:100778001E1B0130F90079080319A12B0230F4007F
:100788007408F90005301C05F4001E081F397404AC
:10079800031DC62B1E15FC2B24009C1D1C1EF12BB3
:1007A800F801730878020318EC2B78087207F40034
:1007B8007408860087010108F5007808A03E8600C5
:1007C8008701750881000130F4007408F807D52BFB
:1007D8007308F4007408F900FC2BF901FC2B2100C4
:1007E8003208003A0319822B013A0319D02BFC2B4B
:1007F80079080800F600712C053024001405F4006F
:1008080016081F397404031D002C1614053014052E
:10081800F40016081F397404031D0A2C763591005C
:100828001419142C0030161B0130F9007908031D27
:10083800442CF701232C0130F4007408F7077308DF
:1008480077020318442C05301405F40016081F39E4
:100858007404031D272C77087207F40074088600B7
:100868008701010891001419372C0030161B01303C
:10087800F900790803191F2C0230F4007408F900F4
:1008880005301405F40016081F397404031D442CA0
:1008980016157A2C2400941D141E6F2CF801730869
:1008A800780203186A2C78087207F4007408860026
:1008B80087010108F5007808B33E860087017508AE
:1008C80081000130F4007408F807532C7308F40011
:1008D8007408F9007A2CF9017A2C21004508003AAD
:1008E8000319002C013A03194E2C7A2C79080800B8
:1008F8008F31BB27843156302000E1006108F700B2
:10090800F801F80AF90101308731CA2784318431A6
:10091800F524843167302000EB000F30EC00210013
:100928005108C9005008C8004F08C7004E08C60043
:1009380056302000E1006108A000C630E2006208DD
:10094800A1000430E3006308A200013087319F272B
:1009580084312000E40064082100CA0056302000D9
:10096800E1006108A000CA30E2006208A10004307A
:10097800E3006308A2000130873173278431F50151
:1009880000308F31D0278431F3302000D5008730F4
:10099800D60021004A082000E100E2016108D700E2
:1009A8006208D80021004B082000E300E401630836
:1009B800D9006408DA0021004C082000E500E601AF
:1009C8006508DB006608DC0021004D082000E70010
:1009D800E8016708DD006808DE008F319827843158
:1009E8009C2C20000C128C110230F7003830F600D5
:1009F800AD30890BFD2CF60BFD2CF70BFD2C000000
:100A0800033020008D008C15003200320032003295
:100A180020008C1100320032003200323430F600EF
:100A2800F230890B152DF60B152D20008C15003290
:100A380000320032003220008C11003200320032C5
:100A480000320530F6002630890B282DF60B282DAC
:100A5800003220008C1500320032003200322000B3
:100A68008C1100320032003200320530F600263098
:100A7800890B3C2DF60B3C2D0032023020008D00F6
:100A88008C15003200320032003220008C11003206
:100A9800003200320032283086319C2684310C30F6
:100AA80086319C2684318F318927843106308631FE
:100AB8009C2608002000141CAA2D2100141CAA2D15
:100AC80024009C1E812D1C1D742D1E1BA82D1C0886
:100AD8000139F0001D0E01397004031D6B2D942D92
:100AE8001908F0002100310886008701700881008C
:100AF8000130F0007008B107A62D9C1AA82D19081E
:100B08001C1DA12DA030F00070082100B0002400A9
:100B18001C080139F0001D0E01397004031D8B2DCE
:100B2800210030088600870101082400990001305F
:100B3800F00070082100B007A62DA830F00070085A
:100B48002100B10024001D16200014102100941C5F
:100B580008002000941C0800941008002000911D33
:100B6800FE2D2100911DFE2D2400941ED52D141D4F
:100B7800C82D161BFC2D14080139F000150E01397B
:100B88007004031DBF2DE82D1108F0002100440852
:100B980086008701700881000130F0007008C407E2
:100BA800FA2D941AFC2D1108141DF52DB330F00000
:100BB80070082100C300240014080139F000150E44
:100BC80001397004031DDF2D2100430886008701C9
:100BD8000108240091000130F00070082100C307CB
:100BE800FA2DBB30F00070082100C400240015164F
:100BF800200091112100921D08002000921D08007C
:100C08009211080000302000A3000030A20000303C
:100C1800A1000030A000750874047304720403195D
:100C2800502EA401A40AF51B252E0130F235F30D30
:100C3800F40DF50D890B1A2E0130FA007A08A40775
:100C4800172E0130A035A10DA20DA30D890B262E5C
:100C580075087902031D3A2E74087802031D3A2E8E
:100C680073087702031D3A2E72087602031C452E7C
:100C78007208F6027308F73B7408F83B7508F93BED
:100C880020140130F536F40CF30CF20C890B462EC7
:100C98000130A402031D252E2308F5002208F400C4
:100CA8002108F3002008F200080075087404730492
:100CB80072040319932E2000A001A00AF51B702EC0
:100CC8000130F235F30DF40DF50D890B652E013069
:100CD800FA007A08A007622E75087902031D7E2E95
:100CE80074087802031D7E2E73087702031D7E2E7A
:100CF80072087602031C882E7208F6027308F73B06
:100D08007408F83B7508F93B0130F536F40CF30C20
:100D1800F20C890B892E0130A002031D702E790870
:100D2800F5007808F4007708F3007608F200080068
:100D3800F400D530890B9E2E00007408F2000430B0
:100D48000310F21B0314F20C890BA42E0330720556
:100D5800F300740E0F398919F0380C390907730438
:100D680020008D008C150032003200320032200045
:100D78008C11003200320032003203307405F20068
:100D880074080C390907720420008D008C15003294
:100D980000320032003220008C1100320032003262
:100DA80000320800F6008F317E2786317308F5007F
:100DB80075082100B200FF2E24009D157408031D3C
:100DC800E82E9C174F30F02E7403031DFD2E7F3044
:100DD800F50075089C0513309A00FD2E24009C012F
:100DE8000630F50075089D041E1476359A00FE300D
:100DF8009B009D16072F7308003A0319E02E013A4D
:100E08000319F22E072F2100141494142000141033
:100E180094100800F6008F31732787317308F500A6
:100E280075082100C500372F240095157408031D87
:100E3800202F94174F30282F7403031D352F7F3030
:100E4800F5007508940513309200352F240094019D
:100E58000630F50075089504161476359200FE30B4
:100E6800930095163F2F7308003A0319182F013A7B
:100E780003192A2F3F2F2100911592152000911157
:100E880092110800F7000A307706031D552F193014
:100E9800F6007608F50020006C088A006B080A0046
:100EA80087317B080319642F7708F6007B088600D2
:100EB8008701760881000130F6007608FB070800F4
:100EC80020006B086C04031908007708F600760800
:100ED800F5006C088A006B080A00873108002000BA
:100EE800A700962F2108A3002308F2002208A400D7
:100EF8002408F30020088231EF222000A5002508ED
:100F0800A60008002108A3002308F2002208A40074
:100F18002408F300200882315E222000A50025085D
:100F2800A60008002708003A0319762F013A03198A
:100F3800862F9E2F08002000A600C02F2108A3009E
:100F48002308F2002208A4002408F30020088331B3
:100F5800FE238731BB2F2108A3002308F2002208B3
:100F6800A4002408F300200883318023873120005F
:100F7800A5002508A700C82F2608003A0319A22FA4
:100F8800013A0319AF2FC82F27080800FA00E82FE5
:100F980078082000A0002008F3007908A1002108A3
:100FA800F400770887310E278731F02F7808200062
:100FB800A0002008F3007908A1002108F4007708B0
:100FC8008631D6268731F02F7A08003A0319CC2FBC
:100FD800013A0319DA2FF02F0B178B170800253465
:100FE8006434203425346434203425346434203483
:100FF8002534643400342534303438346C3458346F
:101008002034003420342534303438344C345834C7
:101018000034203425343034323458340034203409
:0E102800253430343434583400340D34003460
:101EBA0013346234053406348531B2258F318531C5
:101ECA005E25080020000C16750886319C2608003D
:101EDA00640080010131890B6E2F00341230F20048
:101EEA00720821008D04ED30F200720823008D057E
:101EFA0008002430F200720821008D04DB30F20061
:101F0A00720823008D05080020000C12013086316A
:101F1A009C268F311530F500C630890B922FF50BB0
:101F2A00922F0032080057302000DF005F08E000DF
:101F3A005608A6005508A5006030DF005F08A70014
:101F4A00803134200800F9007908860087010108E9
:101F5A000319080079088600870101088731462796
:101F6A008F310130F8007808F907A92FF0302100E5
:101F7A00990007308C00073023008C004030210084
:101F8A008D0023008D01083022009D009E01200053
:101F9A008C018D010800F70020000C127508F6006C
:101FAA000530F635FF3E031DD62F76357704803887
:101FBA0086319C268F316A30890BE12F0032080066
:101FCA00F601F701721CED2F7408F6077508F73D44
:101FDA000130F435F50D890BEE2F0130F336F20C92
:101FEA00890BF32F72087304031DE72F7708F30098
:061FFA007608F200080069
:020000040001F9
:04000E00C4CFFFDD7F
:00000001FF
