:0400000080310D2816
:100008007E14803120007F08F0007008FF007E1009
:10001800090080310F28FC01403084000030850041
:100028000E308231F7227E1020008231802A2F3054
:100038002000B1003108BE0020002E08B2002D08B3
:10004800B100AD0A0319AE0A3108840032088500F0
:100058000008B3003308BF003F0803190800253023
:100068003F0603193C283F088231F02280312028BE
:100078002000B701462837164628C030B10031089D
:10008800B7045D282E08B2002D08B100AD0A031987
:10009800AE0A31088400320885000008BF00003A23
:1000A8000319FD286C3A03193F28193A0319412806
:1000B8002028371E6C283E0886008701403FBA007A
:1000C800413FBB00423FBC00433FBD0004307A289B
:1000D8003E0886008701403FB100413FB200310829
:1000E800BA003208BB00BC01BD010230B1003108C2
:1000F800BE07BF01BF0A0A303F060319B0283F08F0
:10010800B100B201B135B20DB135B20DBA30310717
:1001180084008130323D8500003FB300013FB400C8
:10012800023FB500033FB60036083D02031DA6286E
:1001380035083C02031DA62834083B02031DA628E7
:1001480033083A02031CB0280130B1003108BF0758
:100158000A303F06031D83283F08B800B901B81BC1
:10016800B903FF302000B807FF30B93D380A03193A
:10017800390A031920280030A8000030A7000030F1
:10018800A6000A30A500390885003808840084359F
:10019800850D8435850DBA3084078130853D003F53
:1001A800F100013FF200023FF300033FF4003D0875
:1001B800F8003C08F7003B08F6003A08F5008131E2
:1001C8006721803174082000AC007308AB00720806
:1001D800AA007108A9008231032280312000250875
:1001E800303EB1003108BF003F088231F022803133
:1001F800B528080020008C110C120230F6003830A7
:10020800F500AD30890B0629F50B0629F60B0629F2
:100218000000033020008D000C160032003200323E
:10022800003220000C12003200320032003234302A
:10023800F500F230890B1E29F50B1E2920000C163B
:10024800003200320032003220000C12003200323C
:10025800003200320530F5002630890B3129F50BC4
:100268003129003220000C160032003200320032F0
:1002780020000C1200320032003200320530F50046
:100288002630890B4529F50B45290032023020001C
:100298008D000C16003200320032003220000C12A1
:1002A800003200320032003228308231462280315A
:1002B8000C308231462280318231E1228031063091
:1002C80082314622080000302000A3000030A2003E
:1002D8000030A1000030A000740873047204710497
:1002E8000319B129A401A40AF41B86290130F135A8
:1002F800F20DF30DF40D890B7B290130F900790813
:10030800A40778290130A035A10DA20DA30D890BF2
:10031800872974087802031D9B2973087702031D37
:100328009B2972087602031D9B2971087502031C1C
:10033800A6297108F5027208F63B7308F73B7408A2
:10034800F83B20140130F436F30CF20CF10C890B55
:10035800A7290130A402031D86292308F4002208D6
:10036800F3002108F2002008F100080001340034ED
:10037800003400340A340034003400346434003467
:1003880000340034E83403340034003410342734A3
:1003980000340034A034863401340034403442340C
:1003A8000F34003480349634983400340034E13407
:1003B800F53405340034CA349A343B3425343034A7
:1003C80038346C34583420340034203425343034F4
:1003D80038344C34583400342034253430343234F2
:1003E800583400342034253430343434583400340C
:1003F80025346C347534203400340D340034200036
:10040800280827042604250403193D2AFB01FB0AB2
:10041800A81B1A2A0130A535A60DA70DA80D890B12
:100428000F2A0130FA007A08FB070C2A28082C0248
:10043800031D282A27082B02031D282A26082A021A
:10044800031D282A25082902031C322A2508A90287
:100458002608AA3B2708AB3B2808AC3B0130A83646
:10046800A70CA60CA50C890B332A0130FB02031D2F
:100478001A2A2C08A8002B08A7002A08A600290871
:10048800A5000800F300D530890B482A000073083E
:10049800F10004300310F11B0314F10C890B4E2AF0
:1004A80003307105F200730E0F398919F0380C39D1
:1004B8000907720420008D000C1600320032003249
:1004C800003220000C1200320032003200320330B9
:1004D8007305F10073080C390907710420008D00B9
:1004E8000C16003200320032003220000C120032AA
:1004F80000320032003208008231CC22823182314F
:100508009D228231200018148031FE208231F401AE
:1005180000308231B7228231FC302000AD008130BA
:10052800AE001708B0001608AF0080311B208231DA
:100538008B2A21000D17BF30F100710823008D05AB
:1005480020001815F730F100710898051808981759
:100558009901FF309700F530960011102100111411
:100568000B178B170800F60020008C117408F50093
:100578000530F535FF3E031DBD2A753576048038F4
:100588008231462282316A30890BC82A003208003B
:10059800F0302100990007308C00073023008C00D0
:1005A800403021008D0023008D01083022009D007D
:1005B8009E0120008C018D01080020008C11013063
:1005C8008231462282311530F400C630890BEA2A7E
:1005D800F40BEA2A00320800F40020008C15740895
:1005E800823146220800640080010131890BF82A13
:0205F8000034CD
:020000040001F9
:04000E00C4CFFFDD7F
:00000001FF
