:0400000080312B28F8
:100008007E14803120007F08FB008A311B2280315A
:10001800003A03191228403022008C068931002149
:100028008031003A0319242889314A2180318C31E2
:100038006A2480318B31082380318931D62180317F
:100048008831CC207B082000FF007E100900803119
:100058002D28883084008A308500C830860000301A
:1000680087001E308831DE208031A53084008C3036
:10007800850020308600013087003C308831DE2042
:100088008031F001F101F201F301F401F501EC0115
:10009800ED01EE01EF01A03084000030850028302A
:1000A8008831D8207E10200084318E2C48302000E2
:1000B800D0005008E00020004708D1004608D000D2
:1000C800C60A0319C70A50088400510885000008A9
:1000D800D2005208E20062080319080025306206BF
:1000E80003197B2862088831ED2080315F282000C1
:1000F800E301E401E101852861150130C6070030FC
:10010800C73D46088400470885000008303A0319AF
:1001180080288E2846088400470885000008893111
:100128003B218031031C27292000E301E4010A3028
:100138002000A0000030A1006408A3006308A2000A
:100148008A316C22803120002108E4002008E30075
:1001580046088400470885000008D03ED000FF30DC
:1001680003180030D1005008E3075108E43D01307E
:10017800C6070030C73D46088400470885000008C8
:1001880089313B218031031C27299B2861162729A7
:10019800600886008701403FD800413FD9000230FF
:1001A800D0005008E00758085904031DDF28DB3049
:1001B800D8008330D900DA01DB0158085A078400D7
:1001C80059085B3D850012000319EF280130DA0752
:1001D8000030DB3DE12864085B02031DF528630855
:1001E8005A020318FC285A08E3025B08E43BFE287D
:1001F800E301E401FF302000E307FF30E43D630A38
:100208000319640A03191A2920308831ED20803136
:10021800FE28580884005908850000088831ED2018
:10022800803101302000D8070030D93D0130DA0292
:100238000030DB3B5A0A031D0D295B0A03195F28AE
:100248000D296117482920004708D1004608D00029
:10025800C60A0319C70A5008840051088500000817
:10026800E200003A03197D2A643A031948290D3A35
:1002780003194829053A0319CA281F3A0319CC2833
:10028800063A031925295F28611B7F29611E592910
:10029800600886008701403FDC00413FDD00423FA7
:1002A800DE00433FDF0004306A29600886008701CA
:1002B800403FD000413FD1005008DC005108DD002C
:1002C800890D893B8909DE00DF000230D000500823
:1002D800E007DF1F9F290330D0005008E104DC0944
:1002E800DD09DE09DF09DC0A0319DD0A0319DE0A64
:1002F8000319DF0A9F29611E8E296008860087017D
:10030800403FDC00413FDD00423FDE00433FDF006D
:1003180004309C29600886008701403FD000413F97
:10032800D1005008DC005108DD00DE01DF01023099
:10033800D0005008E007E201E20A0A306206031919
:10034800D2296208D000D101D035D10DD035D10DD8
:100358007E30500784008230513D8500003FD20036
:10036800013FD300023FD400033FD50055085F0288
:10037800031DC82954085E02031DC82953085D02DD
:10038800031DC82952085C02031CD2290130D00081
:100398005008E2070A306206031DA52963086404B1
:1003A8000319DE29610803390319DE29FF30E30741
:1003B800FF30E43D6208D000D101D01BD1035108C1
:1003C800803AD2006408803A5202031DED2963087E
:1003D80050020318FA2920006208D000D101D01B6E
:1003E800D1035008E3025108E43BFD292000E30152
:1003F800E401611D162A610803390319072A2D3003
:100408008831ED20803120006308640403192F2A05
:1004180030308831ED208031FF302000E307FF3095
:10042800E43D082A630864040319272A2030883128
:10043800ED208031FF302000E307FF30E43D630802
:100448006404031D1A2A6108033903192F2A2D3061
:100458008831ED20803120006208D600D701D61BF4
:10046800D703FF302000D607FF30D73D560A0319BF
:10047800570A03195F280030BD000030BC00003067
:10048800BB000A30BA005708850056088400843536
:10049800850D8435850D7E3084078230853D003F8B
:1004A800AC00013FAD00023FAE00033FAF005F0864
:1004B800B3005E08B2005D08B1005C08B0008E3180
:1004C8002D26803120002F08C1002E08C0002D08DD
:1004D800BF002C08BE008D315B25803120003A0812
:1004E800303ED0005008E20062088831ED208031AB
:1004F800352A080001340034003400340A3400344A
:10050800003400346434003400340034E8340334F4
:10051800003400341034273400340034A0348634D6
:1005280001340034403442340F340034803496347B
:10053800983400340034E134F53405340034CA34D6
:100548009A343B34643464346434203420342034A2
:100558005334653472342E344E346F342E3425348B
:10056800303430343034333464342034203420345C
:1005780000342034203420342034773469347434FF
:1005880068342034503449344334203420342034FF
:100598002034003444346534763465346934633443
:1005A80065343A34483437343834323436342034C5
:1005B80020342034003420342034203450344D3456
:1005C80054342034443465347634693463346534BF
:1005D800203420342034003420342034533465341B
:1005E8007434203450344D34543420344734613416
:1005F80069346E3420342034003420344734653470
:100608006934673465347234203443346F34753454
:100618006E347434653472342034003444346534B0
:10062800763465346934633465343A34483437345D
:100638003834323436345F343034313400343C3476
:100648002D342D342034203448343734383432347F
:1006580036342034203420342D342D343E340034C4
:100668003C342D342D342034483437343834323443
:1006780036345F343034313420342D342D343E3424
:10068800003420342034523479346F3420345734D1
:1006980061346B346134623461347934733468346E
:1006A800693400342034203443346F3475346E3464
:1006B8007434743469346E3467342E342E342E34E2
:1006C8002034203400342034253437346C347534E5
:1006D8002034203425343034323464343A342534E8
:1006E8003034323464340034203443346F34753455
:1006F8006E3474342034533474346F34703470343A
:10070800653464342034003453346F3474345734CB
:100718006134723465342034763465347234253467
:100728007334003420344734613469346E343A34D5
:100738002034253438347334203400343C342D3498
:100748002D34203425343834733420342D342D346A
:100758003E3400344334723465346134743465345F
:1007680064342034423479340034253437346C34DA
:1007780075342034253437346C34753400343234CD
:100788003734373434343534363432340034313451
:100798003934343430343634373433340034313443
:1007A8003334333436343034303436340034283447
:1007B8006E3475346C346C34293400343634303447
:1007C800303430343034303400343734303430342A
:1007D80038343934303400343934363438343434F5
:1007E80037343234003431343034383438343434F3
:1007F80033340034323434343234333436343434E9
:10080800003433343534313431343234373400340D
:1008180032343434373436343434373400343134C1
:1008280035343334323432343834003433343834B1
:100838003934393438343834003431343634343493
:10084800313433343934003439343034333438348F
:100858003934393400343434393439343934393466
:1008680039340034333430343034303430340034B4
:10087800373430343534303430340034353433346C
:100888003534353433340034313436343134323459
:100898003534003432343734323433343834003475
:1008A800343434343434373438340034393432342A
:1008B8003034383438340034313436343034393420
:1008C8003934003431342E34303431340034313456
:1008D800323435343034003432343534383430340A
:1008E8000034393431343834323400343334393420
:1008F800353437340034313437343734373400340E
:1009080034343934393438340034383432343134C6
:100918003934003489317A21843122000C178B3123
:100928002E23843187318C2784318A31E722843120
:100938008831D52084318931AF21843189319C2196
:1009480084318A31A6228431C5308631EB26843140
:10095800162D02308D31E2258431003A03190B2D12
:100968008831D5208431F62C00308D31E225843150
:10097800003A0319C92C8731FB27843189315A2160
:1009880084312000EC01EC0A0B2D01308D31E22579
:100998008431003A0319D42C8931C22184310B2DBA
:1009A80002308D31E2258431003A03190B2D88314C
:1009B800D520843189315A2184310230072D003005
:1009C8008D31E2258431003A0319EF2C89315A21FF
:1009D80084310330072D02308D31E2258431003A0D
:1009E8000319FC2C89315A2184312000EC010B2D8C
:1009F80001308D31E2258431003A03190B2D8931FC
:100A08005A21843104302000E8006808EC002000F6
:100A18006C088400053004020318162D883104354B
:100A2800003E820020006C08003A0319B82C013AF5
:100A38000319AD2C033A0319E32C0B2D0B2DA3013D
:100A480000308931EB21843156302000C6008330D4
:100A5800C70080315A2084312000A301A30A003046
:100A68008931EB21843167302000C6008330C7000C
:100A780089318B21843120002308CB002208CA0049
:100A88002108C9002008C8008831CF2084312000FF
:100A9800E800E9016808CC006908CD008831D22057
:100AA80084312000EA00EB016A08CE006B08CF0011
:100AB80080315A208431162D2000A301003089315D
:100AC800EB21843178302000C6008330C7008031A4
:100AD8005A2084312000A301A30A00308931EB2178
:100AE800843167302000C6008330C70089318B21EC
:100AF800843120002308CB002208CA002108C9003D
:100B08002008C8008831CF2084312000E800E9019E
:100B18006808CC006908CD008831D22084312000D3
:100B2800EA00EB016A08CE006B08CF0080315A203A
:100B38008431162D2000A30100308931EB21843146
:100B4800B9302000C6008330C7008D311E2584319E
:100B580020003D08CB003C08CA003B08C9003A0801
:100B6800C8008B315623843120004108CF0040084B
:100B7800CE003F08CD003E08CC0080315A20843199
:100B88002000A301A30A00308931EB2184316730AA
:100B98002000C6008330C70089318B2184312000B2
:100BA8002308CB002208CA002108C9002008C80071
:100BB8008831CF2084312000E800E9016808CC00A2
:100BC8006908CD008831D22084312000EA00EB0189
:100BD8006A08CE006B08CF0080315A208431162D68
:100BE800C530863103268431FD2DC5308E31D4269B
:100BF800843102302000E8006808EC00162D20003F
:100C0800E60089316A218631DF302000C600823053
:100C1800C70080315A20863100308D31E225863177
:100C2800003A031D602E01308D31E2258631003AED
:100C380003192D2E20006608023E86008701010850
:100C4800031D2D2E6608023E860087018101810A58
:100C5800412E02308D31E2258631003A0319412EAA
:100C680020006608023E860087010103031D412E0D
:100C78006608023E8600870181012000A301A30ABD
:100C880000308931EB21863120006608023E86005B
:100C980087010108031D542E2330C60083300C2E13
:100CA80020006608023E860087010103031D102EFE
:100CB8003430C60083300C2E89316A218631F030F9
:100CC8002000C6008230C70080315A2086310030AB
:100CD8008D31E2258631003A031DD42E01308D3145
:100CE800E2258631003A0319892E2000660A86001B
:100CF80087010B3001020318892E0130E500660ACE
:100D080086008701650881079C2E02308D31E22517
:100D18008631003A03199C2E2000660A8600870156
:100D2800010803199C2E660A86008701013081029A
:100D38002000A301A30A00308931EB21863120006D
:100D48006608023E860087010108031DBB2EA230FB
:100D5800C6008330C700660A8600870101353E3E1B
:100D6800860001308700403FC800413FD22E200056
:100D78006608023E860087010103031D6B2EA23020
:100D8800C6008330C700660A860087010135203E09
:100D9800860001308700403FC800413FC900682EE7
:100DA8002000660A860087010135C83E8600870153
:100DB800403FB000413FB1008B31AA2386318931D1
:100DC8005A2186312000660889310B21080020004D
:100DD800E70067088931162186312000670A8600F6
:100DE80087010135C83E86008701403FB000413F7A
:100DF800B1008B31AA23863189316A2186310130CD
:100E08002000C6008330C70080315A208631200078
:100E1800A301A30A00308931EB218631BD302000BF
:100E2800C6008230C70080315A20863152302000F7
:100E3800E6002B30E5000030890B202FE50B202F32
:100E4800E60B202F000089315A21863189316A2129
:100E5800863188302000C6008330C7006630C8005D
:100E68008430C90080315A2086312000A301A30AAA
:100E780000308931EB218631A9302000C60082304C
:100E8800C7006708860087010108E500E6016508D4
:100E9800C8006608C90080315A20863152302000C7
:100EA800E6002B30E5000030890B582FE50B582F52
:100EB800E60B582F000089315A21863189316A2181
:100EC8008631AE302000C6008330C70080315A20FA
:100ED80086312000A301A30A00308931EB21863135
:100EE80045302000C6008330C70080315A20863143
:100EF80052302000E6002B30E5000030890B822FAD
:100F0800E50B822FE60B822F000089315A21080059
:100F180022008C110C1202302000A5003830A400E9
:100F2800AD30890B952FA40B952FA50B952F03306A
:100F380020008D0022000C160032003200320032F0
:100F480022000C120032003200320032343020000D
:100F5800A400F130890BAE2FA40BAE2F0032220073
:100F68000C16003200320032003222000C1200321D
:100F780000320032003205302000A4002630890BF0
:100F8800C32FA40BC32F000022000C16003200321E
:100F98000032003222000C120032003200320032DD
:100FA80005302000A4002630890BD82FA40BD82F99
:100FB8000000023020008D0022000C1600320032A2
:100FC8000032003222000C120032003200320032AD
:100FD80028308C31E12487310C308C31E124873181
:100FE80089315A21873106308C31E1240800893152
:100FF800C2212000181408008531602D8531232D69
:0C10080085319E2D8531F42D8531F92DA8
:101198008E3180260800210021080800210020083F
:1011A8000800200018100800640080010131890B34
:1011B800D9280034FE0012001E00FE0BDF28003480
:1011C80073087404031D08007708F4007608F30018
:1011D80008002000A30022008C15200023088C3171
:1011E800E124080073087404031D08002000210886
:1011F800F4002008F30008002100931D09292000AD
:10120800931D0929931101300800003008002000BF
:10121800AC000330AB002B08A400A5012C088C31CE
:10122800392408002000AC000330AB002B08A400D0
:10123800A5012C088B31D923080024302000A000F8
:10124800200821008D04DB302000A00020082300A6
:101258008D05080007302000A000200821008C041C
:1012680007302000A000200823008C04080020007C
:10127800A100A0013A302102031848293030210288
:10128800031C4829A001A00A200C080070080319B3
:101298004F290130F0027108031954290130F10275
:1012A8007208031908000130F202080022008C11AC
:1012B80001308C31E124893115302000A300C6307B
:1012C800890B6429A30B64290000080022008C11F3
:1012D80002308C31E124893115302000A300C6305A
:1012E800890B7429A30B742900000800F030210031
:1012F80099008C0123008C0121008D0123008D01B0
:1013080022009D019E0120008C018D010800210012
:101318002B082000A30021002A082000A200210099
:1013280029082000A100210028082000A0000800AA
:101338007D3028009D009C0103302000A00020087B
:1013480028009E041E081E152000931121009315E5
:101358000B178B17080089312E21210015089515C8
:101368009516200095011E140C30A10021089E043A
:101378007F30A10021089E059F0108000030210050
:10138800AB000030AA000030A9000030A8000030EF
:10139800A5000030A4000030A3000030A200A00186
:1013A800A1010800730874040319E5290130F30248
:1013B8000030F43BFF30F6000130F7008A3150224C
:1013C80008000030F600F7008A315022080020009B
:1013D800A50022008C1120002308A4000530A435A4
:1013E800FF3E031DF3292435250480388C31E12480
:1013F80089316A30890BFE29003208002000AA00D2
:10140800122A2608A8002808A1002708A9002908E8
:10141800A20025088D319E258A31182A20002A0825
:10142800013A0319052A182A0B178B170800200000
:10143800111C332A2100111C332A0230A80700305E
:10144800A93D0030AA3D0030AB3D20001810FF3008
:101458009700FE3096001814111001300800003073
:1014680008002000AE00492A2908AB002B08A0007C
:101478002A08AC002C08A10028088F3168278A3177
:101488002000AD002D08AF004E2A2E08013A03199E
:10149800382A4E2A2F08080025001A08CF39F800E4
:1014A8007808FA007708F9007608F800F936F80C99
:1014B800F936F80C7808980076080339F8000330F4
:1014C800F835FF3E031D642A78357A049A0008002F
:1014D8002000A401A501201C752A2208A4072308BE
:1014E800A53D0130A235A30D890B762A0130A1361E
:1014F800A00C890B7B2A20082104031D6F2A2508CC
:10150800A1002408A000080099340134C234013431
:10151800EB340134143402343D340234663402347A
:101528008F340234B8340234E13402340A340334D8
:10153800333403345B34033484340334AD34033438
:10154800D63403342000A501A601A70101308A3151
:1015580002228A3120006F081F398038EF006F108F
:10156800F930EF05E730EF056030B0003008A8002B
:101578006F30B1003108A900AA01AA0A01308A31E6
:10158800352208002000A300CA2A20006400230096
:101598009518C92A20002308A000A10120082300CB
:1015A800910020002108230092003F302000A20073
:1015B800220823009505151403101518031400308C
:1015C800093D1308080021000D17BF302000A000B6
:1015D800200823008D0524000D1720001815F7306A
:1015E800A000200898051808981799011810FF30CE
:1015F8009700FE30960018141110210011140B17D3
:101608008B172000181008007508AF3E8600870168
:101618000108F6007508AC3E86008701760881004F
:101628007F30F600760820009E051508F60075083C
:10163800AF3E860087017608810095019E1701302C
:10164800F6007608F507033075020318F5017508EA
:101658009F0008007F302000A000200821008C0592
:101668007F302000A000200823008C0522009D1553
:1016780020001C089C141C159A01FF309B003F3069
:10168800A000200825009A050C302000A0002008A2
:1016980025009A04F3302000A000200825009E05AC
:1016A800980108008D311E258B3120003D08C500AA
:1016B8003C08C4003B08C3003A08C2004508A30020
:1016C8004408A2004308A1004208A0000030A70077
:1016D8000030A6000030A5003C30A4008C3109245D
:1016E80020002308C1002208C0002108BF002008EC
:1016F800BE0008002000A30023009518802B2000BE
:101708002308A100A201210823009100200022083B
:101718002300920020002008230093003F3020007F
:10172800A100210823009505200003108B1B03143A
:101738008B132300151555309600AA309600951482
:1017480015112000031C08008B1708003F302000EB
:10175800ED056F0C0339B200B20E6D083206CF39B1
:101768003206ED003108B3003008B2003308B20089
:10177800B3010F303205B4006D083406F039340671
:10178800ED003008B2003208EE006030B2003208D6
:10179800A8006D30B3003308A9000230B400340843
:1017A800AA0001308A31352208002000A900AA01C8
:1017B80024082A020318072C25082A07A600A701CF
:1017C800A70D2708803AA80081302802031DEE2BB8
:1017D80000302602031CF22B0130080020002508E7
:1017E8002A078A31C6228B312000A6002A08290739
:1017F800A700270886008701260881000130A60077
:101808002608AA07DC2B0030080000302000AB00B7
:101818000030AA000030A9000030A800201C1C2CB1
:101828002408A8072508A93D2608AA3D2708AB3D96
:101838000130A435A50DA60DA70D890B1D2C01306F
:10184800A336A20CA10CA00C890B242C230822047B
:1018580021042004031D122C2B08A3002A08A2002F
:101868002908A1002808A00008002000A900AA0152
:1018780024082A020318682C25082A07A600A701AD
:10188800A70D2708803AA80081302802031D4E2C96
:1018980000302602031C522C0130080020002A08C0
:1018A8002907A6002608860087010108A70027083F
:1018B800A00025082A078B317E238C3101302000B7
:1018C800A6002608AA073C2C003008002000181C97
:1018D800080001302100A2070030A33D0030A43DDC
:1018E8000030A53D0130A6070030A73D0330270290
:1018F800E93003192602031C08000130F8007808B3
:10190800A00739302002031C912C3C302002031818
:10191800912C2C30F60001309E2C3C302100200206
:10192800031CA12CA0010130F8007808A107583049
:10193800F6000230F7008831E4202100A601A70153
:1019480008006B34843470348434843484347534BB
:101958008434483484344E348434543484343C34A9
:101968008434F734833421348434FE3483340534A6
:1019780084342F348434E9348334F03483347F342A
:1019880084347A3484348934843460348434363406
:101998008434423484345A348434133484340C34D4
:1019A80084341A348434E234833428348434D33489
:1019B8008334CB348334C33483342000A200D5303D
:1019C800890BE42C000020002208A000043003103A
:1019D800A01B0314A00C890BEB2C03302005A100DD
:1019E800220E0F398919F0380C39090721048D00A6
:1019F80022000C16003200320032003222000C1293
:101A08000032003200320032033020002205A000EC
:101A180022080C39090720048D0022000C16003218
:101A280000320032003222000C1200320032003242
:101A3800003208000230A03E86008701403F2000A7
:101A4800AC00413FAD00423FAE00433FAF00210034
:101A58002B082000A30021002A082000A200210052
:101A680029082000A100210028082000A00000303B
:101A7800A7000030A6000330A500E830A4008C3190
:101A880009248D3120002308B3002208B200210860
:101A9800B1002008B0008E312D2620002F08BD008F
:101AA8002E08BC002D08BB002C08BA000800200036
:101AB8003D083C043B043A040319952DC301C30AAD
:101AC800BD1B722D0130BA35BB0DBC0DBD0D890B88
:101AD800672D0130C2004208C307642D3D0841024A
:101AE800031D802D3C084002031D802D3B083F024A
:101AF800031D802D3A083E02031C8A2D3A08BE02B7
:101B08003B08BF3B3C08C03B3D08C13B0130BD36EC
:101B1800BC0CBB0CBA0C890B8B2D0130C302031D06
:101B2800722D4108BD004008BC003F08BB003E08BC
:101B3800BA0008002000A400893121218D3120003D
:101B48002108A30023082100C400D22D24009D15DC
:101B580020002208031DB42D24009C174F30BE2DF1
:101B680020002203031DBF2D7F30A300230824007B
:101B78009C0513309A002400D02D24009C010630C7
:101B88002000A300230824009D041E1420002435EF
:101B980024009A00FE309B009D16DB2D20002108B2
:101BA800003A0319AA2D013A0319C12DDB2D210092
:101BB8001414941420001410941008002000A70096
:101BC80003302702031CEA2D003008002708AF3E27
:101BD800860087010108A200A301A209A309A20A9D
:101BE8000319A30A2708AC3E8600870101082207CB
:101BF800A40023080318230AA5002708A63E84008A
:101C080082300318013E85000008A6002508803AA6
:101C1800803C031D112E2408260203182B2E2000B9
:101C28002708703E860087010108031D2B2E6430AB
:101C3800A2002708703E86008701220881006430D0
:101C4800A0000030A1008831F620013008000030E3
:101C5800080000302000B8000030B7000030B6009F
:101C68000030B5002F082E042D042C040319772EFC
:101C7800B901B90AAF1B4C2E0130AC35AD0DAE0D14
:101C8800AF0D890B412E0130B4003408B9073E2E40
:101C98000130B535B60DB70DB80D890B4D2E2F088F
:101CA8003302031D612E2E083202031D612E2D08FA
:101CB8003102031D612E2C083002031C6C2E2C08E7
:101CC800B0022D08B13B2E08B23B2F08B33B3514A8
:101CD8000130AF36AE0CAD0CAC0C890B6D2E01305B
:101CE800B902031D4C2E3808AF003708AE0036087D
:101CF800AD003508AC0008002000141CCC2E2100D3
:101D0800141CCC2E24009C1EA32E1C1D962E1E1BBC
:101D1800CA2E1C080139F6001D0E01397604031D70
:101D28008D2EB62E1908F60021004308860087017B
:101D3800760881000130F6007608C307C82E9C1A81
:101D4800CA2E19081C1DC32EB230F60076082100D1
:101D5800C20024001C080139F6001D0E0139760462
:101D6800031DAD2E210042088600870101082400CA
:101D780099000130F60076082100C207C82EBA3053
:101D8800F60076082100C30024001D162000141058
:101D98002100941C08002000941C080094100800DE
:101DA8002000E70000308D31E2258E31003A031D16
:101DB8005E2F89316A218E3188302000C600833039
:101DC800C7006630C8008430C90080315A208E317F
:101DD8002000A301A30A00308931EB218E31A930FC
:101DE8002000C6008230C700670886008701010806
:101DF800E500E6016508C8006608C90080315A2078
:101E08008E31D62E89316A218E3120006708023E34
:101E1800860087010108031D152FCE30C6008230C9
:101E2800202F20006708023E860087010103031D5A
:101E3800242F1230C6008330C70080315A208E31DB
:101E48002000A301A30A00308931EB218E31200044
:101E58006708023E860087010108031D432F96305C
:101E6800C6008330C700670A8600870101353E3EF9
:101E7800860001308700403FC800413F5A2F2000AC
:101E88006708023E860087010103031D5E2F963016
:101E9800C6008330C700670A860087010135203EE7
:101EA800860001308700403FC800413FC9008031AB
:101EB8005A208E3100308D31E2258E31003A0319D7
:101EC800062F89315A2108002000A400A701F42F09
:101ED800053024001C052000A20024001E081F391C
:101EE80020002204031D6C2F24001E14053024003A
:101EF8001C052000A20024001E081F39200022040F
:101F0800031D7A2F2435240099001C19892F0030CD
:101F18001E1B01302000A7002708031DC02FA501A4
:101F2800992F0130A2002208A507210825020318CD
:101F3800C02F053024001C052000A20024001E0824
:101F48001F3920002204031D9D2F25082007A20009
:101F58002208860087010108240099001C19B22F65
:101F680000301E1B01302000A70027080319952FF9
:101F78000230A2002208A700053024001C0520001A
:101F8800A20024001E081F3920002204031DC02FB0
:101F980024001E15FD2F24009C1D1C1EF12F20005F
:101FA800A601210826020318EC2F26082007A20004
:101FB8002208860087010108A3002608B23E860091
:101FC8008701230881000130A2002208A607D52F27
:101FD8002108A2002208A700FD2F2000A701FD2F3D
:101FE80021004408003A03196C2F013A0319CF2F36
:081FF800FD2F2000270808005E
:020000040001F9
:04000E00C4CFFFDD7F
:10E00000010000000000000000000000000000000F
:00000001FF
