:040000008031102813
:100008007E14803120007F08F0008231BA22700807
:100018002000FF007E10090080311228FC0120001A
:10002800C501C601C701C8017E10200081315329CE
:100038002000B3002630AA002A08AE002508AB002D
:100048002408AA00A40A0319A50A2A0884002B0870
:1000580085000008AC002C08B40034080319E52812
:1000680025303406031944283408AA0033088600CA
:1000780087012A0881000130AA002A08B30722282C
:10008800AF012508AB002408AA00A40A0319A50A91
:100098002A0884002B0885000008B400003A0319D8
:1000A800E528643A03195C280D3A03195C282228CC
:1000B8002E0886008701403FB100413FB200023060
:1000C800AA002A08AE07B21F72280330AA002A081D
:1000D800AF04B109B209B10A0319B20AB401B40AEA
:1000E80005303406031997283408AA00AB01AA354D
:1000F800AB0D3C302A07840082302B3D8500003F41
:10010800AC00013FAD002D083202031D8D282C08DC
:100118003102031C97280130AA002A08B4070530C9
:100128003406031D78282F0803390319A6282D3013
:10013800AA003308860087012A0881000130AA0036
:100148002A08B3073408AA002A08B000FF30AA001A
:100158002A08B007300A031922280A30A000003004
:10016800A1003008AA00AB01AA35AB0D3C302A0724
:10017800840082302B3D8500003FF100013FF200F2
:100188003208F4003108F3008131DB218031720834
:100198002000A3007108A20082310F2280312000C4
:1001A8002008303EAC002C08B4003408AA003308FC
:1001B800860087012A0881000130AA002A08B307AF
:1001C800AA283308860087018101080020000C1244
:1001D8008C110230F6003830F500AD30890BF2286A
:1001E800F50BF228F60BF2280000033020008D00F2
:1001F8008C15003200320032003220008C1100329F
:100208000032003200323430F500F230890B0A290E
:10021800F50B0A2920008C1500320032003200321A
:1002280020008C1100320032003200320530F50017
:100238002630890B1D29F50B1D29003220008C154D
:10024800003200320032003220008C1100320032BD
:10025800003200320530F5002630890B3129F50BC4
:1002680031290032023020008D008C150032003216
:100278000032003220008C1100320032003200328D
:1002880028308131A12180310C308131A121803188
:100298008231AB22803106308131A12108008231C0
:1002A800962281318231682281318031EA20813180
:1002B800C3302000C7000230C800BF01C001F430BD
:1002C800C1000130C200C301C401F401F40A0030C6
:1002D80082318122813160302000A4008230A50063
:1002E8004208A7004108A6004008A9003F08A80046
:1002F800353080311C20813101302000BF070030AB
:10030800C03D0130C1070030C23D4308353E86007C
:1003180087010108031967294308353E86008701CC
:100328000108FB007B08F4008231C32281310130CF
:100338002000C3070030C43D8929F300D530890B5C
:10034800A32900007308F10004300310F11B031403
:10035800F10C890BA92903307105F200730E0F39CE
:100368008919F0380C390907720420008D008C15A2
:10037800003200320032003220008C11003200328C
:100388000032003203307305F10073080C39090795
:10039800710420008D008C150032003200320032CA
:1003A80020008C1100320032003200320800F601C1
:1003B800F7017108720403190A2AF801F80AF21BF6
:1003C800EF290130F135F20D890BE6290130F500EE
:1003D8007508F807E3290130F635F70D890BF02980
:1003E80072087402031DFA2971087302031C012A9A
:1003F8007108F3027208F43B76140130F236F10CFE
:10040800890B022A0130F802031DEF297708F20050
:100418007608F10008002000200821040319372A73
:10042800FA01FA0AA11B222A0130A035A10D890B75
:10043800192A0130F9007908FA07162A2108230237
:10044800031D282A20082202031C2E2A2008A202A3
:100458002108A33B0130A136A00C890B2F2A0130BB
:10046800FA02031D222A2308A1002208A00008007E
:10047800013400340A34003464340034E83403347A
:10048800103427342534303438346C34583420341C
:10049800003420342534303438344C345834003463
:1004A8002034253430343234583400342034253460
:1004B800303434345834003425346434203425340A
:1004C800643400340D34003421000D17BF30F100BE
:1004D800710823008D0520001815F730F100710808
:1004E8009805180898179901960197012100111489
:1004F800200011100B178B170800F60020000C12B3
:100508007408F5000530F535FF3E031D872A75355B
:10051800760480388131A12182316A30890B922A90
:1005280000320800F3302100990007308C000730B2
:1005380023008C00403021008D0023008D010830FD
:1005480022009D009E0120008C018D0108002000E2
:100558000C1201308131A12182311530F400C630EE
:10056800890BB42AF40BB42A003208002000111CAD
:1005780008002100111C08002000111008002000AC
:0A0588000C1674088131A12108004F
:020000040001F9
:04000E00C4CFFFDD7F
:00000001FF
